{
  "contractName": "DataFeed",
  "abi": [
    {
      "inputs": [],
      "stateMutability": "nonpayable",
      "type": "constructor"
    },
    {
      "inputs": [],
      "name": "InvalidFeed",
      "type": "error"
    },
    {
      "inputs": [
        {
          "internalType": "address",
          "name": "tokenId",
          "type": "address"
        }
      ],
      "name": "InvalidTokenId",
      "type": "error"
    },
    {
      "anonymous": false,
      "inputs": [
        {
          "indexed": true,
          "internalType": "address",
          "name": "tokenId",
          "type": "address"
        },
        {
          "indexed": false,
          "internalType": "address",
          "name": "priceFeed",
          "type": "address"
        }
      ],
      "name": "NewPriceFeed",
      "type": "event"
    },
    {
      "anonymous": false,
      "inputs": [
        {
          "indexed": true,
          "internalType": "address",
          "name": "previousOwner",
          "type": "address"
        },
        {
          "indexed": true,
          "internalType": "address",
          "name": "newOwner",
          "type": "address"
        }
      ],
      "name": "OwnershipTransferStarted",
      "type": "event"
    },
    {
      "anonymous": false,
      "inputs": [
        {
          "indexed": true,
          "internalType": "address",
          "name": "previousOwner",
          "type": "address"
        },
        {
          "indexed": true,
          "internalType": "address",
          "name": "newOwner",
          "type": "address"
        }
      ],
      "name": "OwnershipTransferred",
      "type": "event"
    },
    {
      "inputs": [],
      "name": "acceptOwnership",
      "outputs": [],
      "stateMutability": "nonpayable",
      "type": "function"
    },
    {
      "inputs": [],
      "name": "owner",
      "outputs": [
        {
          "internalType": "address",
          "name": "",
          "type": "address"
        }
      ],
      "stateMutability": "view",
      "type": "function"
    },
    {
      "inputs": [],
      "name": "pendingOwner",
      "outputs": [
        {
          "internalType": "address",
          "name": "",
          "type": "address"
        }
      ],
      "stateMutability": "view",
      "type": "function"
    },
    {
      "inputs": [],
      "name": "renounceOwnership",
      "outputs": [],
      "stateMutability": "nonpayable",
      "type": "function"
    },
    {
      "inputs": [
        {
          "internalType": "address",
          "name": "newOwner",
          "type": "address"
        }
      ],
      "name": "transferOwnership",
      "outputs": [],
      "stateMutability": "nonpayable",
      "type": "function"
    },
    {
      "inputs": [
        {
          "internalType": "address",
          "name": "tokenId",
          "type": "address"
        },
        {
          "internalType": "address",
          "name": "priceFeed",
          "type": "address"
        }
      ],
      "name": "addDataFeed",
      "outputs": [],
      "stateMutability": "nonpayable",
      "type": "function"
    },
    {
      "inputs": [
        {
          "internalType": "address",
          "name": "usd",
          "type": "address"
        }
      ],
      "name": "addUsdFeed",
      "outputs": [],
      "stateMutability": "nonpayable",
      "type": "function"
    },
    {
      "inputs": [
        {
          "internalType": "address",
          "name": "tokenId",
          "type": "address"
        }
      ],
      "name": "getPriceData",
      "outputs": [
        {
          "internalType": "int256",
          "name": "",
          "type": "int256"
        },
        {
          "internalType": "uint80",
          "name": "",
          "type": "uint80"
        }
      ],
      "stateMutability": "view",
      "type": "function"
    },
    {
      "inputs": [
        {
          "internalType": "address",
          "name": "tokenId",
          "type": "address"
        },
        {
          "internalType": "uint256",
          "name": "amount",
          "type": "uint256"
        }
      ],
      "name": "amountInUsd",
      "outputs": [
        {
          "internalType": "uint256",
          "name": "",
          "type": "uint256"
        }
      ],
      "stateMutability": "view",
      "type": "function"
    },
    {
      "inputs": [],
      "name": "getUsd",
      "outputs": [
        {
          "internalType": "address",
          "name": "",
          "type": "address"
        }
      ],
      "stateMutability": "view",
      "type": "function"
    },
    {
      "inputs": [
        {
          "internalType": "address",
          "name": "_base",
          "type": "address"
        },
        {
          "internalType": "address",
          "name": "_quote",
          "type": "address"
        },
        {
          "internalType": "uint256",
          "name": "_amount",
          "type": "uint256"
        }
      ],
      "name": "convertFromTo",
      "outputs": [
        {
          "internalType": "uint256",
          "name": "",
          "type": "uint256"
        }
      ],
      "stateMutability": "view",
      "type": "function"
    }
  ],
  "bytecode": "0x608080604052346100635760018054600160a060020a0319908116909155600080543392811683178255600160a060020a0316907f8be0079c531659141344cd1fd0a4f28419497f9722a3daafe3b4186f6b6457e09080a361075f90816100698239f35b600080fdfe604060808152600436101561001357600080fd5b6000907c010000000000000000000000000000000000000000000000000000000082350480633b2a9f3f1461041557806359cd8e0a146103e4578063715018a61461038957806372279ba11461034b57806379ba5097146102525780638d1aea03146102165780638da5cb5b146101f1578063a28ec088146101ca578063e30c3978146101a3578063f2fde38b146101365763ff228df7146100b457600080fd5b346101325780600319360112610132577fe263805b03657ab13064915d0723c5ce14981547e7cba5283f66b9e5d81f6e6e60206100ef610468565b926100f8610483565b90610101610499565b600160a060020a03809516948587526003845281872092169182600160a060020a031982541617905551908152a280f35b5080fd5b82346101a05760203660031901126101a057610150610468565b610158610499565b600160a060020a038091169081600160a060020a031960015416176001558254167f38d16b8cac22d99fc7c124b9cd0de2d3fa1faef420bfe791d8c362d765e227008380a380f35b80fd5b5034610132578160031936011261013257602090600160a060020a03600154169051908152f35b5034610132578160031936011261013257602090600160a060020a03600254169051908152f35b5034610132578160031936011261013257600160a060020a0360209254169051908152f35b503461013257806003193601126101325760209061024b610235610468565b60243590600160a060020a036002541690610699565b9051908152f35b503461013257816003193601126101325760015490600160a060020a039033828416036102c8575073ffffffffffffffffffffffffffffffffffffffff1991821660015582543392811683178455167f8be0079c531659141344cd1fd0a4f28419497f9722a3daafe3b4186f6b6457e08380a380f35b608490517f08c379a000000000000000000000000000000000000000000000000000000000815260206004820152602960248201527f4f776e61626c6532537465703a2063616c6c6572206973206e6f74207468652060448201527f6e6577206f776e657200000000000000000000000000000000000000000000006064820152fd5b5090346101a05760203660031901126101a0575069ffffffffffffffffffff61037a610375610468565b610522565b83519182529091166020820152f35b82346101a057806003193601126101a0576103a2610499565b80600160a060020a038019806001541660015582549081168355167f8be0079c531659141344cd1fd0a4f28419497f9722a3daafe3b4186f6b6457e08280a380f35b50346101325760603660031901126101325760209061024b610404610468565b61040c610483565b60443591610699565b503461013257602036600319011261013257600160a060020a03610437610468565b61043f610499565b16600160a060020a03199181836002541617600255818452600360205283209182541617905580f35b60043590600160a060020a038216820361047e57565b600080fd5b60243590600160a060020a038216820361047e57565b600160a060020a036000541633036104ad57565b60646040517f08c379a000000000000000000000000000000000000000000000000000000000815260206004820152602060248201527f4f776e61626c653a2063616c6c6572206973206e6f7420746865206f776e65726044820152fd5b519069ffffffffffffffffffff8216820361047e57565b90600160a060020a0380921691600090838252600360205260409381858420541615610669576004949160a0918452600360205282842054168251958680927ffeaf968c0000000000000000000000000000000000000000000000000000000082525afa93841561065e578280956105cb575b505081156105a257509190565b600490517f1f86e170000000000000000000000000000000000000000000000000000000008152fd5b919450915060a03d8111610657575b601f8101601f1916830167ffffffffffffffff81118482101761062a5760a09184918752810103126101a057506106108161050b565b5061062260806020830151920161050b565b923880610595565b6024837f4e487b710000000000000000000000000000000000000000000000000000000081526041600452fd5b503d6105da565b5051903d90823e3d90fd5b6024908551907ff33b8d6c0000000000000000000000000000000000000000000000000000000082526004820152fd5b6106a86106af91939293610522565b5092610522565b50918181029181830414901517156106fa5781156106cb570490565b7f4e487b7100000000000000000000000000000000000000000000000000000000600052601260045260246000fd5b7f4e487b7100000000000000000000000000000000000000000000000000000000600052601160045260246000fdfea2646970667358221220fb2090066f7a847832f97385ca3ed28b1b6d1c3ef3db3c725198e15e5a10297864736f6c63430008110033",
  "immutableReferences": {},
  "source": "// SPDX-License-Identifier: MIT\r\npragma solidity ^0.8.17;\r\n\r\nimport {IDataFeed} from \"./interfaces/IDataFeed.sol\";\r\n\r\nimport {Ownable2Step} from \"@openzeppelin/contracts/access/Ownable2Step.sol\";\r\nimport {AggregatorV3Interface} from \"@chainlink/contracts/src/v0.8/shared/interfaces/AggregatorV3Interface.sol\";\r\n\r\n/// @title DataFeed powered by chainlink datafeeds\r\n/// @author Arogundade Ibrahim\r\ncontract DataFeed is IDataFeed, Ownable2Step {\r\n    address private _usd;\r\n    mapping(address => address) _priceFeeds;\r\n\r\n    constructor() Ownable2Step() {}\r\n\r\n    function addDataFeed(\r\n        address tokenId,\r\n        address priceFeed\r\n    ) external override onlyOwner {\r\n        // Set price feed\r\n        _priceFeeds[tokenId] = priceFeed;\r\n\r\n        emit NewPriceFeed(tokenId, priceFeed);\r\n    }\r\n\r\n    function addUsdFeed(address usd) external onlyOwner {\r\n        // Set usdc price feed\r\n        _usd = usd;\r\n        _priceFeeds[usd] = usd;\r\n    }\r\n\r\n    function getPriceData(\r\n        address tokenId\r\n    ) public view override returns (int256, uint80) {\r\n        // Check if the price feed was added\r\n        if (_priceFeeds[tokenId] == address(0)) {\r\n            revert InvalidTokenId(tokenId);\r\n        }\r\n\r\n        AggregatorV3Interface priceFeed = AggregatorV3Interface(\r\n            _priceFeeds[tokenId]\r\n        );\r\n\r\n        (, int256 answer, , , uint80 decimal) = priceFeed.latestRoundData();\r\n\r\n        // Check if the answer is non-zero\r\n        if (answer == 0) {\r\n            revert InvalidFeed();\r\n        }\r\n\r\n        return (answer, decimal);\r\n    }\r\n\r\n    function amountInUsd(\r\n        address tokenId,\r\n        uint256 amount\r\n    ) external view override returns (uint256) {\r\n        return convertFromTo(tokenId, _usd, amount);\r\n    }\r\n\r\n    function getUsd() external view override returns (address) {\r\n        return _usd;\r\n    }\r\n\r\n    function convertFromTo(\r\n        address _base,\r\n        address _quote,\r\n        uint256 _amount\r\n    ) public view override returns (uint256) {\r\n        (int256 basePrice, ) = getPriceData(_base);\r\n        (int256 quotePrice, ) = getPriceData(_quote);\r\n\r\n        return ((uint256(basePrice) * _amount) / uint256(quotePrice));\r\n    }\r\n}\r\n",
  "sourcePath": "C:\\Users\\DELL\\Documents\\electron\\solidity\\contracts\\chainlink\\DataFeed.sol",
  "compiler": {
    "name": "solc",
    "version": "0.8.17+commit.8df45f5f.Emscripten.clang"
  },
  "schemaVersion": "3.4.11",
  "updatedAt": "2024-04-27T13:40:14.544Z",
  "devdoc": {
    "author": "Arogundade Ibrahim",
    "kind": "dev",
    "methods": {
      "acceptOwnership()": {
        "details": "The new owner accepts the ownership transfer."
      },
      "owner()": {
        "details": "Returns the address of the current owner."
      },
      "pendingOwner()": {
        "details": "Returns the address of the pending owner."
      },
      "renounceOwnership()": {
        "details": "Leaves the contract without owner. It will not be possible to call `onlyOwner` functions. Can only be called by the current owner. NOTE: Renouncing ownership will leave the contract without an owner, thereby disabling any functionality that is only available to the owner."
      },
      "transferOwnership(address)": {
        "details": "Starts the ownership transfer of the contract to a new account. Replaces the pending transfer if there is one. Can only be called by the current owner."
      }
    },
    "title": "DataFeed powered by chainlink datafeeds",
    "version": 1
  },
  "userdoc": {
    "kind": "user",
    "methods": {},
    "version": 1
  }
}