{
  "contractName": "Electron",
  "abi": [
    {
      "inputs": [
        {
          "internalType": "address",
          "name": "pools",
          "type": "address"
        },
        {
          "internalType": "address",
          "name": "dataFeed",
          "type": "address"
        },
        {
          "internalType": "address",
          "name": "verifier",
          "type": "address"
        }
      ],
      "stateMutability": "nonpayable",
      "type": "constructor"
    },
    {
      "inputs": [],
      "name": "HasPendingLoan",
      "type": "error"
    },
    {
      "inputs": [],
      "name": "InvalidProof",
      "type": "error"
    },
    {
      "anonymous": false,
      "inputs": [
        {
          "indexed": false,
          "internalType": "uint256",
          "name": "poolId",
          "type": "uint256"
        },
        {
          "indexed": false,
          "internalType": "address",
          "name": "account",
          "type": "address"
        },
        {
          "indexed": false,
          "internalType": "enum Data.State",
          "name": "state",
          "type": "uint8"
        },
        {
          "indexed": false,
          "internalType": "uint256",
          "name": "repaidDate",
          "type": "uint256"
        }
      ],
      "name": "CloseLoan",
      "type": "event"
    },
    {
      "anonymous": false,
      "inputs": [
        {
          "indexed": false,
          "internalType": "uint256",
          "name": "poolId",
          "type": "uint256"
        },
        {
          "indexed": false,
          "internalType": "address",
          "name": "account",
          "type": "address"
        }
      ],
      "name": "ClosePosition",
      "type": "event"
    },
    {
      "anonymous": false,
      "inputs": [
        {
          "indexed": false,
          "internalType": "uint256",
          "name": "poolId",
          "type": "uint256"
        },
        {
          "indexed": false,
          "internalType": "address",
          "name": "account",
          "type": "address"
        },
        {
          "indexed": false,
          "internalType": "uint256",
          "name": "principal",
          "type": "uint256"
        },
        {
          "indexed": false,
          "internalType": "uint256",
          "name": "collateral",
          "type": "uint256"
        },
        {
          "indexed": false,
          "internalType": "enum Data.State",
          "name": "state",
          "type": "uint8"
        },
        {
          "indexed": false,
          "internalType": "uint256",
          "name": "startDate",
          "type": "uint256"
        }
      ],
      "name": "NewLoan",
      "type": "event"
    },
    {
      "anonymous": false,
      "inputs": [
        {
          "indexed": false,
          "internalType": "uint256",
          "name": "poolId",
          "type": "uint256"
        },
        {
          "indexed": false,
          "internalType": "address",
          "name": "principalId",
          "type": "address"
        },
        {
          "indexed": false,
          "internalType": "address",
          "name": "collateralId",
          "type": "address"
        },
        {
          "indexed": false,
          "internalType": "uint256",
          "name": "totalSupplied",
          "type": "uint256"
        },
        {
          "indexed": false,
          "internalType": "uint256",
          "name": "totalBorrowed",
          "type": "uint256"
        },
        {
          "indexed": false,
          "internalType": "uint256",
          "name": "interest",
          "type": "uint256"
        }
      ],
      "name": "NewPool",
      "type": "event"
    },
    {
      "anonymous": false,
      "inputs": [
        {
          "indexed": false,
          "internalType": "uint256",
          "name": "poolId",
          "type": "uint256"
        },
        {
          "indexed": false,
          "internalType": "address",
          "name": "account",
          "type": "address"
        },
        {
          "indexed": false,
          "internalType": "uint256",
          "name": "collateral",
          "type": "uint256"
        },
        {
          "indexed": false,
          "internalType": "uint256",
          "name": "startDate",
          "type": "uint256"
        }
      ],
      "name": "NewPosition",
      "type": "event"
    },
    {
      "anonymous": false,
      "inputs": [
        {
          "indexed": true,
          "internalType": "address",
          "name": "previousOwner",
          "type": "address"
        },
        {
          "indexed": true,
          "internalType": "address",
          "name": "newOwner",
          "type": "address"
        }
      ],
      "name": "OwnershipTransferStarted",
      "type": "event"
    },
    {
      "anonymous": false,
      "inputs": [
        {
          "indexed": true,
          "internalType": "address",
          "name": "previousOwner",
          "type": "address"
        },
        {
          "indexed": true,
          "internalType": "address",
          "name": "newOwner",
          "type": "address"
        }
      ],
      "name": "OwnershipTransferred",
      "type": "event"
    },
    {
      "inputs": [],
      "name": "acceptOwnership",
      "outputs": [],
      "stateMutability": "nonpayable",
      "type": "function"
    },
    {
      "inputs": [],
      "name": "owner",
      "outputs": [
        {
          "internalType": "address",
          "name": "",
          "type": "address"
        }
      ],
      "stateMutability": "view",
      "type": "function"
    },
    {
      "inputs": [],
      "name": "pendingOwner",
      "outputs": [
        {
          "internalType": "address",
          "name": "",
          "type": "address"
        }
      ],
      "stateMutability": "view",
      "type": "function"
    },
    {
      "inputs": [],
      "name": "renounceOwnership",
      "outputs": [],
      "stateMutability": "nonpayable",
      "type": "function"
    },
    {
      "inputs": [
        {
          "internalType": "address",
          "name": "newOwner",
          "type": "address"
        }
      ],
      "name": "transferOwnership",
      "outputs": [],
      "stateMutability": "nonpayable",
      "type": "function"
    },
    {
      "inputs": [
        {
          "components": [
            {
              "internalType": "address",
              "name": "principalId",
              "type": "address"
            },
            {
              "internalType": "address",
              "name": "collateralId",
              "type": "address"
            },
            {
              "internalType": "uint256",
              "name": "totalSupplied",
              "type": "uint256"
            },
            {
              "internalType": "uint256",
              "name": "totalBorrowed",
              "type": "uint256"
            },
            {
              "internalType": "uint256",
              "name": "interest",
              "type": "uint256"
            }
          ],
          "internalType": "struct Data.Pool",
          "name": "pool",
          "type": "tuple"
        }
      ],
      "name": "newPool",
      "outputs": [],
      "stateMutability": "nonpayable",
      "type": "function"
    },
    {
      "inputs": [
        {
          "internalType": "uint256",
          "name": "poolId",
          "type": "uint256"
        },
        {
          "internalType": "uint256",
          "name": "collateral",
          "type": "uint256"
        }
      ],
      "name": "supply",
      "outputs": [],
      "stateMutability": "nonpayable",
      "type": "function"
    },
    {
      "inputs": [
        {
          "internalType": "uint256",
          "name": "poolId",
          "type": "uint256"
        },
        {
          "components": [
            {
              "internalType": "bytes32",
              "name": "proofId",
              "type": "bytes32"
            },
            {
              "internalType": "bytes32[]",
              "name": "pubInputs",
              "type": "bytes32[]"
            },
            {
              "internalType": "bytes",
              "name": "data",
              "type": "bytes"
            }
          ],
          "internalType": "struct Data.Proof[]",
          "name": "proofs",
          "type": "tuple[]"
        }
      ],
      "name": "borrow",
      "outputs": [],
      "stateMutability": "nonpayable",
      "type": "function"
    },
    {
      "inputs": [
        {
          "internalType": "uint256",
          "name": "poolId",
          "type": "uint256"
        }
      ],
      "name": "withdraw",
      "outputs": [],
      "stateMutability": "nonpayable",
      "type": "function"
    },
    {
      "inputs": [
        {
          "internalType": "uint256",
          "name": "poolId",
          "type": "uint256"
        }
      ],
      "name": "repay",
      "outputs": [],
      "stateMutability": "nonpayable",
      "type": "function"
    },
    {
      "inputs": [
        {
          "internalType": "address",
          "name": "tokenId",
          "type": "address"
        },
        {
          "internalType": "uint256",
          "name": "amount",
          "type": "uint256"
        }
      ],
      "name": "withdrawTokens",
      "outputs": [],
      "stateMutability": "nonpayable",
      "type": "function"
    },
    {
      "inputs": [
        {
          "internalType": "uint256",
          "name": "poolId",
          "type": "uint256"
        },
        {
          "components": [
            {
              "internalType": "bytes32",
              "name": "proofId",
              "type": "bytes32"
            },
            {
              "internalType": "bytes32[]",
              "name": "pubInputs",
              "type": "bytes32[]"
            },
            {
              "internalType": "bytes",
              "name": "data",
              "type": "bytes"
            }
          ],
          "internalType": "struct Data.Proof[]",
          "name": "proofs",
          "type": "tuple[]"
        }
      ],
      "name": "calculateLtv",
      "outputs": [
        {
          "internalType": "uint256",
          "name": "",
          "type": "uint256"
        }
      ],
      "stateMutability": "view",
      "type": "function"
    }
  ],
  "bytecode": "0x608034620000eb5762001ba480380390601f19601f83011683019183831067ffffffffffffffff841117620000f057808492606094604052833981010312620000eb576200004d816200011f565b62000069604062000061602085016200011f565b93016200011f565b90600160a060020a0319918260015416600155600054338482161760005560405194600160a060020a0380948193823391167f8be0079c531659141344cd1fd0a4f28419497f9722a3daafe3b4186f6b6457e0600080a3168560025416176002551683600354161760035516906004541617600455611a6f9081620001358239f35b600080fd5b7f4e487b7100000000000000000000000000000000000000000000000000000000600052604160045260246000fd5b5190600160a060020a0382168203620000eb5756fe6040608081526004908136101561001557600080fd5b6000917c0100000000000000000000000000000000000000000000000000000000833504806306b091f91461126b5780632e1a7d4d14610fc6578063371fd8e614610cbf5780634a2d39fd146106a7578063715018a61461064b57806379ba50971461056f5780638cf0fdb11461045c5780638da5cb5b14610436578063daecfa6c146102d8578063e30c3978146102ac578063f2fde38b1461023f5763f37a334e146100c157600080fd5b3461023b5760a036600319011261023b578151916100de836112e9565b6100e66112a6565b8352600160a060020a0392602435848116810361022557602092838301918252808301906044358252606084019260643584526080850194608435865261012b61154a565b868960a481600254169a8d87519c8d9485937f5a18ef4400000000000000000000000000000000000000000000000000000000855281895116908501528851166024840152895160448401528a5160648401528b5160848401525af1978815610231578a986101ed575b5090887f111d0e3eb9c30e3e69f6efd6e0e267be48ce8ea8d64bb49bed00ee5a5f22a2839960c09998979695949351169151169251935194519582519788528701528501526060840152608083015260a0820152a180f35b97509594939291908588813d831161022a575b61020a8183611305565b81010312610225579651969495939492939192909188610195565b600080fd5b503d610200565b83513d8c823e3d90fd5b8280fd5b83346102a95760203660031901126102a9576102596112a6565b61026161154a565b600160a060020a038091169081600160a060020a031960015416176001558254167f38d16b8cac22d99fc7c124b9cd0de2d3fa1faef420bfe791d8c362d765e227008380a380f35b80fd5b5050346102d457816003193601126102d457602090600160a060020a03600154169051908152f35b5080fd5b50903461023b578060031936011261023b578135908360243593600160a060020a03602460a0826002541686519283809260e060020a63068bcd8d0282528a888301525afa90811561042c57826020610341938a9388916103fe575b500151163090339061160d565b6002541690813b1561023b57846064849283875195869485937f651ab22a0000000000000000000000000000000000000000000000000000000085528401528a60248401523360448401525af180156103f4576103d8575b507f391d46f537d2346cb49c6008e8336fc51205544e56b22738787ab0c791c83f7660808486858051928352336020840152820152426060820152a180f35b6103e4909392936112bc565b6103f057908338610399565b8380fd5b83513d84823e3d90fd5b61041f915060a03d8111610425575b6104178183611305565b8101906115b9565b38610334565b503d61040d565b85513d86823e3d90fd5b5050346102d457816003193601126102d457600160a060020a0360209254169051908152f35b5082346102a95761046c3661135b565b8354909391508290600160a060020a031660465b8551851015610562576104ca90876104988789611914565b518151809481927fccc9ebb2000000000000000000000000000000000000000000000000000000008352898301611967565b0381865afa9182156105585784908593610526575b50156104fe576104f8916104f2916119d3565b946118ec565b93610480565b8488517f09bde339000000000000000000000000000000000000000000000000000000008152fd5b9050610549919250883d8a11610551575b6105418183611305565b810190611940565b9190896104df565b503d610537565b88513d86823e3d90fd5b60209060ff885191168152f35b50903461023b578260031936011261023b5760015491600160a060020a039133838516036105df575050600160a060020a03198092166001556000549133908316176000553391167f8be0079c531659141344cd1fd0a4f28419497f9722a3daafe3b4186f6b6457e0600080a380f35b906020608492519160e560020a62461bcd028352820152602960248201527f4f776e61626c6532537465703a2063616c6c6572206973206e6f74207468652060448201527f6e6577206f776e657200000000000000000000000000000000000000000000006064820152fd5b83346102a957806003193601126102a95761066461154a565b6000600160a060020a038019806001541660015582549081168355167f8be0079c531659141344cd1fd0a4f28419497f9722a3daafe3b4186f6b6457e08280a380f35b503461023b576106b63661135b565b91600160a060020a03938460025416938151937f06b5b5b200000000000000000000000000000000000000000000000000000000855260209485818061071333868a8401908152600160a060020a03909116602082015260400190565b03818a5afa908115610c54578991610c86575b50610c5e5782517fd29f541d0000000000000000000000000000000000000000000000000000000081528481018281523360208201529095906060908790819060400103818a5afa958615610c54578996610c1c575b5060a084959697602495519586809260e060020a63068bcd8d028252868b8301525afa938415610c12578994610bf2575b50855493978997948116949060465b8b86518b1015610891579061080991896107d68d8a611914565b518c825195869283927fccc9ebb20000000000000000000000000000000000000000000000000000000084528301611967565b03818c5afa928315610885578193610863575b501561083b576108359161082f916119d3565b996118ec565b986107bc565b8989517f09bde339000000000000000000000000000000000000000000000000000000008152fd5b905061087d919250893d8b11610551576105418183611305565b91903861081c565b508951903d90823e3d90fd5b9492858a8a96948e6108f9878a846003541682868187015116990198888a5193518096819582947f8d1aea030000000000000000000000000000000000000000000000000000000084528c840160209093929193600160a060020a0360408201951681520152565b03925af1968715610be85788918698610bb3575b50604460ff9885600254168d519a8b9485937f3a2e89a10000000000000000000000000000000000000000000000000000000085528a8501521660248301525afa958615610b2d578496610b80575b508160035416958951907f72501146000000000000000000000000000000000000000000000000000000008252888286818b5afa978b8915610b77578a93889a610b37575b50876109fd9a8787511692519b8c95869485937f59cd8e0a0000000000000000000000000000000000000000000000000000000085528c8501604091949392946060820195600160a060020a0380921683521660208201520152565b03925af1958615610b2d578496610af7575b5085610a1f9183339151166119e7565b60025416835191813b156103f057608488918580948c5196879586947fd14a33210000000000000000000000000000000000000000000000000000000086528501528a602485015260448401523360648401525af18015610aed57610acd575b507f65f8d22b590e3bf673a47cd6551478a7e8db9e75aa0371dddd417f99a86465c160c08686868a875192815194855233908501528301526060820152600060808201524260a0820152a180f35b610adb9095949392956112bc565b610ae9579091928587610a7f565b8580fd5b87513d84823e3d90fd5b87809297508195503d8311610b26575b610b118183611305565b8101031261022557610a1f8993519590610a0f565b503d610b07565b89513d86823e3d90fd5b9380929a508491503d8311610b70575b610b518183611305565b81010312610ae9576109fd978b87610b698c956115a5565b9a506109a1565b503d610b47565b513d88823e3d90fd5b87809297508195503d8311610bac575b610b9a8183611305565b8101031261022557889251948a61095c565b503d610b90565b9750945086813d8311610be1575b610bcb8183611305565b810103126102255794519489938790604461090d565b503d610bc1565b8a513d87823e3d90fd5b610c0b91945060a03d8111610425576104178183611305565b92386107ad565b85513d8b823e3d90fd5b602494959650610c4460a09160603d8111610c4d575b610c3c8183611305565b8101906118a8565b9695945061077c565b503d610c32565b84513d8b823e3d90fd5b5050517f6a51e835000000000000000000000000000000000000000000000000000000008152fd5b90508581813d8311610cb8575b610c9d8183611305565b81010312610cb457610cae90611679565b38610726565b8880fd5b503d610c93565b50903461023b576020806003193601126103f057823592600160a060020a03806002541684517fc50a74a600000000000000000000000000000000000000000000000000000000815260c08180610d2d338b898401908152600160a060020a03909116602082015260400190565b0381855afa908115610fbc578891610f14575b5085519060e060020a63068bcd8d028252878583015260a082602481865afa918215610eea578992610ef4575b508587820191606460808451920151916080860151968b5197889485937f745052c00000000000000000000000000000000000000000000000000000000085528c850152602484015260448301525afa928315610eea578993610ebb575b5051918201809211610ea5578291889493610deb9251163090339061160d565b60025416803b1561023b5784517f7e8400b20000000000000000000000000000000000000000000000000000000081529182018681523360208201528391839182908490829060400103925af18015610e9b57610e83575b50926001836080937f7a4047df4390948a7d14564207014a9b5502a5129a2166cc9613080ae948e44795519384523390840152820152426060820152a180f35b610e8f909492946112bc565b6103f057918338610e43565b84513d84823e3d90fd5b60248860118660e060020a634e487b7102835252fd5b9092508581813d8311610ee3575b610ed38183611305565b8101031261022557519138610dcb565b503d610ec9565b87513d8b823e3d90fd5b610f0d91925060a03d8111610425576104178183611305565b9038610d6d565b905060c0813d8211610fb4575b81610f2e60c09383611305565b81010312610fb05785519060c0820182811067ffffffffffffffff821117610f985787528051825285810151906003821015610f945760a0918784015287810151888401526060810151606084015260808101516080840152015160a082015238610d40565b8980fd5b60418660e060020a634e487b71026000525260246000fd5b8780fd5b3d9150610f21565b86513d8a823e3d90fd5b50903461023b57602091826003193601126103f057803592600160a060020a039081600254169084517f06b5b5b2000000000000000000000000000000000000000000000000000000008152818180611036338b8a8401908152600160a060020a03909116602082015260400190565b0381865afa908115610fbc578891611236575b5061120e5784517fd29f541d0000000000000000000000000000000000000000000000000000000081528085018781523360208201528895949391929190606090849081906040010381845afa9283156111de5786936111e8575b5060a060249188519283809260e060020a63068bcd8d0282528c8a8301525afa9081156111de57826110ea949392869289916111c0575b500151169101519033906119e7565b6002541690813b1561023b5783517fb5e0ecac000000000000000000000000000000000000000000000000000000008152908101858152336020820152909291839182908490829060400103925af180156111b65761117d575b50519081523360208201527fd166759110875e7043f195882c2c5c5ae3e22d3bed496bb1da5b0a6efc1bbad69080604081015b0390a180f35b9161117791936111ad7fd166759110875e7043f195882c2c5c5ae3e22d3bed496bb1da5b0a6efc1bbad6946112bc565b93915091611144565b82513d86823e3d90fd5b6111d8915060a03d8111610425576104178183611305565b386110db565b87513d88823e3d90fd5b602491935061120660a09160603d8111610c4d57610c3c8183611305565b9391506110a4565b8385517f6a51e835000000000000000000000000000000000000000000000000000000008152fd5b90508181813d8311611264575b61124d8183611305565b81010312610fb05761125e90611679565b38611049565b503d611243565b5050346102d4573660031901126102a9576112a36112876112a6565b61128f61154a565b60243590600160a060020a033391166119e7565b80f35b60043590600160a060020a038216820361022557565b67ffffffffffffffff81116112d057604052565b60e060020a634e487b7102600052604160045260246000fd5b60a0810190811067ffffffffffffffff8211176112d057604052565b90601f8019910116810190811067ffffffffffffffff8211176112d057604052565b67ffffffffffffffff81116112d05760208091020190565b67ffffffffffffffff81116112d057601f01601f191660200190565b906040600319830112610225576004359167ffffffffffffffff602435116102255780602360243501121561022557602435600401359061139b82611327565b916113a96040519384611305565b8083526020830191806024602084028135010111610225576024803501925b6024602084028135010184106113df575050505090565b83359067ffffffffffffffff821161022557606091826023198260243501860301126102255760405192830183811067ffffffffffffffff821117611532576040526024803582019081013584526044919082013567ffffffffffffffff8111610225578160243501018560438201121561022557602481013561146281611327565b916114706040519384611305565b81835260208301908886602085028301011161022557858101915b86602085028301018310611522575050505060208501526064816024350101359067ffffffffffffffff82116102255760243501019184604384011215610225576024830135906114db8261133f565b946114e96040519687611305565b828652868484870101116102255760249560006020858198968298839801838601378301015260408201528152019501949150506113c8565b823581526020928301920161148b565b6024600060e060020a634e487b710281526041600452fd5b600160a060020a0360005416330361155e57565b606460405160e560020a62461bcd02815260206004820152602060248201527f4f776e61626c653a2063616c6c6572206973206e6f7420746865206f776e65726044820152fd5b5190600160a060020a038216820361022557565b908160a0910312610225576080604051916115d3836112e9565b6115dc816115a5565b83526115ea602082016115a5565b602084015260408101516040840152606081015160608401520151608082015290565b6040517f23b872dd000000000000000000000000000000000000000000000000000000006020820152600160a060020a03928316602482015292909116604483015260648201929092526116779161167282608481015b03601f198101845283611305565b611686565b565b5190811515820361022557565b600160a060020a031690604051604081019080821067ffffffffffffffff8311176112d057611717916040526020938482527f5361666545524332303a206c6f772d6c6576656c2063616c6c206661696c6564858301526000808587829751910182855af13d156117c2573d916116fc8361133f565b9261170a6040519485611305565b83523d868885013e6117c6565b908151908382159283156117a0575b5050509050156117335750565b6084906040519060e560020a62461bcd0282526004820152602a60248201527f5361666545524332303a204552433230206f7065726174696f6e20646964206e60448201527f6f742073756363656564000000000000000000000000000000000000000000006064820152fd5b8480929394500103126102a95750816117b99101611679565b80388381611726565b6060915b9192901561182a57508151156117da575090565b3b156117e35790565b606460405160e560020a62461bcd02815260206004820152601d60248201527f416464726573733a2063616c6c20746f206e6f6e2d636f6e74726163740000006044820152fd5b82519091501561183d5750805190602001fd5b6118649060405191829160e560020a62461bcd028352602060048401526024830190611868565b0390fd5b919082519283825260005b848110611894575050826000602080949584010152601f8019910116010190565b602081830181015184830182015201611873565b908160609103126102255760405190606082019082821067ffffffffffffffff8311176112d057604091825280518352602081015160208401520151604082015290565b60001981146118fb5760010190565b60e060020a634e487b7102600052601160045260246000fd5b8051821015611927576020809202010190565b60e060020a634e487b7102600052603260045260246000fd5b919082604091031261022557602061195783611679565b92015160ff811681036102255790565b6020808252825181830152808301516060604084015280516080840181905293949360a0840193929182019160005b8281106119bf575050505060406119bc93940151906060601f1982850301910152611868565b90565b835186529481019492810192600101611996565b9060ff8091169116019060ff82116118fb57565b6040517fa9059cbb000000000000000000000000000000000000000000000000000000006020820152600160a060020a039092166024830152604482019290925261167791611672826064810161166456fea2646970667358221220a7848d922f8aa2e48241b4eeb87342699f07c6b8634e3533919001dc585a0bca64736f6c63430008110033",
  "immutableReferences": {},
  "source": "// SPDX-License-Identifier: MIT\r\npragma solidity ^0.8.17;\r\n\r\nimport {Data} from \"./libraries/Data.sol\";\r\n\r\nimport {IPools} from \"./interfaces/IPools.sol\";\r\nimport {IElectron} from \"./interfaces/IElectron.sol\";\r\nimport {IVerifier} from \"../zk/interfaces/IVerifier.sol\";\r\nimport {IDataFeed} from \"../chainlink/interfaces/IDataFeed.sol\";\r\n\r\nimport {ERC20} from \"@openzeppelin/contracts/token/ERC20/ERC20.sol\";\r\nimport {SafeERC20} from \"@openzeppelin/contracts/token/ERC20/utils/SafeERC20.sol\";\r\nimport {Ownable2Step} from \"@openzeppelin/contracts/access/Ownable2Step.sol\";\r\n\r\n/// @title Electron\r\n/// @author @devarogundade\r\ncontract Electron is IElectron, Ownable2Step {\r\n    using SafeERC20 for ERC20;\r\n\r\n    uint8 private constant DEFAULT_LTV = 70;\r\n\r\n    IPools private _pools;\r\n    IDataFeed private _feed;\r\n    IVerifier private _verifier;\r\n\r\n    constructor(\r\n        address pools,\r\n        address dataFeed,\r\n        address verifier\r\n    ) Ownable2Step() {\r\n        _pools = IPools(pools);\r\n        _feed = IDataFeed(dataFeed);\r\n        _verifier = IVerifier(verifier);\r\n    }\r\n\r\n    function newPool(Data.Pool memory pool) external onlyOwner {\r\n        uint256 poolId = _pools.createPool(pool);\r\n\r\n        emit NewPool(\r\n            poolId,\r\n            pool.principalId,\r\n            pool.collateralId,\r\n            pool.totalSupplied,\r\n            pool.totalBorrowed,\r\n            pool.interest\r\n        );\r\n    }\r\n\r\n    /// @notice Explain to an end user what this does\r\n    function supply(uint256 poolId, uint256 collateral) external {\r\n        address account = _msgSender();\r\n\r\n        // Get the liquidity pool\r\n        Data.Pool memory pool = _pools.getPool(poolId);\r\n\r\n        // Extract collateral token from account\r\n        ERC20(pool.collateralId).safeTransferFrom(\r\n            account,\r\n            address(this),\r\n            collateral\r\n        );\r\n\r\n        // Create account position in the liquidity pool\r\n        _pools.createPosition(poolId, collateral, account);\r\n\r\n        emit NewPosition(poolId, account, collateral, block.timestamp);\r\n    }\r\n\r\n    /// @notice Explain to an end user what this does\r\n    function borrow(uint256 poolId, Data.Proof[] memory proofs) external {\r\n        address account = _msgSender();\r\n\r\n        // Check if account already has a pending loan\r\n        bool hasPendingLoan = _pools.hasPendingLoan(poolId, account);\r\n\r\n        if (hasPendingLoan) {\r\n            revert HasPendingLoan();\r\n        }\r\n\r\n        // Get the account position in the liquidity pool\r\n        Data.Position memory position = _pools.getPosition(poolId, account);\r\n\r\n        // Get the liquidity pool\r\n        Data.Pool memory pool = _pools.getPool(poolId);\r\n\r\n        uint8 totalLtv = DEFAULT_LTV;\r\n\r\n        for (uint index = 0; index < proofs.length; index++) {\r\n            (bool valid, uint8 points) = _verifier.verify(proofs[index]);\r\n            if (!valid) {\r\n                revert InvalidProof();\r\n            }\r\n\r\n            totalLtv += points;\r\n        }\r\n\r\n        // Calculate collateral amount in usd\r\n        uint256 collateralInUsd = _feed.amountInUsd(\r\n            pool.collateralId,\r\n            position.collateral\r\n        );\r\n\r\n        // Use collateral worth and overall points to estimate\r\n        // worth of principal account can get\r\n        uint256 principalInUsd = _pools.getPrincipalInUsd(\r\n            collateralInUsd,\r\n            totalLtv\r\n        );\r\n\r\n        // Convert worth of principal back to principal\r\n        uint256 principal = _feed.convertFromTo(\r\n            _feed.getUsdId(),\r\n            pool.principalId,\r\n            principalInUsd\r\n        );\r\n\r\n        // Send principal token to account\r\n        ERC20(pool.principalId).safeTransfer(account, principal);\r\n\r\n        // Record account loan\r\n        _pools.createLoan(poolId, principal, position.collateral, account);\r\n\r\n        emit NewLoan(\r\n            poolId,\r\n            account,\r\n            principal,\r\n            position.collateral,\r\n            Data.State.ACTIVE,\r\n            block.timestamp\r\n        );\r\n    }\r\n\r\n    /// @notice Explain to an end user what this does\r\n    function withdraw(uint256 poolId) external {\r\n        address account = _msgSender();\r\n\r\n        // Check if account already has a pending loan\r\n        bool hasPendingLoan = _pools.hasPendingLoan(poolId, account);\r\n\r\n        if (hasPendingLoan) {\r\n            revert HasPendingLoan();\r\n        }\r\n\r\n        // Get the account position in the liquidity pool\r\n        Data.Position memory position = _pools.getPosition(poolId, account);\r\n\r\n        Data.Pool memory pool = _pools.getPool(poolId);\r\n\r\n        // Send principal token to account\r\n        ERC20(pool.collateralId).safeTransfer(account, position.collateral);\r\n\r\n        // Close account position in the liquidity pool\r\n        _pools.closePosition(poolId, account);\r\n\r\n        emit ClosePosition(poolId, account);\r\n    }\r\n\r\n    /// @notice Explain to an end user what this does\r\n    function repay(uint256 poolId) external {\r\n        address account = _msgSender();\r\n\r\n        // Get the account loan for pool\r\n        Data.Loan memory loan = _pools.getLoan(poolId, account);\r\n\r\n        // Get the liquidity pool\r\n        Data.Pool memory pool = _pools.getPool(poolId);\r\n\r\n        // Calculate position rewards in principal token\r\n        uint256 accruedInsterest = _pools.calculateRewards(\r\n            loan.principal,\r\n            loan.startDate,\r\n            pool.interest\r\n        );\r\n\r\n        // Sum the rewards and principal\r\n        uint256 principalIn = (loan.principal + accruedInsterest);\r\n\r\n        // Extract principal token from account\r\n        ERC20(pool.principalId).safeTransferFrom(\r\n            account,\r\n            address(this),\r\n            principalIn\r\n        );\r\n\r\n        // Close account loan\r\n        _pools.closeLoan(poolId, account);\r\n\r\n        emit CloseLoan(poolId, account, Data.State.REPAID, block.timestamp);\r\n    }\r\n\r\n    /// @notice Emergency token withdraw\r\n    function withdrawTokens(\r\n        address tokenId,\r\n        uint256 amount\r\n    ) external onlyOwner {\r\n        address account = _msgSender();\r\n\r\n        // Transfer tokens to account\r\n        ERC20(tokenId).safeTransfer(account, amount);\r\n    }\r\n\r\n    function calculateLtv(\r\n        uint256 poolId,\r\n        Data.Proof[] memory proofs\r\n    ) external view override returns (uint256) {\r\n        uint8 totalLtv = DEFAULT_LTV;\r\n\r\n        for (uint index = 0; index < proofs.length; index++) {\r\n            (bool valid, uint8 points) = _verifier.verify(proofs[index]);\r\n\r\n            if (!valid) {\r\n                revert InvalidProof();\r\n            }\r\n\r\n            totalLtv += points;\r\n        }\r\n\r\n        return totalLtv;\r\n    }\r\n}\r\n",
  "sourcePath": "C:\\Users\\DELL\\Documents\\electron\\solidity\\contracts\\core\\Electron.sol",
  "compiler": {
    "name": "solc",
    "version": "0.8.17+commit.8df45f5f.Emscripten.clang"
  },
  "schemaVersion": "3.4.11",
  "updatedAt": "2024-04-27T15:07:07.868Z",
  "devdoc": {
    "author": "@devarogundade",
    "kind": "dev",
    "methods": {
      "acceptOwnership()": {
        "details": "The new owner accepts the ownership transfer."
      },
      "owner()": {
        "details": "Returns the address of the current owner."
      },
      "pendingOwner()": {
        "details": "Returns the address of the pending owner."
      },
      "renounceOwnership()": {
        "details": "Leaves the contract without owner. It will not be possible to call `onlyOwner` functions. Can only be called by the current owner. NOTE: Renouncing ownership will leave the contract without an owner, thereby disabling any functionality that is only available to the owner."
      },
      "transferOwnership(address)": {
        "details": "Starts the ownership transfer of the contract to a new account. Replaces the pending transfer if there is one. Can only be called by the current owner."
      }
    },
    "title": "Electron",
    "version": 1
  },
  "userdoc": {
    "kind": "user",
    "methods": {
      "borrow(uint256,(bytes32,bytes32[],bytes)[])": {
        "notice": "Explain to an end user what this does"
      },
      "repay(uint256)": {
        "notice": "Explain to an end user what this does"
      },
      "supply(uint256,uint256)": {
        "notice": "Explain to an end user what this does"
      },
      "withdraw(uint256)": {
        "notice": "Explain to an end user what this does"
      },
      "withdrawTokens(address,uint256)": {
        "notice": "Emergency token withdraw"
      }
    },
    "version": 1
  }
}