{
  "contractName": "Electron",
  "abi": [
    {
      "inputs": [
        {
          "internalType": "address",
          "name": "pool",
          "type": "address"
        },
        {
          "internalType": "address",
          "name": "dataFeed",
          "type": "address"
        },
        {
          "internalType": "address",
          "name": "verifier",
          "type": "address"
        }
      ],
      "stateMutability": "nonpayable",
      "type": "constructor"
    },
    {
      "inputs": [],
      "name": "HasPendingLoan",
      "type": "error"
    },
    {
      "anonymous": false,
      "inputs": [
        {
          "indexed": false,
          "internalType": "uint256",
          "name": "poolId",
          "type": "uint256"
        },
        {
          "indexed": false,
          "internalType": "address",
          "name": "account",
          "type": "address"
        },
        {
          "indexed": false,
          "internalType": "enum Data.State",
          "name": "state",
          "type": "uint8"
        },
        {
          "indexed": false,
          "internalType": "uint256",
          "name": "repaidDate",
          "type": "uint256"
        }
      ],
      "name": "CloseLoan",
      "type": "event"
    },
    {
      "anonymous": false,
      "inputs": [
        {
          "indexed": false,
          "internalType": "uint256",
          "name": "poolId",
          "type": "uint256"
        },
        {
          "indexed": false,
          "internalType": "address",
          "name": "account",
          "type": "address"
        }
      ],
      "name": "ClosePosition",
      "type": "event"
    },
    {
      "anonymous": false,
      "inputs": [
        {
          "indexed": false,
          "internalType": "uint256",
          "name": "poolId",
          "type": "uint256"
        },
        {
          "indexed": false,
          "internalType": "address",
          "name": "account",
          "type": "address"
        },
        {
          "indexed": false,
          "internalType": "uint256",
          "name": "principal",
          "type": "uint256"
        },
        {
          "indexed": false,
          "internalType": "uint256",
          "name": "collateral",
          "type": "uint256"
        },
        {
          "indexed": false,
          "internalType": "enum Data.State",
          "name": "state",
          "type": "uint8"
        },
        {
          "indexed": false,
          "internalType": "uint256",
          "name": "startDate",
          "type": "uint256"
        }
      ],
      "name": "NewLoan",
      "type": "event"
    },
    {
      "anonymous": false,
      "inputs": [
        {
          "indexed": false,
          "internalType": "uint256",
          "name": "poolId",
          "type": "uint256"
        },
        {
          "indexed": false,
          "internalType": "address",
          "name": "principalId",
          "type": "address"
        },
        {
          "indexed": false,
          "internalType": "address",
          "name": "collateralId",
          "type": "address"
        },
        {
          "indexed": false,
          "internalType": "uint256",
          "name": "totalSupplied",
          "type": "uint256"
        },
        {
          "indexed": false,
          "internalType": "uint256",
          "name": "totalBorrowed",
          "type": "uint256"
        },
        {
          "indexed": false,
          "internalType": "uint256",
          "name": "interest",
          "type": "uint256"
        }
      ],
      "name": "NewPool",
      "type": "event"
    },
    {
      "anonymous": false,
      "inputs": [
        {
          "indexed": false,
          "internalType": "uint256",
          "name": "poolId",
          "type": "uint256"
        },
        {
          "indexed": false,
          "internalType": "address",
          "name": "account",
          "type": "address"
        },
        {
          "indexed": false,
          "internalType": "uint256",
          "name": "principal",
          "type": "uint256"
        },
        {
          "indexed": false,
          "internalType": "uint256",
          "name": "startDate",
          "type": "uint256"
        }
      ],
      "name": "NewPosition",
      "type": "event"
    },
    {
      "anonymous": false,
      "inputs": [
        {
          "indexed": true,
          "internalType": "address",
          "name": "previousOwner",
          "type": "address"
        },
        {
          "indexed": true,
          "internalType": "address",
          "name": "newOwner",
          "type": "address"
        }
      ],
      "name": "OwnershipTransferStarted",
      "type": "event"
    },
    {
      "anonymous": false,
      "inputs": [
        {
          "indexed": true,
          "internalType": "address",
          "name": "previousOwner",
          "type": "address"
        },
        {
          "indexed": true,
          "internalType": "address",
          "name": "newOwner",
          "type": "address"
        }
      ],
      "name": "OwnershipTransferred",
      "type": "event"
    },
    {
      "inputs": [],
      "name": "acceptOwnership",
      "outputs": [],
      "stateMutability": "nonpayable",
      "type": "function"
    },
    {
      "inputs": [],
      "name": "owner",
      "outputs": [
        {
          "internalType": "address",
          "name": "",
          "type": "address"
        }
      ],
      "stateMutability": "view",
      "type": "function"
    },
    {
      "inputs": [],
      "name": "pendingOwner",
      "outputs": [
        {
          "internalType": "address",
          "name": "",
          "type": "address"
        }
      ],
      "stateMutability": "view",
      "type": "function"
    },
    {
      "inputs": [],
      "name": "renounceOwnership",
      "outputs": [],
      "stateMutability": "nonpayable",
      "type": "function"
    },
    {
      "inputs": [
        {
          "internalType": "address",
          "name": "newOwner",
          "type": "address"
        }
      ],
      "name": "transferOwnership",
      "outputs": [],
      "stateMutability": "nonpayable",
      "type": "function"
    },
    {
      "inputs": [
        {
          "components": [
            {
              "internalType": "address",
              "name": "principalId",
              "type": "address"
            },
            {
              "internalType": "address",
              "name": "collateralId",
              "type": "address"
            },
            {
              "internalType": "uint256",
              "name": "totalSupplied",
              "type": "uint256"
            },
            {
              "internalType": "uint256",
              "name": "totalBorrowed",
              "type": "uint256"
            },
            {
              "internalType": "uint256",
              "name": "interest",
              "type": "uint256"
            }
          ],
          "internalType": "struct Data.Pool",
          "name": "pool",
          "type": "tuple"
        }
      ],
      "name": "newPool",
      "outputs": [],
      "stateMutability": "nonpayable",
      "type": "function"
    },
    {
      "inputs": [
        {
          "internalType": "uint256",
          "name": "poolId",
          "type": "uint256"
        },
        {
          "internalType": "uint256",
          "name": "principal",
          "type": "uint256"
        }
      ],
      "name": "supply",
      "outputs": [],
      "stateMutability": "nonpayable",
      "type": "function"
    },
    {
      "inputs": [
        {
          "internalType": "uint256",
          "name": "poolId",
          "type": "uint256"
        },
        {
          "internalType": "uint256",
          "name": "collateral",
          "type": "uint256"
        },
        {
          "components": [
            {
              "internalType": "bytes32",
              "name": "proofId",
              "type": "bytes32"
            },
            {
              "internalType": "bytes32[]",
              "name": "pubInput",
              "type": "bytes32[]"
            },
            {
              "internalType": "bytes",
              "name": "data",
              "type": "bytes"
            }
          ],
          "internalType": "struct Data.Proof[]",
          "name": "proofs",
          "type": "tuple[]"
        }
      ],
      "name": "borrow",
      "outputs": [],
      "stateMutability": "nonpayable",
      "type": "function"
    },
    {
      "inputs": [
        {
          "internalType": "uint256",
          "name": "poolId",
          "type": "uint256"
        }
      ],
      "name": "withdraw",
      "outputs": [],
      "stateMutability": "nonpayable",
      "type": "function"
    },
    {
      "inputs": [
        {
          "internalType": "uint256",
          "name": "poolId",
          "type": "uint256"
        }
      ],
      "name": "repay",
      "outputs": [],
      "stateMutability": "nonpayable",
      "type": "function"
    },
    {
      "inputs": [
        {
          "internalType": "address",
          "name": "tokenId",
          "type": "address"
        },
        {
          "internalType": "uint256",
          "name": "amount",
          "type": "uint256"
        }
      ],
      "name": "withdrawTokens",
      "outputs": [],
      "stateMutability": "nonpayable",
      "type": "function"
    }
  ],
  "bytecode": "0x608034620000eb576200192880380390601f19601f83011683019183831067ffffffffffffffff841117620000f057808492606094604052833981010312620000eb576200004d816200011f565b62000069604062000061602085016200011f565b93016200011f565b90600160a060020a0319918260015416600155600054338482161760005560405194600160a060020a0380948193823391167f8be0079c531659141344cd1fd0a4f28419497f9722a3daafe3b4186f6b6457e0600080a31685600254161760025516836003541617600355169060045416176004556117f39081620001358239f35b600080fd5b7f4e487b7100000000000000000000000000000000000000000000000000000000600052604160045260246000fd5b5190600160a060020a0382168203620000eb5756fe608060405260048036101561001357600080fd5b6000907c0100000000000000000000000000000000000000000000000000000000823504806306b091f9146112da5780632e1a7d4d14611038578063371fd8e614610d3857806349ea245114610582578063715018a61461052657806379ba50971461044b5780638da5cb5b14610425578063daecfa6c146102c9578063e30c3978146102a2578063f2fde38b146102355763f37a334e146100b457600080fd5b346102315760a036600319011261023157604051906100d282611375565b6100da611316565b8252602435600160a060020a0392838216820361021a57602091828201908152604082016044358152606083019160643583526080840193608435855261011f6113e7565b8588600254169760a48a8c6040519b8c9485937f5a18ef44000000000000000000000000000000000000000000000000000000008552885116908401528d885116602484015288516044840152895160648401528a5160848401525af19687156102265789976101e4575b5090877f111d0e3eb9c30e3e69f6efd6e0e267be48ce8ea8d64bb49bed00ee5a5f22a2839860c098979695949351169151169151925193519460405196875286015260408501526060840152608083015260a0820152a180f35b965094939291908487813d831161021f575b6102008183611391565b8101031261021a579551959394929391929091908761018a565b600080fd5b503d6101f6565b6040513d8b823e3d90fd5b5080fd5b823461029f57602036600319011261029f5761024f611316565b6102576113e7565b600160a060020a038091169081600160a060020a031960015416176001558254167f38d16b8cac22d99fc7c124b9cd0de2d3fa1faef420bfe791d8c362d765e227008380a380f35b80fd5b823461029f578060031936011261029f576020600160a060020a0360015416604051908152f35b5034610231576040366003190112610231578035908260243591600160a060020a03602460a082600254166040519283809260e060020a63068bcd8d0282528a888301525afa801561041a5782869161032f9387916103ec575b505116309033906114aa565b6002541690813b156103dd5784606484928360405195869485937f651ab22a0000000000000000000000000000000000000000000000000000000085528401528860248401523360448401525af180156103e1576103c9575b507f391d46f537d2346cb49c6008e8336fc51205544e56b22738787ab0c791c83f76608084846040519182523360208301526040820152426060820152a180f35b6103d290611361565b6103dd578238610388565b8280fd5b6040513d84823e3d90fd5b61040d915060a03d8111610413575b6104058183611391565b810190611456565b38610323565b503d6103fb565b6040513d86823e3d90fd5b823461029f578060031936011261029f57600160a060020a036020915416604051908152f35b503461023157816003193601126102315760015490600160a060020a039033828416036104b95750600160a060020a03198092166001556000549133908316176000553391167f8be0079c531659141344cd1fd0a4f28419497f9722a3daafe3b4186f6b6457e0600080a380f35b60849060206040519160e560020a62461bcd028352820152602960248201527f4f776e61626c6532537465703a2063616c6c6572206973206e6f74207468652060448201527f6e6577206f776e657200000000000000000000000000000000000000000000006064820152fd5b823461029f578060031936011261029f5761053f6113e7565b6000600160a060020a038019806001541660015582549081168355167f8be0079c531659141344cd1fd0a4f28419497f9722a3daafe3b4186f6b6457e08280a380f35b5034610231576060366003190112610231576044359167ffffffffffffffff918284116102315736602385011215610231578360209394820135906105c6826113b3565b956105d46040519788611391565b82875260249580880193028201860191368311610d3457868101935b838510610c22575050505050600160a060020a0360025416936040517f67f178be00000000000000000000000000000000000000000000000000000000815233838201526020818681895afa90811561041a578491610be8575b50610bbf5760a084956040519586809260e060020a63068bcd8d0282528635878301525afa938415610bb4578394610b94575b50602084019361069d600160a060020a03865116873590309033906114aa565b8254600160a060020a031691849160465b825184101561080a5760208085028401015190604051917fccc9ebb2000000000000000000000000000000000000000000000000000000008352602088840152826084810182518d830152602083015190606060448401528151809152602060a484019201908c905b8082106107ee5750505061073d8291604080950151602319848303016064850152611705565b0381895afa9182156107e35788908993610794575b50156107905760ff8080931691160190811161077b5792600019811461077b57600101926106ae565b888760118860e060020a634e487b7102835252fd5b8780fd5b9250506040823d6040116107db575b816107b060409383611391565b810103126107905760206107c383611516565b9201519160ff831683036107d75738610752565b8880fd5b3d91506107a3565b6040513d8a823e3d90fd5b8251845287945060209384019390920191600190910190610717565b85899188938460206108738d600160a060020a0380600354169151166040519485809481937f8d1aea030000000000000000000000000000000000000000000000000000000083528c35908c840160209093929193600160a060020a0360408201951681520152565b03925af1908115610b89578691610b56575b5060ff926044602092600160a060020a036002541660405196879485937f3a2e89a10000000000000000000000000000000000000000000000000000000085528a85015216898301525afa918215610ac4578592610b22575b50600160a060020a0360035416916040517fa28ec0880000000000000000000000000000000000000000000000000000000081526020818681875afa908115610b17578791610acf575b50906109919360209288600160a060020a0386511691604051978895869485937f59cd8e0a0000000000000000000000000000000000000000000000000000000085528c8501604091949392946060820195600160a060020a0380921683521660208201520152565b03925af1918215610ac4578592610a8e575b50816109ba91600160a060020a0333915116611745565b83600160a060020a0360025416803b15610231578180916084604051809481937fd14a332100000000000000000000000000000000000000000000000000000000835289358a840152888b8401528a3560448401523360648401525af180156103e157610a72575b507f65f8d22b590e3bf673a47cd6551478a7e8db9e75aa0371dddd417f99a86465c160c0848685604051923583523360208401526040830152356060820152600060808201524260a0820152a180f35b610a7e90939293611361565b610a8a57908385610a22565b8380fd5b9091506020813d602011610abc575b81610aaa60209383611391565b8101031261021a5751906109ba6109a3565b3d9150610a9d565b6040513d87823e3d90fd5b9190506020823d602011610b0f575b81610aeb60209383611391565b81010312610b0b5761099193610b02602093611442565b91925093610928565b8680fd5b3d9150610ade565b6040513d89823e3d90fd5b9091506020813d602011610b4e575b81610b3e60209383611391565b8101031261021a575190856108de565b3d9150610b31565b90506020813d602011610b81575b81610b7160209383611391565b8101031261021a575160ff610885565b3d9150610b64565b6040513d88823e3d90fd5b610bad91945060a03d8111610413576104058183611391565b923861067d565b6040513d85823e3d90fd5b506040517f6a51e835000000000000000000000000000000000000000000000000000000008152fd5b90506020813d602011610c1a575b81610c0360209383611391565b81010312610a8a57610c1490611516565b3861064a565b3d9150610bf6565b8435838111610790578201606060231982360301126107905760405190610c488261132c565b8981013582526044810135858111610d1c57810136604382011215610d1c578a81013590610c75826113b3565b91610c836040519384611391565b80835260446020808501920283010191368311610d3057604401905b828210610d20575050506020830152606481013590858211610d1c5701366043820112156107d75789810135610cd4816113cb565b91610ce26040519384611391565b8183523660448383010111610d1857918a60208381979594604483989601838601378301015260408201528152019401936105f0565b8a80fd5b8980fd5b8135815260209182019101610c9f565b8c80fd5b8580fd5b50903461029f5760208060031936011261023157823590600160a060020a0393846002541694604051957fc50a74a600000000000000000000000000000000000000000000000000000000875260c08780610dac3389888401909291600160a060020a036020916040840195845216910152565b0381845afa908115610b89578691610f8a575b869750604096949596519060e060020a63068bcd8d028252878583015260a082602481845afa918215610b895787908793610f68575b50836040610e539495019260808451920151608087015192604051968794859384937f745052c00000000000000000000000000000000000000000000000000000000085528d85016040919493926060820195825260208201520152565b03915afa918215610b89578692610f32575b50610e76610e829392859251611797565b915116309033906114aa565b60025416803b156103dd57604080517f7e8400b20000000000000000000000000000000000000000000000000000000081529283018681523360208201528492849290918391859183910103925af180156103e157610f1e575b507f7a4047df4390948a7d14564207014a9b5502a5129a2166cc9613080ae948e44760808484604051918252339082015260016040820152426060820152a180f35b610f2790611361565b6103dd578238610edc565b8780929750819493503d8311610f61575b610f4d8183611391565b8101031261021a5790518794610e76610e65565b503d610f43565b610e539350610f849060a03d8111610413576104058183611391565b92610df5565b905060c0873d8211611030575b81610fa460c09383611391565b81010312610d345760405160c081019781891067ffffffffffffffff8a1117611018578798604098969798528051825286810151906003821015610b0b5760a09188840152604081015160408401526060810151606084015260808101516080840152015160a08201529095949395610dbf565b60418560e060020a634e487b71026000525260246000fd5b3d9150610f97565b503461023157816020918260031936011261023157600254604080517fd29f541d00000000000000000000000000000000000000000000000000000000815283358185018181523360208201529096600160a060020a0394851693909160609184918291010381865afa918215610b89578692611287575b506040519160e060020a63068bcd8d028352878684015260a083602481875afa928315610b17578793611267575b50818082019460408651930151906080860151938961113b604051968795869485947f745052c000000000000000000000000000000000000000000000000000000000865285016040919493926060820195825260208201520152565b03915afa918215610b17578792611237575b505061115d906111689351611797565b908333915116611745565b6002541690813b156103dd57604080517fb5e0ecac000000000000000000000000000000000000000000000000000000008152918201858152336020820152919392849290918391859183910103925af18015610bb457611200575b50604080519182523360208301527fd166759110875e7043f195882c2c5c5ae3e22d3bed496bb1da5b0a6efc1bbad69190819081015b0390a180f35b7fd166759110875e7043f195882c2c5c5ae3e22d3bed496bb1da5b0a6efc1bbad6919261122f6111fa92611361565b9291506111c4565b90809250813d8311611260575b61124e8183611391565b81010312610d3457518261115d61114d565b503d611244565b61128091935060a03d8111610413576104058183611391565b91386110de565b9091506060813d82116112d2575b816112a260609383611391565b81010312610d345760408051916112b88361132c565b8051835283810151848401520151604082015290386110b0565b3d9150611295565b823461029f57604036600319011261029f576113136112f7611316565b6112ff6113e7565b60243590600160a060020a03339116611745565b80f35b60043590600160a060020a038216820361021a57565b6060810190811067ffffffffffffffff82111761134857604052565b60e060020a634e487b7102600052604160045260246000fd5b67ffffffffffffffff811161134857604052565b60a0810190811067ffffffffffffffff82111761134857604052565b90601f8019910116810190811067ffffffffffffffff82111761134857604052565b67ffffffffffffffff81116113485760208091020190565b67ffffffffffffffff811161134857601f01601f191660200190565b600160a060020a036000541633036113fb57565b606460405160e560020a62461bcd02815260206004820152602060248201527f4f776e61626c653a2063616c6c6572206973206e6f7420746865206f776e65726044820152fd5b5190600160a060020a038216820361021a57565b908160a091031261021a5760806040519161147083611375565b61147981611442565b835261148760208201611442565b602084015260408101516040840152606081015160608401520151608082015290565b6040517f23b872dd000000000000000000000000000000000000000000000000000000006020820152600160a060020a03928316602482015292909116604483015260648201929092526115149161150f82608481015b03601f198101845283611391565b611523565b565b5190811515820361021a57565b600160a060020a031690604051604081019080821067ffffffffffffffff831117611348576115b4916040526020938482527f5361666545524332303a206c6f772d6c6576656c2063616c6c206661696c6564858301526000808587829751910182855af13d1561165f573d91611599836113cb565b926115a76040519485611391565b83523d868885013e611663565b9081519083821592831561163d575b5050509050156115d05750565b6084906040519060e560020a62461bcd0282526004820152602a60248201527f5361666545524332303a204552433230206f7065726174696f6e20646964206e60448201527f6f742073756363656564000000000000000000000000000000000000000000006064820152fd5b84809293945001031261029f5750816116569101611516565b803883816115c3565b6060915b919290156116c75750815115611677575090565b3b156116805790565b606460405160e560020a62461bcd02815260206004820152601d60248201527f416464726573733a2063616c6c20746f206e6f6e2d636f6e74726163740000006044820152fd5b8251909150156116da5750805190602001fd5b6117019060405191829160e560020a62461bcd028352602060048401526024830190611705565b0390fd5b919082519283825260005b848110611731575050826000602080949584010152601f8019910116010190565b602081830181015184830182015201611710565b6040517fa9059cbb000000000000000000000000000000000000000000000000000000006020820152600160a060020a03909216602483015260448201929092526115149161150f8260648101611501565b919082018092116117a457565b60e060020a634e487b7102600052601160045260246000fdfea26469706673582212205c0a9e1ae70149330caacc6131ffa95149da4ac981ea294020b62f091b64155b64736f6c63430008110033",
  "immutableReferences": {},
  "source": "// SPDX-License-Identifier: MIT\r\npragma solidity ^0.8.17;\r\n\r\nimport {Data} from \"./libraries/Data.sol\";\r\n\r\nimport {IPools} from \"./interfaces/IPools.sol\";\r\nimport {IElectron} from \"./interfaces/IElectron.sol\";\r\nimport {IVerifier} from \"../zk/interfaces/IVerifier.sol\";\r\nimport {IDataFeed} from \"../chainlink/interfaces/IDataFeed.sol\";\r\n\r\nimport {ERC20} from \"@openzeppelin/contracts/token/ERC20/ERC20.sol\";\r\nimport {SafeERC20} from \"@openzeppelin/contracts/token/ERC20/utils/SafeERC20.sol\";\r\nimport {Ownable2Step} from \"@openzeppelin/contracts/access/Ownable2Step.sol\";\r\n\r\ncontract Electron is IElectron, Ownable2Step {\r\n    using SafeERC20 for ERC20;\r\n\r\n    uint8 private constant DEFAULT_LTV = 70;\r\n\r\n    IPools private _pools;\r\n    IDataFeed private _feed;\r\n    IVerifier private _verifier;\r\n\r\n    constructor(\r\n        address pool,\r\n        address dataFeed,\r\n        address verifier\r\n    ) Ownable2Step() {\r\n        _pools = IPools(pool);\r\n        _feed = IDataFeed(dataFeed);\r\n        _verifier = IVerifier(verifier);\r\n    }\r\n\r\n    function newPool(Data.Pool memory pool) external onlyOwner {\r\n        uint256 poolId = _pools.createPool(pool);\r\n\r\n        emit NewPool(\r\n            poolId,\r\n            pool.principalId,\r\n            pool.collateralId,\r\n            pool.totalSupplied,\r\n            pool.totalBorrowed,\r\n            pool.interest\r\n        );\r\n    }\r\n\r\n    /// @notice Explain to an end user what this does\r\n    function supply(uint256 poolId, uint256 principal) external {\r\n        address account = _msgSender();\r\n\r\n        // Get the liquidity pool\r\n        Data.Pool memory pool = _pools.getPool(poolId);\r\n\r\n        // Extract principal token from account\r\n        ERC20(pool.principalId).safeTransferFrom(\r\n            account,\r\n            address(this),\r\n            principal\r\n        );\r\n\r\n        // Create account position in the liquidity pool\r\n        _pools.createPosition(poolId, principal, account);\r\n\r\n        emit NewPosition(poolId, account, principal, block.timestamp);\r\n    }\r\n\r\n    /// @notice Explain to an end user what this does\r\n    function borrow(\r\n        uint256 poolId,\r\n        uint256 collateral,\r\n        Data.Proof[] memory proofs\r\n    ) external {\r\n        address account = _msgSender();\r\n\r\n        // Check if account already has a pending loan\r\n        bool hasPendingLoan = _pools.hasPendingLoan(account);\r\n\r\n        if (hasPendingLoan) {\r\n            revert HasPendingLoan();\r\n        }\r\n\r\n        // Get the liquidity pool\r\n        Data.Pool memory pool = _pools.getPool(poolId);\r\n\r\n        // Extract collateral token from account\r\n        ERC20(pool.collateralId).safeTransferFrom(\r\n            account,\r\n            address(this),\r\n            collateral\r\n        );\r\n\r\n        uint8 totalLtv = DEFAULT_LTV;\r\n\r\n        for (uint index = 0; index < proofs.length; index++) {\r\n            (bool valid, uint8 points) = _verifier.verify(proofs[index]);\r\n            if (!valid) {\r\n                revert();\r\n            }\r\n\r\n            totalLtv += points;\r\n        }\r\n\r\n        // Calculate collateral amount in usd\r\n        uint256 collateralInUsd = _feed.amountInUsd(\r\n            pool.collateralId,\r\n            collateral\r\n        );\r\n\r\n        // Use collateral worth and overall points to estimate\r\n        // worth of principal account can get\r\n        uint256 principalInUsd = _pools.getPrincipalInUsd(\r\n            collateralInUsd,\r\n            totalLtv\r\n        );\r\n\r\n        // Convert worth of principal back to principal\r\n        uint256 principal = _feed.convertFromTo(\r\n            _feed.getUsd(),\r\n            pool.principalId,\r\n            principalInUsd\r\n        );\r\n\r\n        // Send principal token to account\r\n        ERC20(pool.principalId).safeTransfer(account, principal);\r\n\r\n        // Record account loan\r\n        _pools.createLoan(poolId, principal, collateral, account);\r\n\r\n        emit NewLoan(\r\n            poolId,\r\n            account,\r\n            principal,\r\n            collateral,\r\n            Data.State.ACTIVE,\r\n            block.timestamp\r\n        );\r\n    }\r\n\r\n    /// @notice Explain to an end user what this does\r\n    function withdraw(uint256 poolId) external {\r\n        address account = _msgSender();\r\n\r\n        // Get the account position in the liquidity pool\r\n        Data.Position memory position = _pools.getPosition(poolId, account);\r\n\r\n        Data.Pool memory pool = _pools.getPool(poolId);\r\n\r\n        // Calculate position rewards in principal token\r\n        uint256 rewards = _pools.calculateRewards(\r\n            position.principal,\r\n            position.startDate,\r\n            pool.interest\r\n        );\r\n\r\n        // Sum the rewards and principal\r\n        uint256 principalOut = (position.principal + rewards);\r\n\r\n        // Send principal token to account\r\n        ERC20(pool.principalId).safeTransfer(account, principalOut);\r\n\r\n        // Close account position in the liquidity pool\r\n        _pools.closePosition(poolId, account);\r\n\r\n        emit ClosePosition(poolId, account);\r\n    }\r\n\r\n    /// @notice Explain to an end user what this does\r\n    function repay(uint256 poolId) external {\r\n        address account = _msgSender();\r\n\r\n        // Get the account loan for pool\r\n        Data.Loan memory loan = _pools.getLoan(poolId, account);\r\n\r\n        // Get the liquidity pool\r\n        Data.Pool memory pool = _pools.getPool(poolId);\r\n\r\n        // Calculate position rewards in principal token\r\n        uint256 accruedInsterest = _pools.calculateRewards(\r\n            loan.principal,\r\n            loan.startDate,\r\n            pool.interest\r\n        );\r\n\r\n        // Sum the rewards and principal\r\n        uint256 principalIn = (loan.principal + accruedInsterest);\r\n\r\n        // Extract principal token from account\r\n        ERC20(pool.principalId).safeTransferFrom(\r\n            account,\r\n            address(this),\r\n            principalIn\r\n        );\r\n\r\n        // Close account loan\r\n        _pools.closeLoan(poolId, account);\r\n\r\n        emit CloseLoan(poolId, account, Data.State.REPAID, block.timestamp);\r\n    }\r\n\r\n    /// @notice Emergency token withdraw\r\n    function withdrawTokens(\r\n        address tokenId,\r\n        uint256 amount\r\n    ) external onlyOwner {\r\n        address account = _msgSender();\r\n\r\n        // Transfer tokens to account\r\n        ERC20(tokenId).safeTransfer(account, amount);\r\n    }\r\n}\r\n",
  "sourcePath": "C:\\Users\\DELL\\electron\\solidity\\contracts\\core\\Electron.sol",
  "compiler": {
    "name": "solc",
    "version": "0.8.17+commit.8df45f5f.Emscripten.clang"
  },
  "schemaVersion": "3.4.11",
  "updatedAt": "2024-04-27T02:13:15.194Z",
  "devdoc": {
    "kind": "dev",
    "methods": {
      "acceptOwnership()": {
        "details": "The new owner accepts the ownership transfer."
      },
      "owner()": {
        "details": "Returns the address of the current owner."
      },
      "pendingOwner()": {
        "details": "Returns the address of the pending owner."
      },
      "renounceOwnership()": {
        "details": "Leaves the contract without owner. It will not be possible to call `onlyOwner` functions. Can only be called by the current owner. NOTE: Renouncing ownership will leave the contract without an owner, thereby disabling any functionality that is only available to the owner."
      },
      "transferOwnership(address)": {
        "details": "Starts the ownership transfer of the contract to a new account. Replaces the pending transfer if there is one. Can only be called by the current owner."
      }
    },
    "version": 1
  },
  "userdoc": {
    "kind": "user",
    "methods": {
      "borrow(uint256,uint256,(bytes32,bytes32[],bytes)[])": {
        "notice": "Explain to an end user what this does"
      },
      "repay(uint256)": {
        "notice": "Explain to an end user what this does"
      },
      "supply(uint256,uint256)": {
        "notice": "Explain to an end user what this does"
      },
      "withdraw(uint256)": {
        "notice": "Explain to an end user what this does"
      },
      "withdrawTokens(address,uint256)": {
        "notice": "Emergency token withdraw"
      }
    },
    "version": 1
  }
}