{
  "contractName": "Electron",
  "abi": [
    {
      "inputs": [
        {
          "internalType": "address",
          "name": "pools",
          "type": "address"
        },
        {
          "internalType": "address",
          "name": "dataFeed",
          "type": "address"
        },
        {
          "internalType": "address",
          "name": "verifier",
          "type": "address"
        }
      ],
      "stateMutability": "nonpayable",
      "type": "constructor"
    },
    {
      "inputs": [],
      "name": "HasPendingLoan",
      "type": "error"
    },
    {
      "anonymous": false,
      "inputs": [
        {
          "indexed": false,
          "internalType": "uint256",
          "name": "poolId",
          "type": "uint256"
        },
        {
          "indexed": false,
          "internalType": "address",
          "name": "account",
          "type": "address"
        },
        {
          "indexed": false,
          "internalType": "enum Data.State",
          "name": "state",
          "type": "uint8"
        },
        {
          "indexed": false,
          "internalType": "uint256",
          "name": "repaidDate",
          "type": "uint256"
        }
      ],
      "name": "CloseLoan",
      "type": "event"
    },
    {
      "anonymous": false,
      "inputs": [
        {
          "indexed": false,
          "internalType": "uint256",
          "name": "poolId",
          "type": "uint256"
        },
        {
          "indexed": false,
          "internalType": "address",
          "name": "account",
          "type": "address"
        }
      ],
      "name": "ClosePosition",
      "type": "event"
    },
    {
      "anonymous": false,
      "inputs": [
        {
          "indexed": false,
          "internalType": "uint256",
          "name": "poolId",
          "type": "uint256"
        },
        {
          "indexed": false,
          "internalType": "address",
          "name": "account",
          "type": "address"
        },
        {
          "indexed": false,
          "internalType": "uint256",
          "name": "principal",
          "type": "uint256"
        },
        {
          "indexed": false,
          "internalType": "uint256",
          "name": "collateral",
          "type": "uint256"
        },
        {
          "indexed": false,
          "internalType": "enum Data.State",
          "name": "state",
          "type": "uint8"
        },
        {
          "indexed": false,
          "internalType": "uint256",
          "name": "startDate",
          "type": "uint256"
        }
      ],
      "name": "NewLoan",
      "type": "event"
    },
    {
      "anonymous": false,
      "inputs": [
        {
          "indexed": false,
          "internalType": "uint256",
          "name": "poolId",
          "type": "uint256"
        },
        {
          "indexed": false,
          "internalType": "address",
          "name": "principalId",
          "type": "address"
        },
        {
          "indexed": false,
          "internalType": "address",
          "name": "collateralId",
          "type": "address"
        },
        {
          "indexed": false,
          "internalType": "uint256",
          "name": "totalSupplied",
          "type": "uint256"
        },
        {
          "indexed": false,
          "internalType": "uint256",
          "name": "totalBorrowed",
          "type": "uint256"
        },
        {
          "indexed": false,
          "internalType": "uint256",
          "name": "interest",
          "type": "uint256"
        }
      ],
      "name": "NewPool",
      "type": "event"
    },
    {
      "anonymous": false,
      "inputs": [
        {
          "indexed": false,
          "internalType": "uint256",
          "name": "poolId",
          "type": "uint256"
        },
        {
          "indexed": false,
          "internalType": "address",
          "name": "account",
          "type": "address"
        },
        {
          "indexed": false,
          "internalType": "uint256",
          "name": "collateral",
          "type": "uint256"
        },
        {
          "indexed": false,
          "internalType": "uint256",
          "name": "startDate",
          "type": "uint256"
        }
      ],
      "name": "NewPosition",
      "type": "event"
    },
    {
      "anonymous": false,
      "inputs": [
        {
          "indexed": true,
          "internalType": "address",
          "name": "previousOwner",
          "type": "address"
        },
        {
          "indexed": true,
          "internalType": "address",
          "name": "newOwner",
          "type": "address"
        }
      ],
      "name": "OwnershipTransferStarted",
      "type": "event"
    },
    {
      "anonymous": false,
      "inputs": [
        {
          "indexed": true,
          "internalType": "address",
          "name": "previousOwner",
          "type": "address"
        },
        {
          "indexed": true,
          "internalType": "address",
          "name": "newOwner",
          "type": "address"
        }
      ],
      "name": "OwnershipTransferred",
      "type": "event"
    },
    {
      "inputs": [],
      "name": "acceptOwnership",
      "outputs": [],
      "stateMutability": "nonpayable",
      "type": "function"
    },
    {
      "inputs": [],
      "name": "owner",
      "outputs": [
        {
          "internalType": "address",
          "name": "",
          "type": "address"
        }
      ],
      "stateMutability": "view",
      "type": "function"
    },
    {
      "inputs": [],
      "name": "pendingOwner",
      "outputs": [
        {
          "internalType": "address",
          "name": "",
          "type": "address"
        }
      ],
      "stateMutability": "view",
      "type": "function"
    },
    {
      "inputs": [],
      "name": "renounceOwnership",
      "outputs": [],
      "stateMutability": "nonpayable",
      "type": "function"
    },
    {
      "inputs": [
        {
          "internalType": "address",
          "name": "newOwner",
          "type": "address"
        }
      ],
      "name": "transferOwnership",
      "outputs": [],
      "stateMutability": "nonpayable",
      "type": "function"
    },
    {
      "inputs": [
        {
          "components": [
            {
              "internalType": "address",
              "name": "principalId",
              "type": "address"
            },
            {
              "internalType": "address",
              "name": "collateralId",
              "type": "address"
            },
            {
              "internalType": "uint256",
              "name": "totalSupplied",
              "type": "uint256"
            },
            {
              "internalType": "uint256",
              "name": "totalBorrowed",
              "type": "uint256"
            },
            {
              "internalType": "uint256",
              "name": "interest",
              "type": "uint256"
            }
          ],
          "internalType": "struct Data.Pool",
          "name": "pool",
          "type": "tuple"
        }
      ],
      "name": "newPool",
      "outputs": [],
      "stateMutability": "nonpayable",
      "type": "function"
    },
    {
      "inputs": [
        {
          "internalType": "uint256",
          "name": "poolId",
          "type": "uint256"
        },
        {
          "internalType": "uint256",
          "name": "collateral",
          "type": "uint256"
        }
      ],
      "name": "supply",
      "outputs": [],
      "stateMutability": "nonpayable",
      "type": "function"
    },
    {
      "inputs": [
        {
          "internalType": "uint256",
          "name": "poolId",
          "type": "uint256"
        },
        {
          "components": [
            {
              "internalType": "bytes32",
              "name": "proofId",
              "type": "bytes32"
            },
            {
              "internalType": "bytes32[]",
              "name": "pubInputs",
              "type": "bytes32[]"
            },
            {
              "internalType": "bytes",
              "name": "data",
              "type": "bytes"
            }
          ],
          "internalType": "struct Data.Proof[]",
          "name": "proofs",
          "type": "tuple[]"
        }
      ],
      "name": "borrow",
      "outputs": [],
      "stateMutability": "nonpayable",
      "type": "function"
    },
    {
      "inputs": [
        {
          "internalType": "uint256",
          "name": "poolId",
          "type": "uint256"
        }
      ],
      "name": "withdraw",
      "outputs": [],
      "stateMutability": "nonpayable",
      "type": "function"
    },
    {
      "inputs": [
        {
          "internalType": "uint256",
          "name": "poolId",
          "type": "uint256"
        }
      ],
      "name": "repay",
      "outputs": [],
      "stateMutability": "nonpayable",
      "type": "function"
    },
    {
      "inputs": [
        {
          "internalType": "address",
          "name": "tokenId",
          "type": "address"
        },
        {
          "internalType": "uint256",
          "name": "amount",
          "type": "uint256"
        }
      ],
      "name": "withdrawTokens",
      "outputs": [],
      "stateMutability": "nonpayable",
      "type": "function"
    }
  ],
  "bytecode": "0x608034620000eb57620019d680380390601f19601f83011683019183831067ffffffffffffffff841117620000f057808492606094604052833981010312620000eb576200004d816200011f565b62000069604062000061602085016200011f565b93016200011f565b90600160a060020a0319918260015416600155600054338482161760005560405194600160a060020a0380948193823391167f8be0079c531659141344cd1fd0a4f28419497f9722a3daafe3b4186f6b6457e0600080a31685600254161760025516836003541617600355169060045416176004556118a19081620001358239f35b600080fd5b7f4e487b7100000000000000000000000000000000000000000000000000000000600052604160045260246000fd5b5190600160a060020a0382168203620000eb5756fe6040608081526004908136101561001557600080fd5b6000917c0100000000000000000000000000000000000000000000000000000000833504806306b091f9146113875780632e1a7d4d146110e2578063371fd8e614610ddf5780634a2d39fd14610589578063715018a61461052d57806379ba5097146104515780638da5cb5b1461042b578063daecfa6c146102cd578063e30c3978146102a1578063f2fde38b146102345763f37a334e146100b657600080fd5b346102305760a0366003190112610230578151916100d383611405565b6100db6113c2565b8352600160a060020a0392602435848116810361021a576020928383019182528083019060443582526060840192606435845260808501946084358652610120611477565b868960a481600254169a8d87519c8d9485937f5a18ef4400000000000000000000000000000000000000000000000000000000855281895116908501528851166024840152895160448401528a5160648401528b5160848401525af1978815610226578a986101e2575b5090887f111d0e3eb9c30e3e69f6efd6e0e267be48ce8ea8d64bb49bed00ee5a5f22a2839960c09998979695949351169151169251935194519582519788528701528501526060840152608083015260a0820152a180f35b97509594939291908588813d831161021f575b6101ff8183611421565b8101031261021a57965196949593949293919290918861018a565b600080fd5b503d6101f5565b83513d8c823e3d90fd5b8280fd5b833461029e57602036600319011261029e5761024e6113c2565b610256611477565b600160a060020a038091169081600160a060020a031960015416176001558254167f38d16b8cac22d99fc7c124b9cd0de2d3fa1faef420bfe791d8c362d765e227008380a380f35b80fd5b5050346102c957816003193601126102c957602090600160a060020a03600154169051908152f35b5080fd5b5090346102305780600319360112610230578135908360243593600160a060020a03602460a0826002541686519283809260e060020a63068bcd8d0282528a888301525afa90811561042157826020610336938a9388916103f3575b500151163090339061153a565b6002541690813b1561023057846064849283875195869485937f651ab22a0000000000000000000000000000000000000000000000000000000085528401528a60248401523360448401525af180156103e9576103cd575b507f391d46f537d2346cb49c6008e8336fc51205544e56b22738787ab0c791c83f7660808486858051928352336020840152820152426060820152a180f35b6103d9909392936113d8565b6103e55790833861038e565b8380fd5b83513d84823e3d90fd5b610414915060a03d811161041a575b61040c8183611421565b8101906114e6565b38610329565b503d610402565b85513d86823e3d90fd5b5050346102c957816003193601126102c957600160a060020a0360209254169051908152f35b50903461023057826003193601126102305760015491600160a060020a039133838516036104c1575050600160a060020a03198092166001556000549133908316176000553391167f8be0079c531659141344cd1fd0a4f28419497f9722a3daafe3b4186f6b6457e0600080a380f35b906020608492519160e560020a62461bcd028352820152602960248201527f4f776e61626c6532537465703a2063616c6c6572206973206e6f74207468652060448201527f6e6577206f776e657200000000000000000000000000000000000000000000006064820152fd5b833461029e578060031936011261029e57610546611477565b6000600160a060020a038019806001541660015582549081168355167f8be0079c531659141344cd1fd0a4f28419497f9722a3daafe3b4186f6b6457e08280a380f35b50823461029e578260031936011261029e5781359160249384359367ffffffffffffffff91828611610ae15736602387011215610ae15785840135926105ce84611443565b966105db83519889611421565b8488526020948986808b01920283010191368311610ddb578a8101915b838310610ca8575050505050600160a060020a039586600254169082517f06b5b5b200000000000000000000000000000000000000000000000000000000815285818061065c33898c8401908152600160a060020a03909116602082015260400190565b0381865afa908115610c9e578891610c65575b50610c3d578251937fd29f541d0000000000000000000000000000000000000000000000000000000085526060928386806106c133868d8401908152600160a060020a03909116602082015260400190565b0381845afa958615610c0157908b9392918a97610c0b575b5060a09086519485809260e060020a63068bcd8d028252858d8301525afa928315610c01578993610be1575b50875492998996938116939060465b8451891015610873578990888f898f918f92868f818091028d0101519286519889967fccc9ebb200000000000000000000000000000000000000000000000000000000885287015260848601908451908701528184015194604487015284518091528160a48701950192915b818310610850575050505083015182820360231901606484015282916107a591611795565b03818a5afa918215610846578d9081936107fc575b50156107f85760ff808093169116019081116107e3579760001981146107e35760010197610714565b8d8c60118d60e060020a634e487b7102835252fd5b8c80fd5b8093508a8092503d831161083f575b6108158183611421565b810103126107f8578a610827836115a6565b9201519160ff8316830361083b57386107ba565b8d80fd5b503d61080b565b89513d8f823e3d90fd5b919483600194985083929597505181520195019201918f928794928f9694610780565b975091999b935094998b94979892506108e2898c8460035416828681870151169a0199898b5193518096819582947f8d1aea030000000000000000000000000000000000000000000000000000000084528c840160209093929193600160a060020a0360408201951681520152565b03925af1978c8915610bd8578b92889a610ba1575b5060ff99604491866002541690519b8c9485937f3a2e89a10000000000000000000000000000000000000000000000000000000085528a85015216898301525afa968715610b1b578597610b6e575b508160035416968b51907fa28ec0880000000000000000000000000000000000000000000000000000000082528a8286818c5afa988d8a15610b65578c93899b610b25575b50886109e79b8787511692519c8d95869485937f59cd8e0a0000000000000000000000000000000000000000000000000000000085528c8501604091949392946060820195600160a060020a0380921683521660208201520152565b03925af1968715610b1b578597610ae5575b5086610a09918333915116611819565b60025416845190803b15610ae1578492836084928c948a8f5198899788967fd14a332100000000000000000000000000000000000000000000000000000000885287015285015260448401523360648401525af18015610ad757610ab5575b50937f65f8d22b590e3bf673a47cd6551478a7e8db9e75aa0371dddd417f99a86465c19360c093888894519381519586523390860152840152820152600060808201524260a0820152a180f35b610ac4909695949392966113d8565b610ad357909192938688610a68565b8680fd5b88513d84823e3d90fd5b8480fd5b89809298508196503d8311610b14575b610aff8183611421565b8101031261021a57610a098b945196906109f9565b503d610af5565b8b513d87823e3d90fd5b9380929b508491503d8311610b5e575b610b3f8183611421565b81010312610ad3576109e7988d88610b578e956114d2565b9b5061098b565b503d610b35565b513d89823e3d90fd5b89809298508196503d8311610b9a575b610b888183611421565b8101031261021a578a9351958c610946565b503d610b7e565b995050955087813d8311610bd1575b610bba8183611421565b8101031261021a579551958b9489908c60446108f7565b503d610bb0565b513d88823e3d90fd5b610bfa91935060a03d811161041a5761040c8183611421565b918b610705565b85513d8b823e3d90fd5b60a0919750610c2f90863d8811610c36575b610c278183611421565b8101906117d5565b96906106d9565b503d610c1d565b8583517f6a51e835000000000000000000000000000000000000000000000000000000008152fd5b90508581813d8311610c97575b610c7c8183611421565b81010312610c9357610c8d906115a6565b8a61066f565b8780fd5b503d610c72565b84513d8a823e3d90fd5b8235858111610dd7578201606090816023198236030112610dd357875191820182811088821117610dbc5788528d81013582526044908181013588811161083b5781013660438201121561083b578f908c848c9383013591610d15610d0c84611443565b95519586611421565b828552808501920283010191368311610db757858f9101915b838310610da7575091505084015260648101359088821161083b570190366043830112156107f8578e82013590610d648261145b565b92610d718b519485611421565b82845236828483010111610da3578c8f91938082989694839896018386013783010152898201528152019201916105f8565b8e80fd5b82358152918101918f9101610d2e565b508f80fd5b8e60418d60e060020a634e487b7102600052526000fd5b8b80fd5b8a80fd5b8880fd5b509034610230576020806003193601126103e557823592600160a060020a03806002541684517fc50a74a600000000000000000000000000000000000000000000000000000000815260c08180610e4d338b898401908152600160a060020a03909116602082015260400190565b0381855afa9081156110d8578891611034575b5085519060e060020a63068bcd8d028252878583015260a082602481865afa91821561100a578992611014575b508587820191606460808451920151916080860151968b5197889485937f745052c00000000000000000000000000000000000000000000000000000000085528c850152602484015260448301525afa92831561100a578993610fdb575b5051918201809211610fc5578291889493610f0b9251163090339061153a565b60025416803b156102305784517f7e8400b20000000000000000000000000000000000000000000000000000000081529182018681523360208201528391839182908490829060400103925af18015610fbb57610fa3575b50926001836080937f7a4047df4390948a7d14564207014a9b5502a5129a2166cc9613080ae948e44795519384523390840152820152426060820152a180f35b610faf909492946113d8565b6103e557918338610f63565b84513d84823e3d90fd5b60248860118660e060020a634e487b7102835252fd5b9092508581813d8311611003575b610ff38183611421565b8101031261021a57519138610eeb565b503d610fe9565b87513d8b823e3d90fd5b61102d91925060a03d811161041a5761040c8183611421565b9038610e8d565b905060c0813d82116110d0575b8161104e60c09383611421565b81010312610c935785519060c0820182811067ffffffffffffffff8211176110b857875280518252858101519060038210156110b45760a0918784015287810151888401526060810151606084015260808101516080840152015160a082015238610e60565b8980fd5b60418660e060020a634e487b71026000525260246000fd5b3d9150611041565b86513d8a823e3d90fd5b50903461023057602091826003193601126103e557803592600160a060020a039081600254169084517f06b5b5b2000000000000000000000000000000000000000000000000000000008152818180611152338b8a8401908152600160a060020a03909116602082015260400190565b0381865afa9081156110d8578891611352575b5061132a5784517fd29f541d0000000000000000000000000000000000000000000000000000000081528085018781523360208201528895949391929190606090849081906040010381845afa9283156112fa578693611304575b5060a060249188519283809260e060020a63068bcd8d0282528c8a8301525afa9081156112fa5782611206949392869289916112dc575b50015116910151903390611819565b6002541690813b156102305783517fb5e0ecac000000000000000000000000000000000000000000000000000000008152908101858152336020820152909291839182908490829060400103925af180156112d257611299575b50519081523360208201527fd166759110875e7043f195882c2c5c5ae3e22d3bed496bb1da5b0a6efc1bbad69080604081015b0390a180f35b9161129391936112c97fd166759110875e7043f195882c2c5c5ae3e22d3bed496bb1da5b0a6efc1bbad6946113d8565b93915091611260565b82513d86823e3d90fd5b6112f4915060a03d811161041a5761040c8183611421565b386111f7565b87513d88823e3d90fd5b602491935061132260a09160603d8111610c3657610c278183611421565b9391506111c0565b8385517f6a51e835000000000000000000000000000000000000000000000000000000008152fd5b90508181813d8311611380575b6113698183611421565b81010312610c935761137a906115a6565b38611165565b503d61135f565b5050346102c95736600319011261029e576113bf6113a36113c2565b6113ab611477565b60243590600160a060020a03339116611819565b80f35b60043590600160a060020a038216820361021a57565b67ffffffffffffffff81116113ec57604052565b60e060020a634e487b7102600052604160045260246000fd5b60a0810190811067ffffffffffffffff8211176113ec57604052565b90601f8019910116810190811067ffffffffffffffff8211176113ec57604052565b67ffffffffffffffff81116113ec5760208091020190565b67ffffffffffffffff81116113ec57601f01601f191660200190565b600160a060020a0360005416330361148b57565b606460405160e560020a62461bcd02815260206004820152602060248201527f4f776e61626c653a2063616c6c6572206973206e6f7420746865206f776e65726044820152fd5b5190600160a060020a038216820361021a57565b908160a091031261021a5760806040519161150083611405565b611509816114d2565b8352611517602082016114d2565b602084015260408101516040840152606081015160608401520151608082015290565b6040517f23b872dd000000000000000000000000000000000000000000000000000000006020820152600160a060020a03928316602482015292909116604483015260648201929092526115a49161159f82608481015b03601f198101845283611421565b6115b3565b565b5190811515820361021a57565b600160a060020a031690604051604081019080821067ffffffffffffffff8311176113ec57611644916040526020938482527f5361666545524332303a206c6f772d6c6576656c2063616c6c206661696c6564858301526000808587829751910182855af13d156116ef573d916116298361145b565b926116376040519485611421565b83523d868885013e6116f3565b908151908382159283156116cd575b5050509050156116605750565b6084906040519060e560020a62461bcd0282526004820152602a60248201527f5361666545524332303a204552433230206f7065726174696f6e20646964206e60448201527f6f742073756363656564000000000000000000000000000000000000000000006064820152fd5b84809293945001031261029e5750816116e691016115a6565b80388381611653565b6060915b919290156117575750815115611707575090565b3b156117105790565b606460405160e560020a62461bcd02815260206004820152601d60248201527f416464726573733a2063616c6c20746f206e6f6e2d636f6e74726163740000006044820152fd5b82519091501561176a5750805190602001fd5b6117919060405191829160e560020a62461bcd028352602060048401526024830190611795565b0390fd5b919082519283825260005b8481106117c1575050826000602080949584010152601f8019910116010190565b6020818301810151848301820152016117a0565b9081606091031261021a5760405190606082019082821067ffffffffffffffff8311176113ec57604091825280518352602081015160208401520151604082015290565b6040517fa9059cbb000000000000000000000000000000000000000000000000000000006020820152600160a060020a03909216602483015260448201929092526115a49161159f826064810161159156fea26469706673582212207b731fed60890c8c9c9aa9713bd32929d3fa96ea5f6d17edbd1ea1e8fba9e41464736f6c63430008110033",
  "immutableReferences": {},
  "source": "// SPDX-License-Identifier: MIT\r\npragma solidity ^0.8.17;\r\n\r\nimport {Data} from \"./libraries/Data.sol\";\r\n\r\nimport {IPools} from \"./interfaces/IPools.sol\";\r\nimport {IElectron} from \"./interfaces/IElectron.sol\";\r\nimport {IVerifier} from \"../zk/interfaces/IVerifier.sol\";\r\nimport {IDataFeed} from \"../chainlink/interfaces/IDataFeed.sol\";\r\n\r\nimport {ERC20} from \"@openzeppelin/contracts/token/ERC20/ERC20.sol\";\r\nimport {SafeERC20} from \"@openzeppelin/contracts/token/ERC20/utils/SafeERC20.sol\";\r\nimport {Ownable2Step} from \"@openzeppelin/contracts/access/Ownable2Step.sol\";\r\n\r\ncontract Electron is IElectron, Ownable2Step {\r\n    using SafeERC20 for ERC20;\r\n\r\n    uint8 private constant DEFAULT_LTV = 70;\r\n\r\n    IPools private _pools;\r\n    IDataFeed private _feed;\r\n    IVerifier private _verifier;\r\n\r\n    constructor(\r\n        address pools,\r\n        address dataFeed,\r\n        address verifier\r\n    ) Ownable2Step() {\r\n        _pools = IPools(pools);\r\n        _feed = IDataFeed(dataFeed);\r\n        _verifier = IVerifier(verifier);\r\n    }\r\n\r\n    function newPool(Data.Pool memory pool) external onlyOwner {\r\n        uint256 poolId = _pools.createPool(pool);\r\n\r\n        emit NewPool(\r\n            poolId,\r\n            pool.principalId,\r\n            pool.collateralId,\r\n            pool.totalSupplied,\r\n            pool.totalBorrowed,\r\n            pool.interest\r\n        );\r\n    }\r\n\r\n    /// @notice Explain to an end user what this does\r\n    function supply(uint256 poolId, uint256 collateral) external {\r\n        address account = _msgSender();\r\n\r\n        // Get the liquidity pool\r\n        Data.Pool memory pool = _pools.getPool(poolId);\r\n\r\n        // Extract collateral token from account\r\n        ERC20(pool.collateralId).safeTransferFrom(\r\n            account,\r\n            address(this),\r\n            collateral\r\n        );\r\n\r\n        // Create account position in the liquidity pool\r\n        _pools.createPosition(poolId, collateral, account);\r\n\r\n        emit NewPosition(poolId, account, collateral, block.timestamp);\r\n    }\r\n\r\n    /// @notice Explain to an end user what this does\r\n    function borrow(uint256 poolId, Data.Proof[] memory proofs) external {\r\n        address account = _msgSender();\r\n\r\n        // Check if account already has a pending loan\r\n        bool hasPendingLoan = _pools.hasPendingLoan(poolId, account);\r\n\r\n        if (hasPendingLoan) {\r\n            revert HasPendingLoan();\r\n        }\r\n\r\n        // Get the account position in the liquidity pool\r\n        Data.Position memory position = _pools.getPosition(poolId, account);\r\n\r\n        // Get the liquidity pool\r\n        Data.Pool memory pool = _pools.getPool(poolId);\r\n\r\n        uint8 totalLtv = DEFAULT_LTV;\r\n\r\n        for (uint index = 0; index < proofs.length; index++) {\r\n            (bool valid, uint8 points) = _verifier.verify(proofs[index]);\r\n            if (!valid) {\r\n                revert();\r\n            }\r\n\r\n            totalLtv += points;\r\n        }\r\n\r\n        // Calculate collateral amount in usd\r\n        uint256 collateralInUsd = _feed.amountInUsd(\r\n            pool.collateralId,\r\n            position.collateral\r\n        );\r\n\r\n        // Use collateral worth and overall points to estimate\r\n        // worth of principal account can get\r\n        uint256 principalInUsd = _pools.getPrincipalInUsd(\r\n            collateralInUsd,\r\n            totalLtv\r\n        );\r\n\r\n        // Convert worth of principal back to principal\r\n        uint256 principal = _feed.convertFromTo(\r\n            _feed.getUsd(),\r\n            pool.principalId,\r\n            principalInUsd\r\n        );\r\n\r\n        // Send principal token to account\r\n        ERC20(pool.principalId).safeTransfer(account, principal);\r\n\r\n        // Record account loan\r\n        _pools.createLoan(poolId, principal, position.collateral, account);\r\n\r\n        emit NewLoan(\r\n            poolId,\r\n            account,\r\n            principal,\r\n            position.collateral,\r\n            Data.State.ACTIVE,\r\n            block.timestamp\r\n        );\r\n    }\r\n\r\n    /// @notice Explain to an end user what this does\r\n    function withdraw(uint256 poolId) external {\r\n        address account = _msgSender();\r\n\r\n        // Check if account already has a pending loan\r\n        bool hasPendingLoan = _pools.hasPendingLoan(poolId, account);\r\n\r\n        if (hasPendingLoan) {\r\n            revert HasPendingLoan();\r\n        }\r\n\r\n        // Get the account position in the liquidity pool\r\n        Data.Position memory position = _pools.getPosition(poolId, account);\r\n\r\n        Data.Pool memory pool = _pools.getPool(poolId);\r\n\r\n        // Send principal token to account\r\n        ERC20(pool.collateralId).safeTransfer(account, position.collateral);\r\n\r\n        // Close account position in the liquidity pool\r\n        _pools.closePosition(poolId, account);\r\n\r\n        emit ClosePosition(poolId, account);\r\n    }\r\n\r\n    /// @notice Explain to an end user what this does\r\n    function repay(uint256 poolId) external {\r\n        address account = _msgSender();\r\n\r\n        // Get the account loan for pool\r\n        Data.Loan memory loan = _pools.getLoan(poolId, account);\r\n\r\n        // Get the liquidity pool\r\n        Data.Pool memory pool = _pools.getPool(poolId);\r\n\r\n        // Calculate position rewards in principal token\r\n        uint256 accruedInsterest = _pools.calculateRewards(\r\n            loan.principal,\r\n            loan.startDate,\r\n            pool.interest\r\n        );\r\n\r\n        // Sum the rewards and principal\r\n        uint256 principalIn = (loan.principal + accruedInsterest);\r\n\r\n        // Extract principal token from account\r\n        ERC20(pool.principalId).safeTransferFrom(\r\n            account,\r\n            address(this),\r\n            principalIn\r\n        );\r\n\r\n        // Close account loan\r\n        _pools.closeLoan(poolId, account);\r\n\r\n        emit CloseLoan(poolId, account, Data.State.REPAID, block.timestamp);\r\n    }\r\n\r\n    /// @notice Emergency token withdraw\r\n    function withdrawTokens(\r\n        address tokenId,\r\n        uint256 amount\r\n    ) external onlyOwner {\r\n        address account = _msgSender();\r\n\r\n        // Transfer tokens to account\r\n        ERC20(tokenId).safeTransfer(account, amount);\r\n    }\r\n}\r\n",
  "sourcePath": "C:\\Users\\DELL\\Documents\\electron\\solidity\\contracts\\core\\Electron.sol",
  "compiler": {
    "name": "solc",
    "version": "0.8.17+commit.8df45f5f.Emscripten.clang"
  },
  "schemaVersion": "3.4.11",
  "updatedAt": "2024-04-27T13:40:14.557Z",
  "devdoc": {
    "kind": "dev",
    "methods": {
      "acceptOwnership()": {
        "details": "The new owner accepts the ownership transfer."
      },
      "owner()": {
        "details": "Returns the address of the current owner."
      },
      "pendingOwner()": {
        "details": "Returns the address of the pending owner."
      },
      "renounceOwnership()": {
        "details": "Leaves the contract without owner. It will not be possible to call `onlyOwner` functions. Can only be called by the current owner. NOTE: Renouncing ownership will leave the contract without an owner, thereby disabling any functionality that is only available to the owner."
      },
      "transferOwnership(address)": {
        "details": "Starts the ownership transfer of the contract to a new account. Replaces the pending transfer if there is one. Can only be called by the current owner."
      }
    },
    "version": 1
  },
  "userdoc": {
    "kind": "user",
    "methods": {
      "borrow(uint256,(bytes32,bytes32[],bytes)[])": {
        "notice": "Explain to an end user what this does"
      },
      "repay(uint256)": {
        "notice": "Explain to an end user what this does"
      },
      "supply(uint256,uint256)": {
        "notice": "Explain to an end user what this does"
      },
      "withdraw(uint256)": {
        "notice": "Explain to an end user what this does"
      },
      "withdrawTokens(address,uint256)": {
        "notice": "Emergency token withdraw"
      }
    },
    "version": 1
  }
}