{
  "contractName": "Electron",
  "abi": [
    {
      "inputs": [
        {
          "internalType": "address",
          "name": "pools",
          "type": "address"
        },
        {
          "internalType": "address",
          "name": "dataFeed",
          "type": "address"
        },
        {
          "internalType": "address",
          "name": "verifier",
          "type": "address"
        }
      ],
      "stateMutability": "nonpayable",
      "type": "constructor"
    },
    {
      "inputs": [],
      "name": "HasPendingLoan",
      "type": "error"
    },
    {
      "inputs": [],
      "name": "InvalidProof",
      "type": "error"
    },
    {
      "anonymous": false,
      "inputs": [
        {
          "indexed": false,
          "internalType": "uint256",
          "name": "poolId",
          "type": "uint256"
        },
        {
          "indexed": false,
          "internalType": "address",
          "name": "account",
          "type": "address"
        },
        {
          "indexed": false,
          "internalType": "enum Data.State",
          "name": "state",
          "type": "uint8"
        },
        {
          "indexed": false,
          "internalType": "uint256",
          "name": "repaidDate",
          "type": "uint256"
        }
      ],
      "name": "CloseLoan",
      "type": "event"
    },
    {
      "anonymous": false,
      "inputs": [
        {
          "indexed": false,
          "internalType": "uint256",
          "name": "poolId",
          "type": "uint256"
        },
        {
          "indexed": false,
          "internalType": "address",
          "name": "account",
          "type": "address"
        }
      ],
      "name": "ClosePosition",
      "type": "event"
    },
    {
      "anonymous": false,
      "inputs": [
        {
          "indexed": false,
          "internalType": "uint256",
          "name": "poolId",
          "type": "uint256"
        },
        {
          "indexed": false,
          "internalType": "address",
          "name": "account",
          "type": "address"
        },
        {
          "indexed": false,
          "internalType": "uint256",
          "name": "principal",
          "type": "uint256"
        },
        {
          "indexed": false,
          "internalType": "uint256",
          "name": "collateral",
          "type": "uint256"
        },
        {
          "indexed": false,
          "internalType": "enum Data.State",
          "name": "state",
          "type": "uint8"
        },
        {
          "indexed": false,
          "internalType": "uint256",
          "name": "startDate",
          "type": "uint256"
        }
      ],
      "name": "NewLoan",
      "type": "event"
    },
    {
      "anonymous": false,
      "inputs": [
        {
          "indexed": false,
          "internalType": "uint256",
          "name": "poolId",
          "type": "uint256"
        },
        {
          "indexed": false,
          "internalType": "address",
          "name": "principalId",
          "type": "address"
        },
        {
          "indexed": false,
          "internalType": "address",
          "name": "collateralId",
          "type": "address"
        },
        {
          "indexed": false,
          "internalType": "uint256",
          "name": "totalSupplied",
          "type": "uint256"
        },
        {
          "indexed": false,
          "internalType": "uint256",
          "name": "totalBorrowed",
          "type": "uint256"
        },
        {
          "indexed": false,
          "internalType": "uint256",
          "name": "interest",
          "type": "uint256"
        }
      ],
      "name": "NewPool",
      "type": "event"
    },
    {
      "anonymous": false,
      "inputs": [
        {
          "indexed": false,
          "internalType": "uint256",
          "name": "poolId",
          "type": "uint256"
        },
        {
          "indexed": false,
          "internalType": "address",
          "name": "account",
          "type": "address"
        },
        {
          "indexed": false,
          "internalType": "uint256",
          "name": "collateral",
          "type": "uint256"
        },
        {
          "indexed": false,
          "internalType": "uint256",
          "name": "startDate",
          "type": "uint256"
        }
      ],
      "name": "NewPosition",
      "type": "event"
    },
    {
      "anonymous": false,
      "inputs": [
        {
          "indexed": true,
          "internalType": "address",
          "name": "previousOwner",
          "type": "address"
        },
        {
          "indexed": true,
          "internalType": "address",
          "name": "newOwner",
          "type": "address"
        }
      ],
      "name": "OwnershipTransferStarted",
      "type": "event"
    },
    {
      "anonymous": false,
      "inputs": [
        {
          "indexed": true,
          "internalType": "address",
          "name": "previousOwner",
          "type": "address"
        },
        {
          "indexed": true,
          "internalType": "address",
          "name": "newOwner",
          "type": "address"
        }
      ],
      "name": "OwnershipTransferred",
      "type": "event"
    },
    {
      "inputs": [],
      "name": "acceptOwnership",
      "outputs": [],
      "stateMutability": "nonpayable",
      "type": "function"
    },
    {
      "inputs": [],
      "name": "owner",
      "outputs": [
        {
          "internalType": "address",
          "name": "",
          "type": "address"
        }
      ],
      "stateMutability": "view",
      "type": "function",
      "constant": true
    },
    {
      "inputs": [],
      "name": "pendingOwner",
      "outputs": [
        {
          "internalType": "address",
          "name": "",
          "type": "address"
        }
      ],
      "stateMutability": "view",
      "type": "function",
      "constant": true
    },
    {
      "inputs": [],
      "name": "renounceOwnership",
      "outputs": [],
      "stateMutability": "nonpayable",
      "type": "function"
    },
    {
      "inputs": [
        {
          "internalType": "address",
          "name": "newOwner",
          "type": "address"
        }
      ],
      "name": "transferOwnership",
      "outputs": [],
      "stateMutability": "nonpayable",
      "type": "function"
    },
    {
      "inputs": [
        {
          "components": [
            {
              "internalType": "address",
              "name": "principalId",
              "type": "address"
            },
            {
              "internalType": "address",
              "name": "collateralId",
              "type": "address"
            },
            {
              "internalType": "uint256",
              "name": "totalSupplied",
              "type": "uint256"
            },
            {
              "internalType": "uint256",
              "name": "totalBorrowed",
              "type": "uint256"
            },
            {
              "internalType": "uint256",
              "name": "interest",
              "type": "uint256"
            }
          ],
          "internalType": "struct Data.Pool",
          "name": "pool",
          "type": "tuple"
        }
      ],
      "name": "newPool",
      "outputs": [],
      "stateMutability": "nonpayable",
      "type": "function"
    },
    {
      "inputs": [
        {
          "internalType": "uint256",
          "name": "poolId",
          "type": "uint256"
        },
        {
          "internalType": "uint256",
          "name": "collateral",
          "type": "uint256"
        }
      ],
      "name": "supply",
      "outputs": [],
      "stateMutability": "nonpayable",
      "type": "function"
    },
    {
      "inputs": [
        {
          "internalType": "uint256",
          "name": "poolId",
          "type": "uint256"
        },
        {
          "components": [
            {
              "internalType": "bytes32",
              "name": "proofId",
              "type": "bytes32"
            },
            {
              "internalType": "bytes32[]",
              "name": "pubInputs",
              "type": "bytes32[]"
            },
            {
              "internalType": "bytes",
              "name": "data",
              "type": "bytes"
            }
          ],
          "internalType": "struct Data.Proof[]",
          "name": "proofs",
          "type": "tuple[]"
        }
      ],
      "name": "borrow",
      "outputs": [],
      "stateMutability": "nonpayable",
      "type": "function"
    },
    {
      "inputs": [
        {
          "internalType": "uint256",
          "name": "poolId",
          "type": "uint256"
        }
      ],
      "name": "withdraw",
      "outputs": [],
      "stateMutability": "nonpayable",
      "type": "function"
    },
    {
      "inputs": [
        {
          "internalType": "uint256",
          "name": "poolId",
          "type": "uint256"
        }
      ],
      "name": "repay",
      "outputs": [],
      "stateMutability": "nonpayable",
      "type": "function"
    },
    {
      "inputs": [
        {
          "internalType": "address",
          "name": "tokenId",
          "type": "address"
        },
        {
          "internalType": "uint256",
          "name": "amount",
          "type": "uint256"
        }
      ],
      "name": "withdrawTokens",
      "outputs": [],
      "stateMutability": "nonpayable",
      "type": "function"
    },
    {
      "inputs": [
        {
          "components": [
            {
              "internalType": "bytes32",
              "name": "proofId",
              "type": "bytes32"
            },
            {
              "internalType": "bytes32[]",
              "name": "pubInputs",
              "type": "bytes32[]"
            },
            {
              "internalType": "bytes",
              "name": "data",
              "type": "bytes"
            }
          ],
          "internalType": "struct Data.Proof[]",
          "name": "proofs",
          "type": "tuple[]"
        }
      ],
      "name": "calculateLtv",
      "outputs": [
        {
          "internalType": "uint256",
          "name": "",
          "type": "uint256"
        }
      ],
      "stateMutability": "view",
      "type": "function",
      "constant": true
    }
  ],
  "bytecode": "0x608034620000eb5762001b8880380390601f19601f83011683019183831067ffffffffffffffff841117620000f057808492606094604052833981010312620000eb576200004d816200011f565b62000069604062000061602085016200011f565b93016200011f565b90600160a060020a0319918260015416600155600054338482161760005560405194600160a060020a0380948193823391167f8be0079c531659141344cd1fd0a4f28419497f9722a3daafe3b4186f6b6457e0600080a3168560025416176002551683600354161760035516906004541617600455611a539081620001358239f35b600080fd5b7f4e487b7100000000000000000000000000000000000000000000000000000000600052604160045260246000fd5b5190600160a060020a0382168203620000eb5756fe6040608081526004908136101561001557600080fd5b6000917c0100000000000000000000000000000000000000000000000000000000833504806306b091f9146112b25780632e1a7d4d1461100d578063371fd8e614610d065780634a2d39fd146106c7578063715018a61461066b57806379ba50971461058f5780638da5cb5b14610569578063d62df8e114610436578063daecfa6c146102d8578063e30c3978146102ac578063f2fde38b1461023f5763f37a334e146100c157600080fd5b3461023b5760a036600319011261023b578151916100de83611330565b6100e66112ed565b8352600160a060020a0392602435848116810361022557602092838301918252808301906044358252606084019260643584526080850194608435865261012b61152e565b868960a481600254169a8d87519c8d9485937f5a18ef4400000000000000000000000000000000000000000000000000000000855281895116908501528851166024840152895160448401528a5160648401528b5160848401525af1978815610231578a986101ed575b5090887f111d0e3eb9c30e3e69f6efd6e0e267be48ce8ea8d64bb49bed00ee5a5f22a2839960c09998979695949351169151169251935194519582519788528701528501526060840152608083015260a0820152a180f35b97509594939291908588813d831161022a575b61020a818361134c565b81010312610225579651969495939492939192909188610195565b600080fd5b503d610200565b83513d8c823e3d90fd5b8280fd5b83346102a95760203660031901126102a9576102596112ed565b61026161152e565b600160a060020a038091169081600160a060020a031960015416176001558254167f38d16b8cac22d99fc7c124b9cd0de2d3fa1faef420bfe791d8c362d765e227008380a380f35b80fd5b5050346102d457816003193601126102d457602090600160a060020a03600154169051908152f35b5080fd5b50903461023b578060031936011261023b578135908360243593600160a060020a03602460a0826002541686519283809260e060020a63068bcd8d0282528a888301525afa90811561042c57826020610341938a9388916103fe575b50015116309033906115f1565b6002541690813b1561023b57846064849283875195869485937f651ab22a0000000000000000000000000000000000000000000000000000000085528401528a60248401523360448401525af180156103f4576103d8575b507f391d46f537d2346cb49c6008e8336fc51205544e56b22738787ab0c791c83f7660808486858051928352336020840152820152426060820152a180f35b6103e490939293611303565b6103f057908338610399565b8380fd5b83513d84823e3d90fd5b61041f915060a03d8111610425575b610417818361134c565b81019061159d565b38610334565b503d61040d565b85513d86823e3d90fd5b5082346102a95760203660031901126102a957813567ffffffffffffffff81116102d45761046790369084016113a2565b916046918092600160a060020a03835416905b855185101561055c576104c4908761049287896118f8565b518151809481927fccc9ebb200000000000000000000000000000000000000000000000000000000835289830161194b565b0381865afa9182156105525784908593610520575b50156104f8576104f2916104ec916119b7565b946118d0565b9361047a565b8488517f09bde339000000000000000000000000000000000000000000000000000000008152fd5b9050610543919250883d8a1161054b575b61053b818361134c565b810190611924565b9190896104d9565b503d610531565b88513d86823e3d90fd5b60209060ff885191168152f35b5050346102d457816003193601126102d457600160a060020a0360209254169051908152f35b50903461023b578260031936011261023b5760015491600160a060020a039133838516036105ff575050600160a060020a03198092166001556000549133908316176000553391167f8be0079c531659141344cd1fd0a4f28419497f9722a3daafe3b4186f6b6457e0600080a380f35b906020608492519160e560020a62461bcd028352820152602960248201527f4f776e61626c6532537465703a2063616c6c6572206973206e6f74207468652060448201527f6e6577206f776e657200000000000000000000000000000000000000000000006064820152fd5b83346102a957806003193601126102a95761068461152e565b6000600160a060020a038019806001541660015582549081168355167f8be0079c531659141344cd1fd0a4f28419497f9722a3daafe3b4186f6b6457e08280a380f35b503461023b578160031936011261023b57803560243567ffffffffffffffff8111610d02576106f990369084016113a2565b91600160a060020a03938460025416938151937f06b5b5b200000000000000000000000000000000000000000000000000000000855260209485818061075633868a8401908152600160a060020a03909116602082015260400190565b03818a5afa908115610c97578991610cc9575b50610ca15782517fd29f541d0000000000000000000000000000000000000000000000000000000081528481018281523360208201529095906060908790819060400103818a5afa958615610c97578996610c5f575b5060a084959697602495519586809260e060020a63068bcd8d028252868b8301525afa938415610c55578994610c35575b50855493978997948116949060465b8b86518b10156108d4579061084c91896108198d8a6118f8565b518c825195869283927fccc9ebb2000000000000000000000000000000000000000000000000000000008452830161194b565b03818c5afa9283156108c85781936108a6575b501561087e5761087891610872916119b7565b996118d0565b986107ff565b8989517f09bde339000000000000000000000000000000000000000000000000000000008152fd5b90506108c0919250893d8b1161054b5761053b818361134c565b91903861085f565b508951903d90823e3d90fd5b9492858a8a96948e61093c878a846003541682868187015116990198888a5193518096819582947f8d1aea030000000000000000000000000000000000000000000000000000000084528c840160209093929193600160a060020a0360408201951681520152565b03925af1968715610c2b5788918698610bf6575b50604460ff9885600254168d519a8b9485937f3a2e89a10000000000000000000000000000000000000000000000000000000085528a8501521660248301525afa958615610b70578496610bc3575b508160035416958951907f72501146000000000000000000000000000000000000000000000000000000008252888286818b5afa978b8915610bba578a93889a610b7a575b5087610a409a8787511692519b8c95869485937f59cd8e0a0000000000000000000000000000000000000000000000000000000085528c8501604091949392946060820195600160a060020a0380921683521660208201520152565b03925af1958615610b70578496610b3a575b5085610a629183339151166119cb565b60025416835191813b156103f057608488918580948c5196879586947fd14a33210000000000000000000000000000000000000000000000000000000086528501528a602485015260448401523360648401525af18015610b3057610b10575b507f65f8d22b590e3bf673a47cd6551478a7e8db9e75aa0371dddd417f99a86465c160c08686868a875192815194855233908501528301526060820152600060808201524260a0820152a180f35b610b1e909594939295611303565b610b2c579091928587610ac2565b8580fd5b87513d84823e3d90fd5b87809297508195503d8311610b69575b610b54818361134c565b8101031261022557610a628993519590610a52565b503d610b4a565b89513d86823e3d90fd5b9380929a508491503d8311610bb3575b610b94818361134c565b81010312610b2c57610a40978b87610bac8c95611589565b9a506109e4565b503d610b8a565b513d88823e3d90fd5b87809297508195503d8311610bef575b610bdd818361134c565b8101031261022557889251948a61099f565b503d610bd3565b9750945086813d8311610c24575b610c0e818361134c565b8101031261022557945194899387906044610950565b503d610c04565b8a513d87823e3d90fd5b610c4e91945060a03d811161042557610417818361134c565b92386107f0565b85513d8b823e3d90fd5b602494959650610c8760a09160603d8111610c90575b610c7f818361134c565b81019061188c565b969594506107bf565b503d610c75565b84513d8b823e3d90fd5b5050517f6a51e835000000000000000000000000000000000000000000000000000000008152fd5b90508581813d8311610cfb575b610ce0818361134c565b81010312610cf757610cf19061165d565b38610769565b8880fd5b503d610cd6565b8480fd5b50903461023b576020806003193601126103f057823592600160a060020a03806002541684517fc50a74a600000000000000000000000000000000000000000000000000000000815260c08180610d74338b898401908152600160a060020a03909116602082015260400190565b0381855afa908115611003578891610f5b575b5085519060e060020a63068bcd8d028252878583015260a082602481865afa918215610f31578992610f3b575b508587820191606460808451920151916080860151968b5197889485937f745052c00000000000000000000000000000000000000000000000000000000085528c850152602484015260448301525afa928315610f31578993610f02575b5051918201809211610eec578291889493610e32925116309033906115f1565b60025416803b1561023b5784517f7e8400b20000000000000000000000000000000000000000000000000000000081529182018681523360208201528391839182908490829060400103925af18015610ee257610eca575b50926001836080937f7a4047df4390948a7d14564207014a9b5502a5129a2166cc9613080ae948e44795519384523390840152820152426060820152a180f35b610ed690949294611303565b6103f057918338610e8a565b84513d84823e3d90fd5b60248860118660e060020a634e487b7102835252fd5b9092508581813d8311610f2a575b610f1a818361134c565b8101031261022557519138610e12565b503d610f10565b87513d8b823e3d90fd5b610f5491925060a03d811161042557610417818361134c565b9038610db4565b905060c0813d8211610ffb575b81610f7560c0938361134c565b81010312610ff75785519060c0820182811067ffffffffffffffff821117610fdf5787528051825285810151906003821015610fdb5760a0918784015287810151888401526060810151606084015260808101516080840152015160a082015238610d87565b8980fd5b60418660e060020a634e487b71026000525260246000fd5b8780fd5b3d9150610f68565b86513d8a823e3d90fd5b50903461023b57602091826003193601126103f057803592600160a060020a039081600254169084517f06b5b5b200000000000000000000000000000000000000000000000000000000815281818061107d338b8a8401908152600160a060020a03909116602082015260400190565b0381865afa90811561100357889161127d575b506112555784517fd29f541d0000000000000000000000000000000000000000000000000000000081528085018781523360208201528895949391929190606090849081906040010381845afa92831561122557869361122f575b5060a060249188519283809260e060020a63068bcd8d0282528c8a8301525afa908115611225578261113194939286928991611207575b500151169101519033906119cb565b6002541690813b1561023b5783517fb5e0ecac000000000000000000000000000000000000000000000000000000008152908101858152336020820152909291839182908490829060400103925af180156111fd576111c4575b50519081523360208201527fd166759110875e7043f195882c2c5c5ae3e22d3bed496bb1da5b0a6efc1bbad69080604081015b0390a180f35b916111be91936111f47fd166759110875e7043f195882c2c5c5ae3e22d3bed496bb1da5b0a6efc1bbad694611303565b9391509161118b565b82513d86823e3d90fd5b61121f915060a03d811161042557610417818361134c565b38611122565b87513d88823e3d90fd5b602491935061124d60a09160603d8111610c9057610c7f818361134c565b9391506110eb565b8385517f6a51e835000000000000000000000000000000000000000000000000000000008152fd5b90508181813d83116112ab575b611294818361134c565b81010312610ff7576112a59061165d565b38611090565b503d61128a565b5050346102d4573660031901126102a9576112ea6112ce6112ed565b6112d661152e565b60243590600160a060020a033391166119cb565b80f35b60043590600160a060020a038216820361022557565b67ffffffffffffffff811161131757604052565b60e060020a634e487b7102600052604160045260246000fd5b60a0810190811067ffffffffffffffff82111761131757604052565b90601f8019910116810190811067ffffffffffffffff82111761131757604052565b67ffffffffffffffff81116113175760208091020190565b67ffffffffffffffff811161131757601f01601f191660200190565b81601f82011215610225578035916113b98361136e565b926040906113c98251958661134c565b808552602093848080880193028201019380851161022557858298979695949801925b8484106113fe57509496505050505050565b67ffffffffffffffff9084358281116102255784019060609182601f198287030112610225578b519383850185811082821117611516578d528982013585528c82013581811161022557820193603f9487868201121561022557808f8d80930135908061146a8361136e565b946114778251968761134c565b8386528086019302840101928b84116102255701905b828210611507575050508b9d9e9a9b879e9d9e01528201359081116102255785910192830112156102255788820135926114c684611386565b6114d28951918261134c565b848152858986860101116102255760008b8681978c8398018386013783010152888201528152019301929796959493976113ec565b81358152908e01908e0161148d565b6024600060e060020a634e487b710281526041600452fd5b600160a060020a0360005416330361154257565b606460405160e560020a62461bcd02815260206004820152602060248201527f4f776e61626c653a2063616c6c6572206973206e6f7420746865206f776e65726044820152fd5b5190600160a060020a038216820361022557565b908160a0910312610225576080604051916115b783611330565b6115c081611589565b83526115ce60208201611589565b602084015260408101516040840152606081015160608401520151608082015290565b6040517f23b872dd000000000000000000000000000000000000000000000000000000006020820152600160a060020a039283166024820152929091166044830152606482019290925261165b9161165682608481015b03601f19810184528361134c565b61166a565b565b5190811515820361022557565b600160a060020a031690604051604081019080821067ffffffffffffffff831117611317576116fb916040526020938482527f5361666545524332303a206c6f772d6c6576656c2063616c6c206661696c6564858301526000808587829751910182855af13d156117a6573d916116e083611386565b926116ee604051948561134c565b83523d868885013e6117aa565b90815190838215928315611784575b5050509050156117175750565b6084906040519060e560020a62461bcd0282526004820152602a60248201527f5361666545524332303a204552433230206f7065726174696f6e20646964206e60448201527f6f742073756363656564000000000000000000000000000000000000000000006064820152fd5b8480929394500103126102a957508161179d910161165d565b8038838161170a565b6060915b9192901561180e57508151156117be575090565b3b156117c75790565b606460405160e560020a62461bcd02815260206004820152601d60248201527f416464726573733a2063616c6c20746f206e6f6e2d636f6e74726163740000006044820152fd5b8251909150156118215750805190602001fd5b6118489060405191829160e560020a62461bcd02835260206004840152602483019061184c565b0390fd5b919082519283825260005b848110611878575050826000602080949584010152601f8019910116010190565b602081830181015184830182015201611857565b908160609103126102255760405190606082019082821067ffffffffffffffff83111761131757604091825280518352602081015160208401520151604082015290565b60001981146118df5760010190565b60e060020a634e487b7102600052601160045260246000fd5b805182101561190b576020809202010190565b60e060020a634e487b7102600052603260045260246000fd5b919082604091031261022557602061193b8361165d565b92015160ff811681036102255790565b6020808252825181830152808301516060604084015280516080840181905293949360a0840193929182019160005b8281106119a3575050505060406119a093940151906060601f198285030191015261184c565b90565b83518652948101949281019260010161197a565b9060ff8091169116019060ff82116118df57565b6040517fa9059cbb000000000000000000000000000000000000000000000000000000006020820152600160a060020a039092166024830152604482019290925261165b91611656826064810161164856fea26469706673582212204874921e9b093f4d1672949e33df61ba4f70ef367de494a502762c158287197764736f6c63430008110033",
  "immutableReferences": {},
  "source": "// SPDX-License-Identifier: MIT\r\npragma solidity ^0.8.17;\r\n\r\nimport {Data} from \"./libraries/Data.sol\";\r\n\r\nimport {IPools} from \"./interfaces/IPools.sol\";\r\nimport {IElectron} from \"./interfaces/IElectron.sol\";\r\nimport {IVerifier} from \"../zk/interfaces/IVerifier.sol\";\r\nimport {IDataFeed} from \"../chainlink/interfaces/IDataFeed.sol\";\r\n\r\nimport {IERC20} from \"@openzeppelin/contracts/token/ERC20/IERC20.sol\";\r\nimport {SafeERC20} from \"@openzeppelin/contracts/token/ERC20/utils/SafeERC20.sol\";\r\nimport {Ownable2Step} from \"@openzeppelin/contracts/access/Ownable2Step.sol\";\r\n\r\n/// @title Electron\r\n/// @author @devarogundade\r\ncontract Electron is IElectron, Ownable2Step {\r\n    using SafeERC20 for IERC20;\r\n\r\n    uint8 private constant DEFAULT_LTV = 70;\r\n\r\n    IPools private _pools;\r\n    IDataFeed private _feed;\r\n    IVerifier private _verifier;\r\n\r\n    constructor(\r\n        address pools,\r\n        address dataFeed,\r\n        address verifier\r\n    ) Ownable2Step() {\r\n        _pools = IPools(pools);\r\n        _feed = IDataFeed(dataFeed);\r\n        _verifier = IVerifier(verifier);\r\n    }\r\n\r\n    function newPool(Data.Pool memory pool) external onlyOwner {\r\n        uint256 poolId = _pools.createPool(pool);\r\n\r\n        emit NewPool(\r\n            poolId,\r\n            pool.principalId,\r\n            pool.collateralId,\r\n            pool.totalSupplied,\r\n            pool.totalBorrowed,\r\n            pool.interest\r\n        );\r\n    }\r\n\r\n    /// @notice Explain to an end user what this does\r\n    function supply(uint256 poolId, uint256 collateral) external {\r\n        address account = _msgSender();\r\n\r\n        // Get the liquidity pool\r\n        Data.Pool memory pool = _pools.getPool(poolId);\r\n\r\n        // Extract collateral token from account\r\n        IERC20(pool.collateralId).safeTransferFrom(\r\n            account,\r\n            address(this),\r\n            collateral\r\n        );\r\n\r\n        // Create account position in the liquidity pool\r\n        _pools.createPosition(poolId, collateral, account);\r\n\r\n        emit NewPosition(poolId, account, collateral, block.timestamp);\r\n    }\r\n\r\n    /// @notice Explain to an end user what this does\r\n    function borrow(uint256 poolId, Data.Proof[] memory proofs) external {\r\n        address account = _msgSender();\r\n\r\n        // Check if account already has a pending loan\r\n        bool hasPendingLoan = _pools.hasPendingLoan(poolId, account);\r\n\r\n        if (hasPendingLoan) {\r\n            revert HasPendingLoan();\r\n        }\r\n\r\n        // Get the account position in the liquidity pool\r\n        Data.Position memory position = _pools.getPosition(poolId, account);\r\n\r\n        // Get the liquidity pool\r\n        Data.Pool memory pool = _pools.getPool(poolId);\r\n\r\n        uint8 totalLtv = DEFAULT_LTV;\r\n\r\n        for (uint index = 0; index < proofs.length; index++) {\r\n            (bool valid, uint8 points) = _verifier.verify(proofs[index]);\r\n            if (!valid) {\r\n                revert InvalidProof();\r\n            }\r\n\r\n            totalLtv += points;\r\n        }\r\n\r\n        // Calculate collateral amount in usd\r\n        uint256 collateralInUsd = _feed.amountInUsd(\r\n            pool.collateralId,\r\n            position.collateral\r\n        );\r\n\r\n        // Use collateral worth and overall points to estimate\r\n        // worth of principal account can get\r\n        uint256 principalInUsd = _pools.getPrincipalInUsd(\r\n            collateralInUsd,\r\n            totalLtv\r\n        );\r\n\r\n        // Convert worth of principal back to principal\r\n        uint256 principal = _feed.convertFromTo(\r\n            _feed.getUsdId(),\r\n            pool.principalId,\r\n            principalInUsd\r\n        );\r\n\r\n        // Send principal token to account\r\n        IERC20(pool.principalId).safeTransfer(account, principal);\r\n\r\n        // Record account loan\r\n        _pools.createLoan(poolId, principal, position.collateral, account);\r\n\r\n        emit NewLoan(\r\n            poolId,\r\n            account,\r\n            principal,\r\n            position.collateral,\r\n            Data.State.ACTIVE,\r\n            block.timestamp\r\n        );\r\n    }\r\n\r\n    /// @notice Explain to an end user what this does\r\n    function withdraw(uint256 poolId) external {\r\n        address account = _msgSender();\r\n\r\n        // Check if account already has a pending loan\r\n        bool hasPendingLoan = _pools.hasPendingLoan(poolId, account);\r\n\r\n        if (hasPendingLoan) {\r\n            revert HasPendingLoan();\r\n        }\r\n\r\n        // Get the account position in the liquidity pool\r\n        Data.Position memory position = _pools.getPosition(poolId, account);\r\n\r\n        Data.Pool memory pool = _pools.getPool(poolId);\r\n\r\n        // Send principal token to account\r\n        IERC20(pool.collateralId).safeTransfer(account, position.collateral);\r\n\r\n        // Close account position in the liquidity pool\r\n        _pools.closePosition(poolId, account);\r\n\r\n        emit ClosePosition(poolId, account);\r\n    }\r\n\r\n    /// @notice Explain to an end user what this does\r\n    function repay(uint256 poolId) external {\r\n        address account = _msgSender();\r\n\r\n        // Get the account loan for pool\r\n        Data.Loan memory loan = _pools.getLoan(poolId, account);\r\n\r\n        // Get the liquidity pool\r\n        Data.Pool memory pool = _pools.getPool(poolId);\r\n\r\n        // Calculate position rewards in principal token\r\n        uint256 accruedInsterest = _pools.calculateRewards(\r\n            loan.principal,\r\n            loan.startDate,\r\n            pool.interest\r\n        );\r\n\r\n        // Sum the rewards and principal\r\n        uint256 principalIn = (loan.principal + accruedInsterest);\r\n\r\n        // Extract principal token from account\r\n        IERC20(pool.principalId).safeTransferFrom(\r\n            account,\r\n            address(this),\r\n            principalIn\r\n        );\r\n\r\n        // Close account loan\r\n        _pools.closeLoan(poolId, account);\r\n\r\n        emit CloseLoan(poolId, account, Data.State.REPAID, block.timestamp);\r\n    }\r\n\r\n    /// @notice Emergency token withdraw\r\n    function withdrawTokens(\r\n        address tokenId,\r\n        uint256 amount\r\n    ) external onlyOwner {\r\n        address account = _msgSender();\r\n\r\n        // Transfer tokens to account\r\n        IERC20(tokenId).safeTransfer(account, amount);\r\n    }\r\n\r\n    /// @notice Emergency token withdraw\r\n    function calculateLtv(\r\n        Data.Proof[] memory proofs\r\n    ) external view override returns (uint256) {\r\n        uint8 totalLtv = DEFAULT_LTV;\r\n\r\n        for (uint index = 0; index < proofs.length; index++) {\r\n            (bool valid, uint8 points) = _verifier.verify(proofs[index]);\r\n\r\n            if (!valid) {\r\n                revert InvalidProof();\r\n            }\r\n\r\n            totalLtv += points;\r\n        }\r\n\r\n        return totalLtv;\r\n    }\r\n}\r\n",
  "sourcePath": "C:\\Users\\DELL\\Documents\\electron\\solidity\\contracts\\core\\Electron.sol",
  "compiler": {
    "name": "solc",
    "version": "0.8.17+commit.8df45f5f.Emscripten.clang"
  },
  "schemaVersion": "3.4.11",
  "updatedAt": "2024-04-27T18:02:04.182Z",
  "networkType": "ethereum",
  "devdoc": {
    "author": "@devarogundade",
    "kind": "dev",
    "methods": {
      "acceptOwnership()": {
        "details": "The new owner accepts the ownership transfer."
      },
      "owner()": {
        "details": "Returns the address of the current owner."
      },
      "pendingOwner()": {
        "details": "Returns the address of the pending owner."
      },
      "renounceOwnership()": {
        "details": "Leaves the contract without owner. It will not be possible to call `onlyOwner` functions. Can only be called by the current owner. NOTE: Renouncing ownership will leave the contract without an owner, thereby disabling any functionality that is only available to the owner."
      },
      "transferOwnership(address)": {
        "details": "Starts the ownership transfer of the contract to a new account. Replaces the pending transfer if there is one. Can only be called by the current owner."
      }
    },
    "title": "Electron",
    "version": 1
  },
  "userdoc": {
    "kind": "user",
    "methods": {
      "borrow(uint256,(bytes32,bytes32[],bytes)[])": {
        "notice": "Explain to an end user what this does"
      },
      "calculateLtv((bytes32,bytes32[],bytes)[])": {
        "notice": "Emergency token withdraw"
      },
      "repay(uint256)": {
        "notice": "Explain to an end user what this does"
      },
      "supply(uint256,uint256)": {
        "notice": "Explain to an end user what this does"
      },
      "withdraw(uint256)": {
        "notice": "Explain to an end user what this does"
      },
      "withdrawTokens(address,uint256)": {
        "notice": "Emergency token withdraw"
      }
    },
    "version": 1
  }
}