{
  "contractName": "LINK",
  "abi": [
    {
      "inputs": [],
      "stateMutability": "nonpayable",
      "type": "constructor"
    },
    {
      "anonymous": false,
      "inputs": [
        {
          "indexed": true,
          "internalType": "address",
          "name": "owner",
          "type": "address"
        },
        {
          "indexed": true,
          "internalType": "address",
          "name": "spender",
          "type": "address"
        },
        {
          "indexed": false,
          "internalType": "uint256",
          "name": "value",
          "type": "uint256"
        }
      ],
      "name": "Approval",
      "type": "event"
    },
    {
      "anonymous": false,
      "inputs": [
        {
          "indexed": true,
          "internalType": "address",
          "name": "from",
          "type": "address"
        },
        {
          "indexed": true,
          "internalType": "address",
          "name": "to",
          "type": "address"
        },
        {
          "indexed": false,
          "internalType": "uint256",
          "name": "value",
          "type": "uint256"
        }
      ],
      "name": "Transfer",
      "type": "event"
    },
    {
      "inputs": [
        {
          "internalType": "address",
          "name": "owner",
          "type": "address"
        },
        {
          "internalType": "address",
          "name": "spender",
          "type": "address"
        }
      ],
      "name": "allowance",
      "outputs": [
        {
          "internalType": "uint256",
          "name": "",
          "type": "uint256"
        }
      ],
      "stateMutability": "view",
      "type": "function"
    },
    {
      "inputs": [
        {
          "internalType": "address",
          "name": "spender",
          "type": "address"
        },
        {
          "internalType": "uint256",
          "name": "amount",
          "type": "uint256"
        }
      ],
      "name": "approve",
      "outputs": [
        {
          "internalType": "bool",
          "name": "",
          "type": "bool"
        }
      ],
      "stateMutability": "nonpayable",
      "type": "function"
    },
    {
      "inputs": [
        {
          "internalType": "address",
          "name": "account",
          "type": "address"
        }
      ],
      "name": "balanceOf",
      "outputs": [
        {
          "internalType": "uint256",
          "name": "",
          "type": "uint256"
        }
      ],
      "stateMutability": "view",
      "type": "function"
    },
    {
      "inputs": [],
      "name": "decimals",
      "outputs": [
        {
          "internalType": "uint8",
          "name": "",
          "type": "uint8"
        }
      ],
      "stateMutability": "view",
      "type": "function"
    },
    {
      "inputs": [
        {
          "internalType": "address",
          "name": "spender",
          "type": "address"
        },
        {
          "internalType": "uint256",
          "name": "subtractedValue",
          "type": "uint256"
        }
      ],
      "name": "decreaseAllowance",
      "outputs": [
        {
          "internalType": "bool",
          "name": "",
          "type": "bool"
        }
      ],
      "stateMutability": "nonpayable",
      "type": "function"
    },
    {
      "inputs": [
        {
          "internalType": "address",
          "name": "spender",
          "type": "address"
        },
        {
          "internalType": "uint256",
          "name": "addedValue",
          "type": "uint256"
        }
      ],
      "name": "increaseAllowance",
      "outputs": [
        {
          "internalType": "bool",
          "name": "",
          "type": "bool"
        }
      ],
      "stateMutability": "nonpayable",
      "type": "function"
    },
    {
      "inputs": [],
      "name": "name",
      "outputs": [
        {
          "internalType": "string",
          "name": "",
          "type": "string"
        }
      ],
      "stateMutability": "view",
      "type": "function"
    },
    {
      "inputs": [],
      "name": "symbol",
      "outputs": [
        {
          "internalType": "string",
          "name": "",
          "type": "string"
        }
      ],
      "stateMutability": "view",
      "type": "function"
    },
    {
      "inputs": [],
      "name": "totalSupply",
      "outputs": [
        {
          "internalType": "uint256",
          "name": "",
          "type": "uint256"
        }
      ],
      "stateMutability": "view",
      "type": "function"
    },
    {
      "inputs": [
        {
          "internalType": "address",
          "name": "to",
          "type": "address"
        },
        {
          "internalType": "uint256",
          "name": "amount",
          "type": "uint256"
        }
      ],
      "name": "transfer",
      "outputs": [
        {
          "internalType": "bool",
          "name": "",
          "type": "bool"
        }
      ],
      "stateMutability": "nonpayable",
      "type": "function"
    },
    {
      "inputs": [
        {
          "internalType": "address",
          "name": "from",
          "type": "address"
        },
        {
          "internalType": "address",
          "name": "to",
          "type": "address"
        },
        {
          "internalType": "uint256",
          "name": "amount",
          "type": "uint256"
        }
      ],
      "name": "transferFrom",
      "outputs": [
        {
          "internalType": "bool",
          "name": "",
          "type": "bool"
        }
      ],
      "stateMutability": "nonpayable",
      "type": "function"
    },
    {
      "inputs": [],
      "name": "faucet",
      "outputs": [],
      "stateMutability": "nonpayable",
      "type": "function"
    }
  ],
  "bytecode": "0x608034620004d65760409067ffffffffffffffff81830181811183821017620004a7578352600982526020907f436861696e6c696e6b00000000000000000000000000000000000000000000008284015283519284840184811083821117620004a75785526004938481527f4c494e4b000000000000000000000000000000000000000000000000000000008482015281519280841162000479576003549160029485840494600180951680156200046e575b8887101462000440578190601f96878111620003ea575b5088908783116001146200037b576000926200036f575b505060088202870a600019041916908602176003555b805191821162000341578654838682049116801562000336575b878210146200030857848111620002bf575b508590848311600114620002555782935060009262000249575b505060088202840a6000190419169083021784555b3315620001ee575080549069d3c21bcecceda100000093848301809311620001c05750917fddf252ad1be2c89b69c2b068fc378daa952ba7f163c4a11628f55a4df523b3ef916000935533835282815284832084815401905584519384523393a351610a4c9081620004dc8239f35b6011907f4e487b71000000000000000000000000000000000000000000000000000000006000525260246000fd5b91905060649351927f08c379a000000000000000000000000000000000000000000000000000000000845283015260248201527f45524332303a206d696e7420746f20746865207a65726f2061646472657373006044820152fd5b0151905038806200013c565b859291601f1983169189600052886000209260005b8a88838310620002a75750505084116200028c575b5050500201845562000151565b0151600883871602840a60001904191690553880806200027f565b8486015187558b98509095019493840193016200026a565b876000528660002087868181870104830193828710620002fe575b0104019084905b828110620002f157505062000122565b60008155018490620002e1565b93508293620002da565b6022887f4e487b71000000000000000000000000000000000000000000000000000000006000525260246000fd5b90607f169062000110565b6041877f4e487b71000000000000000000000000000000000000000000000000000000006000525260246000fd5b015190503880620000e0565b869350889291601f1983169160036000528b6000209260005b8d828210620003d05750508411620003b5575b5050500201600355620000f6565b01516008838a1602840a6000190419169055388080620003a7565b8484015186558b988e985090950194938401930162000394565b9091506003600052886000208988818187010483019382871062000436575b9186959493918a93010401915b82811062000426575050620000c9565b6000815585945088910162000416565b9350829362000409565b6022897f4e487b71000000000000000000000000000000000000000000000000000000006000525260246000fd5b95607f1695620000b2565b6041867f4e487b71000000000000000000000000000000000000000000000000000000006000525260246000fd5b7f4e487b7100000000000000000000000000000000000000000000000000000000600052604160045260246000fd5b600080fdfe608060408181526004908136101561001657600080fd5b6000927c010000000000000000000000000000000000000000000000000000000084350490816306fdde03146105cc57508063095ea7b3146105a257806318160ddd1461058357806323b872dd146104b5578063313ce56714610499578063395093511461043057806370a08231146103fa57806395d89b41146102d5578063a457c2d714610212578063a9059cbb146101e1578063dd62ed3e146101945763de5f72fd146100c457600080fd5b34610190578260031936011261019057331561014a5760025468056bc75e2d631000009283820180921161013457506002553383528260205280832082815401905551908152817fddf252ad1be2c89b69c2b068fc378daa952ba7f163c4a11628f55a4df523b3ef60203393a380f35b84601160249260e060020a634e487b7102835252fd5b906020606492519160e560020a62461bcd028352820152601f60248201527f45524332303a206d696e7420746f20746865207a65726f2061646472657373006044820152fd5b8280fd5b8382346101dd57806003193601126101dd57806020926101b26106ee565b6101ba610709565b600160a060020a0391821683526001865283832091168252845220549051908152f35b5080fd5b8382346101dd57806003193601126101dd5760209061020b6102016106ee565b602435903361071f565b5160018152f35b5091346102d257826003193601126102d25761022c6106ee565b9183602435923381526001602052818120600160a060020a03861682526020522054908282106102665760208561020b85850387336108dc565b608490602086519160e560020a62461bcd028352820152602560248201527f45524332303a2064656372656173656420616c6c6f77616e63652062656c6f7760448201527f207a65726f0000000000000000000000000000000000000000000000000000006064820152fd5b80fd5b508290346101dd57816003193601126101dd578051908284546002810460018083169283156103f0575b60209384841081146103da578388529081156103bf575060011461036a575b505050829003601f01601f191682019267ffffffffffffffff84118385101761035457508291826103509252826106a5565b0390f35b8060418660e060020a634e487b71026024945252fd5b8787529192508591837f8a35acfbc15ff81a39ae7d344fd709f28e8600b4aa8c65c6b64bfe7fe36bd19b5b8385106103ab575050505083010185808061031e565b805488860183015293019284908201610395565b60ff191687850152505015158102840101905085808061031e565b60248960228c60e060020a634e487b7102835252fd5b91607f16916102ff565b8382346101dd5760203660031901126101dd5780602092600160a060020a036104216106ee565b16815280845220549051908152f35b5082346102d257816003193601126102d25761044a6106ee565b3382526001602052828220600160a060020a0382168352602052828220549160243583018093116104835760208461020b8585336108dc565b8060118660e060020a634e487b71026024945252fd5b8382346101dd57816003193601126101dd576020905160128152f35b509190346101dd5760603660031901126101dd576104d16106ee565b6104d9610709565b918460443594600160a060020a038416815260016020528181203382526020522054906000198203610514575b60208661020b87878761071f565b84821061053d57509183916105326020969561020b950333836108dc565b919394819350610506565b606490602087519160e560020a62461bcd028352820152601d60248201527f45524332303a20696e73756666696369656e7420616c6c6f77616e63650000006044820152fd5b8382346101dd57816003193601126101dd576020906002549051908152f35b8382346101dd57806003193601126101dd5760209061020b6105c26106ee565b60243590336108dc565b90508391346101905782600319360112610190578260035460028104600180831692831561069b575b60209384841081146103da578388529081156103bf575060011461064557505050829003601f01601f191682019267ffffffffffffffff84118385101761035457508291826103509252826106a5565b600387529192508591837fc2575a0e9e593c00f959f8c92f12db2869c3395a3b0502d05e2516446f71f85b5b838510610687575050505083010185808061031e565b805488860183015293019284908201610671565b91607f16916105f5565b6020808252825181830181905290939260005b8281106106da57505060409293506000838284010152601f8019910116010190565b8181018601518482016040015285016106b8565b60043590600160a060020a038216820361070457565b600080fd5b60243590600160a060020a038216820361070457565b600160a060020a0380911691821561086f57169182156108025760008281528060205260408120549180831061079557604082827fddf252ad1be2c89b69c2b068fc378daa952ba7f163c4a11628f55a4df523b3ef958760209652828652038282205586815220818154019055604051908152a3565b608460405160e560020a62461bcd02815260206004820152602660248201527f45524332303a207472616e7366657220616d6f756e742065786365656473206260448201527f616c616e636500000000000000000000000000000000000000000000000000006064820152fd5b608460405160e560020a62461bcd02815260206004820152602360248201527f45524332303a207472616e7366657220746f20746865207a65726f206164647260448201527f65737300000000000000000000000000000000000000000000000000000000006064820152fd5b608460405160e560020a62461bcd02815260206004820152602560248201527f45524332303a207472616e736665722066726f6d20746865207a65726f20616460448201527f64726573730000000000000000000000000000000000000000000000000000006064820152fd5b600160a060020a038091169182156109aa571691821561093d5760207f8c5be1e5ebec7d5bd14f71427d1e84f3dd0314c0f7b2291e5b200ac8c7c3b925918360005260018252604060002085600052825280604060002055604051908152a3565b608460405160e560020a62461bcd02815260206004820152602260248201527f45524332303a20617070726f766520746f20746865207a65726f20616464726560448201527f73730000000000000000000000000000000000000000000000000000000000006064820152fd5b608460405160e560020a62461bcd028152602060048201526024808201527f45524332303a20617070726f76652066726f6d20746865207a65726f2061646460448201527f72657373000000000000000000000000000000000000000000000000000000006064820152fdfea264697066735822122074e7f9e2bd059c514b18f15d491f2bdcc26072e249e5baea05b8ef8194aada1664736f6c63430008110033",
  "immutableReferences": {},
  "source": "// SPDX-License-Identifier: MIT\r\npragma solidity ^0.8.17;\r\n\r\nimport {ERC20} from \"@openzeppelin/contracts/token/ERC20/ERC20.sol\";\r\n\r\ncontract LINK is ERC20 {\r\n    constructor() ERC20(\"Chainlink\", \"LINK\") {\r\n        _mint(_msgSender(), 1_000_000 * 1e18);\r\n    }\r\n\r\n    function faucet() external {\r\n        _mint(_msgSender(), 100 * 1e18);\r\n    }\r\n}\r\n",
  "sourcePath": "C:\\Users\\DELL\\Documents\\electron\\solidity\\contracts\\tokens\\LINK.sol",
  "compiler": {
    "name": "solc",
    "version": "0.8.17+commit.8df45f5f.Emscripten.clang"
  },
  "schemaVersion": "3.4.11",
  "updatedAt": "2024-04-27T16:43:38.092Z",
  "devdoc": {
    "kind": "dev",
    "methods": {
      "allowance(address,address)": {
        "details": "See {IERC20-allowance}."
      },
      "approve(address,uint256)": {
        "details": "See {IERC20-approve}. NOTE: If `amount` is the maximum `uint256`, the allowance is not updated on `transferFrom`. This is semantically equivalent to an infinite approval. Requirements: - `spender` cannot be the zero address."
      },
      "balanceOf(address)": {
        "details": "See {IERC20-balanceOf}."
      },
      "decimals()": {
        "details": "Returns the number of decimals used to get its user representation. For example, if `decimals` equals `2`, a balance of `505` tokens should be displayed to a user as `5.05` (`505 / 10 ** 2`). Tokens usually opt for a value of 18, imitating the relationship between Ether and Wei. This is the default value returned by this function, unless it's overridden. NOTE: This information is only used for _display_ purposes: it in no way affects any of the arithmetic of the contract, including {IERC20-balanceOf} and {IERC20-transfer}."
      },
      "decreaseAllowance(address,uint256)": {
        "details": "Atomically decreases the allowance granted to `spender` by the caller. This is an alternative to {approve} that can be used as a mitigation for problems described in {IERC20-approve}. Emits an {Approval} event indicating the updated allowance. Requirements: - `spender` cannot be the zero address. - `spender` must have allowance for the caller of at least `subtractedValue`."
      },
      "increaseAllowance(address,uint256)": {
        "details": "Atomically increases the allowance granted to `spender` by the caller. This is an alternative to {approve} that can be used as a mitigation for problems described in {IERC20-approve}. Emits an {Approval} event indicating the updated allowance. Requirements: - `spender` cannot be the zero address."
      },
      "name()": {
        "details": "Returns the name of the token."
      },
      "symbol()": {
        "details": "Returns the symbol of the token, usually a shorter version of the name."
      },
      "totalSupply()": {
        "details": "See {IERC20-totalSupply}."
      },
      "transfer(address,uint256)": {
        "details": "See {IERC20-transfer}. Requirements: - `to` cannot be the zero address. - the caller must have a balance of at least `amount`."
      },
      "transferFrom(address,address,uint256)": {
        "details": "See {IERC20-transferFrom}. Emits an {Approval} event indicating the updated allowance. This is not required by the EIP. See the note at the beginning of {ERC20}. NOTE: Does not update the allowance if the current allowance is the maximum `uint256`. Requirements: - `from` and `to` cannot be the zero address. - `from` must have a balance of at least `amount`. - the caller must have allowance for ``from``'s tokens of at least `amount`."
      }
    },
    "version": 1
  },
  "userdoc": {
    "kind": "user",
    "methods": {},
    "version": 1
  }
}