{
  "contractName": "Pools",
  "abi": [
    {
      "inputs": [],
      "stateMutability": "nonpayable",
      "type": "constructor"
    },
    {
      "anonymous": false,
      "inputs": [
        {
          "indexed": true,
          "internalType": "address",
          "name": "previousOwner",
          "type": "address"
        },
        {
          "indexed": true,
          "internalType": "address",
          "name": "newOwner",
          "type": "address"
        }
      ],
      "name": "OwnershipTransferStarted",
      "type": "event"
    },
    {
      "anonymous": false,
      "inputs": [
        {
          "indexed": true,
          "internalType": "address",
          "name": "previousOwner",
          "type": "address"
        },
        {
          "indexed": true,
          "internalType": "address",
          "name": "newOwner",
          "type": "address"
        }
      ],
      "name": "OwnershipTransferred",
      "type": "event"
    },
    {
      "inputs": [],
      "name": "INTEREST_RATE_DENOMINATOR",
      "outputs": [
        {
          "internalType": "uint256",
          "name": "",
          "type": "uint256"
        }
      ],
      "stateMutability": "view",
      "type": "function"
    },
    {
      "inputs": [],
      "name": "PERCENT",
      "outputs": [
        {
          "internalType": "uint16",
          "name": "",
          "type": "uint16"
        }
      ],
      "stateMutability": "view",
      "type": "function"
    },
    {
      "inputs": [],
      "name": "acceptOwnership",
      "outputs": [],
      "stateMutability": "nonpayable",
      "type": "function"
    },
    {
      "inputs": [],
      "name": "owner",
      "outputs": [
        {
          "internalType": "address",
          "name": "",
          "type": "address"
        }
      ],
      "stateMutability": "view",
      "type": "function"
    },
    {
      "inputs": [],
      "name": "pendingOwner",
      "outputs": [
        {
          "internalType": "address",
          "name": "",
          "type": "address"
        }
      ],
      "stateMutability": "view",
      "type": "function"
    },
    {
      "inputs": [],
      "name": "renounceOwnership",
      "outputs": [],
      "stateMutability": "nonpayable",
      "type": "function"
    },
    {
      "inputs": [
        {
          "internalType": "address",
          "name": "newOwner",
          "type": "address"
        }
      ],
      "name": "transferOwnership",
      "outputs": [],
      "stateMutability": "nonpayable",
      "type": "function"
    },
    {
      "inputs": [
        {
          "components": [
            {
              "internalType": "address",
              "name": "principalId",
              "type": "address"
            },
            {
              "internalType": "address",
              "name": "collateralId",
              "type": "address"
            },
            {
              "internalType": "uint256",
              "name": "totalSupplied",
              "type": "uint256"
            },
            {
              "internalType": "uint256",
              "name": "totalBorrowed",
              "type": "uint256"
            },
            {
              "internalType": "uint256",
              "name": "interest",
              "type": "uint256"
            }
          ],
          "internalType": "struct Data.Pool",
          "name": "pool",
          "type": "tuple"
        }
      ],
      "name": "createPool",
      "outputs": [
        {
          "internalType": "uint256",
          "name": "",
          "type": "uint256"
        }
      ],
      "stateMutability": "nonpayable",
      "type": "function"
    },
    {
      "inputs": [
        {
          "internalType": "uint256",
          "name": "poolId",
          "type": "uint256"
        }
      ],
      "name": "getPool",
      "outputs": [
        {
          "components": [
            {
              "internalType": "address",
              "name": "principalId",
              "type": "address"
            },
            {
              "internalType": "address",
              "name": "collateralId",
              "type": "address"
            },
            {
              "internalType": "uint256",
              "name": "totalSupplied",
              "type": "uint256"
            },
            {
              "internalType": "uint256",
              "name": "totalBorrowed",
              "type": "uint256"
            },
            {
              "internalType": "uint256",
              "name": "interest",
              "type": "uint256"
            }
          ],
          "internalType": "struct Data.Pool",
          "name": "",
          "type": "tuple"
        }
      ],
      "stateMutability": "view",
      "type": "function"
    },
    {
      "inputs": [
        {
          "internalType": "uint256",
          "name": "poolId",
          "type": "uint256"
        },
        {
          "internalType": "address",
          "name": "account",
          "type": "address"
        }
      ],
      "name": "hasPendingLoan",
      "outputs": [
        {
          "internalType": "bool",
          "name": "",
          "type": "bool"
        }
      ],
      "stateMutability": "view",
      "type": "function"
    },
    {
      "inputs": [
        {
          "internalType": "uint256",
          "name": "principal",
          "type": "uint256"
        },
        {
          "internalType": "uint256",
          "name": "startDate",
          "type": "uint256"
        },
        {
          "internalType": "uint256",
          "name": "interest",
          "type": "uint256"
        }
      ],
      "name": "calculateRewards",
      "outputs": [
        {
          "internalType": "uint256",
          "name": "",
          "type": "uint256"
        }
      ],
      "stateMutability": "view",
      "type": "function"
    },
    {
      "inputs": [
        {
          "internalType": "uint256",
          "name": "poolId",
          "type": "uint256"
        },
        {
          "internalType": "address",
          "name": "account",
          "type": "address"
        }
      ],
      "name": "getPosition",
      "outputs": [
        {
          "components": [
            {
              "internalType": "uint256",
              "name": "poolId",
              "type": "uint256"
            },
            {
              "internalType": "uint256",
              "name": "collateral",
              "type": "uint256"
            },
            {
              "internalType": "uint256",
              "name": "startDate",
              "type": "uint256"
            }
          ],
          "internalType": "struct Data.Position",
          "name": "",
          "type": "tuple"
        }
      ],
      "stateMutability": "view",
      "type": "function"
    },
    {
      "inputs": [
        {
          "internalType": "uint256",
          "name": "poolId",
          "type": "uint256"
        },
        {
          "internalType": "address",
          "name": "account",
          "type": "address"
        }
      ],
      "name": "getLoan",
      "outputs": [
        {
          "components": [
            {
              "internalType": "uint256",
              "name": "poolId",
              "type": "uint256"
            },
            {
              "internalType": "enum Data.State",
              "name": "state",
              "type": "uint8"
            },
            {
              "internalType": "uint256",
              "name": "principal",
              "type": "uint256"
            },
            {
              "internalType": "uint256",
              "name": "collateral",
              "type": "uint256"
            },
            {
              "internalType": "uint256",
              "name": "startDate",
              "type": "uint256"
            },
            {
              "internalType": "uint256",
              "name": "repaidDate",
              "type": "uint256"
            }
          ],
          "internalType": "struct Data.Loan",
          "name": "",
          "type": "tuple"
        }
      ],
      "stateMutability": "view",
      "type": "function"
    },
    {
      "inputs": [
        {
          "internalType": "uint256",
          "name": "poolId",
          "type": "uint256"
        },
        {
          "internalType": "uint256",
          "name": "collateral",
          "type": "uint256"
        },
        {
          "internalType": "address",
          "name": "account",
          "type": "address"
        }
      ],
      "name": "createPosition",
      "outputs": [],
      "stateMutability": "nonpayable",
      "type": "function"
    },
    {
      "inputs": [
        {
          "internalType": "uint256",
          "name": "poolId",
          "type": "uint256"
        },
        {
          "internalType": "uint256",
          "name": "principal",
          "type": "uint256"
        },
        {
          "internalType": "uint256",
          "name": "collateral",
          "type": "uint256"
        },
        {
          "internalType": "address",
          "name": "account",
          "type": "address"
        }
      ],
      "name": "createLoan",
      "outputs": [],
      "stateMutability": "nonpayable",
      "type": "function"
    },
    {
      "inputs": [
        {
          "internalType": "uint256",
          "name": "poolId",
          "type": "uint256"
        },
        {
          "internalType": "address",
          "name": "account",
          "type": "address"
        }
      ],
      "name": "closePosition",
      "outputs": [],
      "stateMutability": "nonpayable",
      "type": "function"
    },
    {
      "inputs": [
        {
          "internalType": "uint256",
          "name": "poolId",
          "type": "uint256"
        },
        {
          "internalType": "address",
          "name": "account",
          "type": "address"
        }
      ],
      "name": "closeLoan",
      "outputs": [],
      "stateMutability": "nonpayable",
      "type": "function"
    },
    {
      "inputs": [
        {
          "internalType": "uint256",
          "name": "collateralInUsd",
          "type": "uint256"
        },
        {
          "internalType": "uint8",
          "name": "totalLtv",
          "type": "uint8"
        }
      ],
      "name": "getPrincipalInUsd",
      "outputs": [
        {
          "internalType": "uint256",
          "name": "",
          "type": "uint256"
        }
      ],
      "stateMutability": "pure",
      "type": "function"
    }
  ],
  "bytecode": "0x608080604052346100685760018054600160a060020a0319908116909155600080543392811683178255600160a060020a0316907f8be0079c531659141344cd1fd0a4f28419497f9722a3daafe3b4186f6b6457e09080a36001600555610bb6908161006e8239f35b600080fdfe60406080815260048036101561001457600080fd5b6000917c0100000000000000000000000000000000000000000000000000000000833504918263068bcd8d1461095557826306b5b5b2146108ec5782633a2e89a1146108bd5782635a18ef44146107e3578263651ab22a1461075b578263715018a614610700578263745052c0146106ab57826379ba5097146105b05782637e8400b21461050b5782638da5cb5b146104e5578263b5e0ecac1461046c578263b85a8b2014610450578263c50a74a61461033c578263cc3266e814610319578263d14a332114610228578263d29f541d1461019d57508163e30c397814610171575063f2fde38b1461010557600080fd5b3461016e57602036600319011261016e5761011e610a1b565b610126610aaa565b600160a060020a038091169081600160a060020a031960015416176001558254167f38d16b8cac22d99fc7c124b9cd0de2d3fa1faef420bfe791d8c362d765e227008380a380f35b80fd5b905034610199578160031936011261019957602090600160a060020a03600154169051908152f35b5080fd5b909150346102245781600319360112610224576060928291600160a060020a036101c5610a00565b83856101cf610a6a565b8281528260208201520152168252806020528282209035825260205220906101f5610a6a565b825492838252826002600183015492602085019384520154920191825282519384525160208401525190820152f35b8280fd5b8382346101995760803660031901126101995782359060243591606435600160a060020a0381168091036103155761025e610aaa565b610266610a8a565b908282526020820186815284830186815260608401906044358252608085019242845260a08601948a86528a526003602052878a20878b52602052878a209551865560018601905160038110156102ff579360059360039896938d936102fa9b999760ff80198354169116179055516002870155518886015551908401555191015585526002602052842001918254610b42565b905580f35b60248b60218e60e060020a634e487b7102835252fd5b8480fd5b83823461019957816003193601126101995760209051670de0b6b3a76400008152f35b838234610199578060031936011261019957600160a060020a0361035e610a00565b8360a0610369610a8a565b828152826020820152828682015282606082015282608082015201521682526003602052808220833583526020528082206103a2610a8a565b928154845260ff600183015416926020850193600381101561043a578452600283015481860190815260038401549260608701938452600588860154956080890196875201549560a0880196875283519751885251906003821015610424575060c09750602087015251908501525160608401525160808301525160a0820152f35b8060218a60e060020a634e487b71026024945252fd5b60248360218960e060020a634e487b7102835252fd5b8382346101995781600319360112610199576020905160648152f35b91503461022457806003193601126102245760026102fa918335600160a060020a03610496610a00565b61049e610aaa565b169485875280602052828720828852602052600183882001549587526020528186209086526020528482828220828155826001820155015581602052842001918254610b1c565b838234610199578160031936011261019957600160a060020a0360209254169051908152f35b915034610224578060031936011261022457813591600160a060020a03610530610a00565b610538610aaa565b168452600360205281842083855260205281842091600183019182549060ff821690600382101561059a5750610596576102fa93600393600160029342600585015560ff191617905501549385526002602052842001918254610b1c565b8580fd5b87602160249260e060020a634e487b7102835252fd5b91503461022457826003193601126102245760015491600160a060020a0391338385160361062857505073ffffffffffffffffffffffffffffffffffffffff1991821660015582543392811683178455167f8be0079c531659141344cd1fd0a4f28419497f9722a3daafe3b4186f6b6457e08380a380f35b90602060849251917f08c379a0000000000000000000000000000000000000000000000000000000008352820152602960248201527f4f776e61626c6532537465703a2063616c6c6572206973206e6f74207468652060448201527f6e6577206f776e657200000000000000000000000000000000000000000000006064820152fd5b90833461016e57606036600319011261016e57506106f9602092356064670de0b6b3a76400006106f16106e060243542610b1c565b6106ec60443586610b4f565b610b4f565b040490610b42565b9051908152f35b833461016e578060031936011261016e57610719610aaa565b80600160a060020a038019806001541660015582549081168355167f8be0079c531659141344cd1fd0a4f28419497f9722a3daafe3b4186f6b6457e08280a380f35b909150346102245760603660031901126102245780356024359260443591600160a060020a03831680930361059657600280936102fa9561079a610aaa565b6107a2610a6a565b938085526020850191898352868601934285528b52602052858a20908a52602052848920935184555160018401555191015581602052842001918254610b42565b8382346101995760a0366003190112610199576107fe610a31565b91610807610a1b565b8352610811610a00565b92602081019384528483820160443581526060830160643581526080840191608435835261083d610aaa565b60055497888752600260205287872095600160a060020a038091511690600160a060020a031991828954161788556001880192511690825416179055516002850155516003840155519101556005549060001982146108a757602084846001850160055551908152f35b8060118660e060020a634e487b71026024945252fd5b909150346102245781600319360112610224576024359260ff8416840361016e57506020926106f99135610b62565b838234610199578060031936011261019957600160a060020a0361090e610a00565b16825260036020528082208335835260205260ff600182842001541691600383101561093f57602083835190158152f35b8060218560e060020a634e487b71026024945252fd5b91503461022457602036600319011261022457808360a0946080610977610a31565b828152826020820152828582015282606082015201528335815260026020522061099f610a31565b91600160a060020a039384835416948585528060018501541660208601908152608060028601549385880194855260038701549660608901978852015496019586528351968752511660208601525190840152516060830152516080820152f35b60243590600160a060020a0382168203610a1657565b600080fd5b60043590600160a060020a0382168203610a1657565b6040519060a0820182811067ffffffffffffffff821117610a5157604052565b60e060020a634e487b7102600052604160045260246000fd5b604051906060820182811067ffffffffffffffff821117610a5157604052565b6040519060c0820182811067ffffffffffffffff821117610a5157604052565b600160a060020a03600054163303610abe57565b60646040517f08c379a000000000000000000000000000000000000000000000000000000000815260206004820152602060248201527f4f776e61626c653a2063616c6c6572206973206e6f7420746865206f776e65726044820152fd5b91908203918211610b2957565b60e060020a634e487b7102600052601160045260246000fd5b91908201809211610b2957565b81810292918115918404141715610b2957565b9060ff168015610b7c57610b7890606492610b4f565b0490565b509056fea26469706673582212204b627960616bc59829ea0d1af77bf0f6fa09a755fe9b42549184ee60a5b2586b64736f6c63430008110033",
  "immutableReferences": {},
  "source": "// SPDX-License-Identifier: MIT\r\npragma solidity ^0.8.17;\r\n\r\nimport {Data} from \"./libraries/Data.sol\";\r\nimport {IPools} from \"./interfaces/IPools.sol\";\r\n\r\nimport {Ownable2Step} from \"@openzeppelin/contracts/access/Ownable2Step.sol\";\r\n\r\ncontract Pools is IPools, Ownable2Step {\r\n    /// @dev The units of precision equal to the minimum interestRate.\r\n    uint256 public constant INTEREST_RATE_DENOMINATOR = 1e18;\r\n    uint16 public constant PERCENT = 100;\r\n\r\n    mapping(uint256 => Data.Pool) private _pools;\r\n\r\n    mapping(address => mapping(uint256 => Data.Loan)) private _loans;\r\n\r\n    mapping(address => mapping(uint256 => Data.Position)) private _positions;\r\n\r\n    uint256 private _poolIdTracker = 1;\r\n\r\n    constructor() Ownable2Step() {}\r\n\r\n    function createPool(\r\n        Data.Pool memory pool\r\n    ) external override onlyOwner returns (uint256) {\r\n        uint256 poolId = _poolIdTracker;\r\n\r\n        _pools[poolId] = pool;\r\n\r\n        _poolIdTracker++;\r\n\r\n        return poolId;\r\n    }\r\n\r\n    function getPool(\r\n        uint256 poolId\r\n    ) external view override returns (Data.Pool memory) {\r\n        return _pools[poolId];\r\n    }\r\n\r\n    function hasPendingLoan(\r\n        uint256 poolId,\r\n        address account\r\n    ) external view override returns (bool) {\r\n        return _loans[account][poolId].state == Data.State.ACTIVE;\r\n    }\r\n\r\n    function calculateRewards(\r\n        uint256 principal,\r\n        uint256 startDate,\r\n        uint256 interest\r\n    ) external view override returns (uint256) {\r\n        uint256 durationSecs = (block.timestamp - startDate);\r\n        return getInterest(principal, durationSecs, interest);\r\n    }\r\n\r\n    function getPosition(\r\n        uint256 poolId,\r\n        address account\r\n    ) external view override returns (Data.Position memory) {\r\n        return _positions[account][poolId];\r\n    }\r\n\r\n    function getLoan(\r\n        uint256 poolId,\r\n        address account\r\n    ) external view override returns (Data.Loan memory) {\r\n        return _loans[account][poolId];\r\n    }\r\n\r\n    function createPosition(\r\n        uint256 poolId,\r\n        uint256 collateral,\r\n        address account\r\n    ) external override onlyOwner {\r\n        _positions[account][poolId] = Data.Position({\r\n            poolId: poolId,\r\n            collateral: collateral,\r\n            startDate: block.timestamp\r\n        });\r\n\r\n        _pools[poolId].totalSupplied += collateral;\r\n    }\r\n\r\n    function createLoan(\r\n        uint256 poolId,\r\n        uint256 principal,\r\n        uint256 collateral,\r\n        address account\r\n    ) external override onlyOwner {\r\n        _loans[account][poolId] = Data.Loan({\r\n            poolId: poolId,\r\n            state: Data.State.ACTIVE,\r\n            principal: principal,\r\n            collateral: collateral,\r\n            startDate: block.timestamp,\r\n            repaidDate: 0\r\n        });\r\n\r\n        _pools[poolId].totalBorrowed += principal;\r\n    }\r\n\r\n    function closePosition(\r\n        uint256 poolId,\r\n        address account\r\n    ) external override onlyOwner {\r\n        uint256 collateral = _positions[account][poolId].collateral;\r\n\r\n        delete _positions[account][poolId];\r\n\r\n        _pools[poolId].totalSupplied -= collateral;\r\n    }\r\n\r\n    function closeLoan(\r\n        uint256 poolId,\r\n        address account\r\n    ) external override onlyOwner {\r\n        Data.Loan storage loan = _loans[account][poolId];\r\n\r\n        if (loan.state != Data.State.ACTIVE) {\r\n            revert();\r\n        }\r\n\r\n        loan.repaidDate = block.timestamp;\r\n        loan.state = Data.State.REPAID;\r\n\r\n        _pools[poolId].totalBorrowed -= loan.principal;\r\n    }\r\n\r\n    function getPrincipalInUsd(\r\n        uint256 collateralInUsd,\r\n        uint8 totalLtv\r\n    ) external pure override returns (uint256) {\r\n        return percentageOf(collateralInUsd, totalLtv);\r\n    }\r\n\r\n    function getInterest(\r\n        uint256 principal,\r\n        uint256 durationSecs,\r\n        uint256 interestRate\r\n    ) internal pure virtual returns (uint256) {\r\n        uint256 accrued = (principal * interestRate * durationSecs) /\r\n            INTEREST_RATE_DENOMINATOR /\r\n            PERCENT;\r\n\r\n        return principal + accrued;\r\n    }\r\n\r\n    function percentageOf(\r\n        uint256 total,\r\n        uint8 percent\r\n    ) internal pure virtual returns (uint256) {\r\n        if (percent == 0) return total;\r\n        return (total * percent) / PERCENT;\r\n    }\r\n}\r\n",
  "sourcePath": "C:\\Users\\DELL\\Documents\\electron\\solidity\\contracts\\core\\Pools.sol",
  "compiler": {
    "name": "solc",
    "version": "0.8.17+commit.8df45f5f.Emscripten.clang"
  },
  "schemaVersion": "3.4.11",
  "updatedAt": "2024-04-27T15:07:07.877Z",
  "devdoc": {
    "kind": "dev",
    "methods": {
      "acceptOwnership()": {
        "details": "The new owner accepts the ownership transfer."
      },
      "owner()": {
        "details": "Returns the address of the current owner."
      },
      "pendingOwner()": {
        "details": "Returns the address of the pending owner."
      },
      "renounceOwnership()": {
        "details": "Leaves the contract without owner. It will not be possible to call `onlyOwner` functions. Can only be called by the current owner. NOTE: Renouncing ownership will leave the contract without an owner, thereby disabling any functionality that is only available to the owner."
      },
      "transferOwnership(address)": {
        "details": "Starts the ownership transfer of the contract to a new account. Replaces the pending transfer if there is one. Can only be called by the current owner."
      }
    },
    "stateVariables": {
      "INTEREST_RATE_DENOMINATOR": {
        "details": "The units of precision equal to the minimum interestRate."
      }
    },
    "version": 1
  },
  "userdoc": {
    "kind": "user",
    "methods": {},
    "version": 1
  }
}