{
  "contractName": "Verifier",
  "abi": [
    {
      "inputs": [],
      "stateMutability": "nonpayable",
      "type": "constructor"
    },
    {
      "anonymous": false,
      "inputs": [
        {
          "indexed": true,
          "internalType": "address",
          "name": "previousOwner",
          "type": "address"
        },
        {
          "indexed": true,
          "internalType": "address",
          "name": "newOwner",
          "type": "address"
        }
      ],
      "name": "OwnershipTransferStarted",
      "type": "event"
    },
    {
      "anonymous": false,
      "inputs": [
        {
          "indexed": true,
          "internalType": "address",
          "name": "previousOwner",
          "type": "address"
        },
        {
          "indexed": true,
          "internalType": "address",
          "name": "newOwner",
          "type": "address"
        }
      ],
      "name": "OwnershipTransferred",
      "type": "event"
    },
    {
      "inputs": [],
      "name": "acceptOwnership",
      "outputs": [],
      "stateMutability": "nonpayable",
      "type": "function"
    },
    {
      "inputs": [],
      "name": "owner",
      "outputs": [
        {
          "internalType": "address",
          "name": "",
          "type": "address"
        }
      ],
      "stateMutability": "view",
      "type": "function"
    },
    {
      "inputs": [],
      "name": "pendingOwner",
      "outputs": [
        {
          "internalType": "address",
          "name": "",
          "type": "address"
        }
      ],
      "stateMutability": "view",
      "type": "function"
    },
    {
      "inputs": [],
      "name": "renounceOwnership",
      "outputs": [],
      "stateMutability": "nonpayable",
      "type": "function"
    },
    {
      "inputs": [
        {
          "internalType": "address",
          "name": "newOwner",
          "type": "address"
        }
      ],
      "name": "transferOwnership",
      "outputs": [],
      "stateMutability": "nonpayable",
      "type": "function"
    },
    {
      "inputs": [
        {
          "components": [
            {
              "internalType": "bytes32",
              "name": "proofId",
              "type": "bytes32"
            },
            {
              "internalType": "bytes32[]",
              "name": "pubInput",
              "type": "bytes32[]"
            },
            {
              "internalType": "bytes",
              "name": "data",
              "type": "bytes"
            }
          ],
          "internalType": "struct Data.Proof",
          "name": "proof",
          "type": "tuple"
        }
      ],
      "name": "verify",
      "outputs": [
        {
          "internalType": "bool",
          "name": "",
          "type": "bool"
        },
        {
          "internalType": "uint8",
          "name": "",
          "type": "uint8"
        }
      ],
      "stateMutability": "view",
      "type": "function"
    },
    {
      "inputs": [
        {
          "internalType": "bytes32",
          "name": "proofId",
          "type": "bytes32"
        },
        {
          "internalType": "address",
          "name": "verifierId",
          "type": "address"
        },
        {
          "internalType": "uint8",
          "name": "points",
          "type": "uint8"
        }
      ],
      "name": "addProof",
      "outputs": [],
      "stateMutability": "nonpayable",
      "type": "function"
    }
  ],
  "bytecode": "0x608080604052346100635760018054600160a060020a0319908116909155600080543392811683178255600160a060020a0316907f8be0079c531659141344cd1fd0a4f28419497f9722a3daafe3b4186f6b6457e09080a361067c90816100698239f35b600080fdfe60406080815260048036101561001457600080fd5b6000917c0100000000000000000000000000000000000000000000000000000000833504908163423d3ebc146104dc578163715018a61461048157816379ba5097146103865781638da5cb5b14610360578163ccc9ebb214610123578163e30c3978146100fb575063f2fde38b1461008b57600080fd5b346100f75760203660031901126100f75735600160a060020a038082168092036100f3576100b76105d4565b81600160a060020a031960015416176001558254167f38d16b8cac22d99fc7c124b9cd0de2d3fa1faef420bfe791d8c362d765e227008380a380f35b8280fd5b5080fd5b8390346100f757816003193601126100f757602090600160a060020a03600154169051908152f35b9050823461035d57602060031991818336011261035d57843567ffffffffffffffff938482116100f3576060823603918201126100f357818701359182845260028552600160a060020a0387852054169160448201359060221901908181121561035957820190898201359188831161035557602401928236038413610355576024810135918212156103555701908982013591888311610355576024019087830293843603831361035157917f07ffffffffffffffffffffffffffffffffffffffffffffffffffffffffffffff828d979593601f97958e80519a7fea50d0e4000000000000000000000000000000000000000000000000000000008c528b01528160448b015260648a0137896064828a0101528619968791011687019260608885030160248901528060648501521161035157608486848482968395858f9a980137010301915afa958615610347578798859896976102b3575b505050908252506002835220548351921515835274010000000000000000000000000000000000000000900460ff1690820152f35b919397509193945085923d871161033f575b601f8401168401918211848310176103135750849183918852810103126100f7575180151581036100f757928491908160ff740100000000000000000000000000000000000000008961027e565b8460416024927f4e487b7100000000000000000000000000000000000000000000000000000000835252fd5b3d93506102c5565b87513d86823e3d90fd5b8780fd5b8680fd5b8580fd5b80fd5b8390346100f757816003193601126100f757600160a060020a0360209254169051908152f35b9050346100f357826003193601126100f35760015491600160a060020a039133838516036103fe57505073ffffffffffffffffffffffffffffffffffffffff1991821660015582543392811683178455167f8be0079c531659141344cd1fd0a4f28419497f9722a3daafe3b4186f6b6457e08380a380f35b90602060849251917f08c379a0000000000000000000000000000000000000000000000000000000008352820152602960248201527f4f776e61626c6532537465703a2063616c6c6572206973206e6f74207468652060448201527f6e6577206f776e657200000000000000000000000000000000000000000000006064820152fd5b833461035d578060031936011261035d5761049a6105d4565b80600160a060020a038019806001541660015582549081168355167f8be0079c531659141344cd1fd0a4f28419497f9722a3daafe3b4186f6b6457e08280a380f35b919050346100f35760603660031901126100f35760243591600160a060020a03908184168094036105d0576044359260ff84168094036103595761051e6105d4565b81519482860186811067ffffffffffffffff8211176105a45783528552602085019384523585526002602052842092511674ff00000000000000000000000000000000000000007401000000000000000000000000000000000000000060ff855494511602169174ffffffffffffffffffffffffffffffffffffffffff19161717905580f35b6024886041857f4e487b7100000000000000000000000000000000000000000000000000000000835252fd5b8480fd5b600160a060020a036000541633036105e857565b60646040517f08c379a000000000000000000000000000000000000000000000000000000000815260206004820152602060248201527f4f776e61626c653a2063616c6c6572206973206e6f7420746865206f776e65726044820152fdfea2646970667358221220dbdcf864c02085d0827c4f686c7740a8a0132a050a48f2fdd7cd85abb8181da264736f6c63430008110033",
  "immutableReferences": {},
  "source": "// SPDX-License-Identifier: MIT\r\npragma solidity ^0.8.17;\r\n\r\nimport {Data} from \"../core/libraries/Data.sol\";\r\n\r\nimport {IVerifier} from \"./interfaces/IVerifier.sol\";\r\nimport {IUltraVerifier} from \"./interfaces/IUltraVerifier.sol\";\r\n\r\nimport {Ownable2Step} from \"@openzeppelin/contracts/access/Ownable2Step.sol\";\r\n\r\ncontract Verifier is IVerifier, Ownable2Step {\r\n    mapping(bytes32 => Data.Verifier) private _verifiers;\r\n\r\n    constructor() Ownable2Step() {}\r\n\r\n    function verify(\r\n        Data.Proof calldata proof\r\n    ) external view override returns (bool, uint8) {\r\n        IUltraVerifier verifier = IUltraVerifier(\r\n            _verifiers[proof.proofId].verifierId\r\n        );\r\n\r\n        bool verified = verifier.verify(proof.data, proof.pubInput);\r\n        uint8 points = _verifiers[proof.proofId].points;\r\n\r\n        return (verified, points);\r\n    }\r\n\r\n    function addProof(\r\n        bytes32 proofId,\r\n        address verifierId,\r\n        uint8 points\r\n    ) external onlyOwner {\r\n        _verifiers[proofId] = Data.Verifier({\r\n            verifierId: verifierId,\r\n            points: points\r\n        });\r\n    }\r\n}\r\n",
  "sourcePath": "C:\\Users\\DELL\\electron\\solidity\\contracts\\zk\\Verifier.sol",
  "compiler": {
    "name": "solc",
    "version": "0.8.17+commit.8df45f5f.Emscripten.clang"
  },
  "schemaVersion": "3.4.11",
  "updatedAt": "2024-04-27T02:13:15.215Z",
  "devdoc": {
    "kind": "dev",
    "methods": {
      "acceptOwnership()": {
        "details": "The new owner accepts the ownership transfer."
      },
      "owner()": {
        "details": "Returns the address of the current owner."
      },
      "pendingOwner()": {
        "details": "Returns the address of the pending owner."
      },
      "renounceOwnership()": {
        "details": "Leaves the contract without owner. It will not be possible to call `onlyOwner` functions. Can only be called by the current owner. NOTE: Renouncing ownership will leave the contract without an owner, thereby disabling any functionality that is only available to the owner."
      },
      "transferOwnership(address)": {
        "details": "Starts the ownership transfer of the contract to a new account. Replaces the pending transfer if there is one. Can only be called by the current owner."
      }
    },
    "version": 1
  },
  "userdoc": {
    "kind": "user",
    "methods": {},
    "version": 1
  }
}