{
  "_format": "hh-sol-artifact-1",
  "contractName": "DataFeed",
  "sourceName": "contracts/chainlink/DataFeed.sol",
  "abi": [
    {
      "inputs": [],
      "stateMutability": "nonpayable",
      "type": "constructor"
    },
    {
      "inputs": [],
      "name": "InvalidFeed",
      "type": "error"
    },
    {
      "inputs": [
        {
          "internalType": "address",
          "name": "tokenId",
          "type": "address"
        }
      ],
      "name": "InvalidTokenId",
      "type": "error"
    },
    {
      "anonymous": false,
      "inputs": [
        {
          "indexed": true,
          "internalType": "address",
          "name": "tokenId",
          "type": "address"
        },
        {
          "indexed": false,
          "internalType": "address",
          "name": "priceFeed",
          "type": "address"
        }
      ],
      "name": "NewPriceFeed",
      "type": "event"
    },
    {
      "anonymous": false,
      "inputs": [
        {
          "indexed": true,
          "internalType": "address",
          "name": "previousOwner",
          "type": "address"
        },
        {
          "indexed": true,
          "internalType": "address",
          "name": "newOwner",
          "type": "address"
        }
      ],
      "name": "OwnershipTransferStarted",
      "type": "event"
    },
    {
      "anonymous": false,
      "inputs": [
        {
          "indexed": true,
          "internalType": "address",
          "name": "previousOwner",
          "type": "address"
        },
        {
          "indexed": true,
          "internalType": "address",
          "name": "newOwner",
          "type": "address"
        }
      ],
      "name": "OwnershipTransferred",
      "type": "event"
    },
    {
      "inputs": [],
      "name": "acceptOwnership",
      "outputs": [],
      "stateMutability": "nonpayable",
      "type": "function"
    },
    {
      "inputs": [
        {
          "internalType": "address",
          "name": "tokenId",
          "type": "address"
        },
        {
          "internalType": "address",
          "name": "priceFeed",
          "type": "address"
        }
      ],
      "name": "addDataFeed",
      "outputs": [],
      "stateMutability": "nonpayable",
      "type": "function"
    },
    {
      "inputs": [
        {
          "internalType": "address",
          "name": "usdId",
          "type": "address"
        }
      ],
      "name": "addUsdFeed",
      "outputs": [],
      "stateMutability": "nonpayable",
      "type": "function"
    },
    {
      "inputs": [
        {
          "internalType": "address",
          "name": "tokenId",
          "type": "address"
        },
        {
          "internalType": "uint256",
          "name": "amount",
          "type": "uint256"
        }
      ],
      "name": "amountInUsd",
      "outputs": [
        {
          "internalType": "uint256",
          "name": "",
          "type": "uint256"
        }
      ],
      "stateMutability": "view",
      "type": "function"
    },
    {
      "inputs": [
        {
          "internalType": "address",
          "name": "_base",
          "type": "address"
        },
        {
          "internalType": "address",
          "name": "_quote",
          "type": "address"
        },
        {
          "internalType": "uint256",
          "name": "_amount",
          "type": "uint256"
        }
      ],
      "name": "convertFromTo",
      "outputs": [
        {
          "internalType": "uint256",
          "name": "",
          "type": "uint256"
        }
      ],
      "stateMutability": "view",
      "type": "function"
    },
    {
      "inputs": [
        {
          "internalType": "address",
          "name": "tokenId",
          "type": "address"
        }
      ],
      "name": "getPriceData",
      "outputs": [
        {
          "internalType": "int256",
          "name": "",
          "type": "int256"
        },
        {
          "internalType": "uint80",
          "name": "",
          "type": "uint80"
        }
      ],
      "stateMutability": "view",
      "type": "function"
    },
    {
      "inputs": [],
      "name": "getUsdId",
      "outputs": [
        {
          "internalType": "address",
          "name": "",
          "type": "address"
        }
      ],
      "stateMutability": "view",
      "type": "function"
    },
    {
      "inputs": [],
      "name": "owner",
      "outputs": [
        {
          "internalType": "address",
          "name": "",
          "type": "address"
        }
      ],
      "stateMutability": "view",
      "type": "function"
    },
    {
      "inputs": [],
      "name": "pendingOwner",
      "outputs": [
        {
          "internalType": "address",
          "name": "",
          "type": "address"
        }
      ],
      "stateMutability": "view",
      "type": "function"
    },
    {
      "inputs": [],
      "name": "renounceOwnership",
      "outputs": [],
      "stateMutability": "nonpayable",
      "type": "function"
    },
    {
      "inputs": [
        {
          "internalType": "address",
          "name": "newOwner",
          "type": "address"
        }
      ],
      "name": "transferOwnership",
      "outputs": [],
      "stateMutability": "nonpayable",
      "type": "function"
    }
  ],
  "bytecode": "0x608060405234801561001057600080fd5b5061001a3361001f565b61008b565b600180546001600160a01b03191690556100388161003b565b50565b600080546001600160a01b038381166001600160a01b0319831681178455604051919092169283917f8be0079c531659141344cd1fd0a4f28419497f9722a3daafe3b4186f6b6457e09190a35050565b6107ac8061009a6000396000f3fe608060405234801561001057600080fd5b50600436106100c95760003560e01c806379ba509711610081578063e30c39781161005b578063e30c397814610195578063f2fde38b146101a6578063ff228df7146101b957600080fd5b806379ba5097146101695780638d1aea03146101715780638da5cb5b1461018457600080fd5b8063715018a6116100b2578063715018a61461010957806372279ba114610111578063725011461461014457600080fd5b80633b2a9f3f146100ce57806359cd8e0a146100e3575b600080fd5b6100e16100dc366004610611565b6101cc565b005b6100f66100f136600461062c565b61020c565b6040519081526020015b60405180910390f35b6100e1610248565b61012461011f366004610611565b61025c565b6040805192835269ffffffffffffffffffff909116602083015201610100565b6002546001600160a01b03165b6040516001600160a01b039091168152602001610100565b6100e16103a5565b6100f661017f366004610668565b610433565b6000546001600160a01b0316610151565b6001546001600160a01b0316610151565b6100e16101b4366004610611565b610457565b6100e16101c7366004610692565b6104c8565b6101d4610537565b600280546001600160a01b039092166001600160a01b0319928316811790915560008181526003602052604090208054909216179055565b6000806102188561025c565b50905060006102268561025c565b5090508061023485846106c5565b61023e91906106ea565b9695505050505050565b610250610537565b61025a6000610591565b565b6001600160a01b0381811660009081526003602052604081205490918291166102c1576040517ff33b8d6c0000000000000000000000000000000000000000000000000000000081526001600160a01b03841660048201526024015b60405180910390fd5b6001600160a01b038084166000908152600360205260408082205481517ffeaf968c00000000000000000000000000000000000000000000000000000000815291519316928291849163feaf968c9160048082019260a0929091908290030181865afa158015610335573d6000803e3d6000fd5b505050506040513d601f19601f820116820180604052508101906103599190610726565b945050509250508160000361039a576040517f1f86e17000000000000000000000000000000000000000000000000000000000815260040160405180910390fd5b909590945092505050565b60015433906001600160a01b031681146104275760405162461bcd60e51b815260206004820152602960248201527f4f776e61626c6532537465703a2063616c6c6572206973206e6f74207468652060448201527f6e6577206f776e6572000000000000000000000000000000000000000000000060648201526084016102b8565b61043081610591565b50565b60025460009061044e9084906001600160a01b03168461020c565b90505b92915050565b61045f610537565b600180546001600160a01b0383166001600160a01b031990911681179091556104906000546001600160a01b031690565b6001600160a01b03167f38d16b8cac22d99fc7c124b9cd0de2d3fa1faef420bfe791d8c362d765e2270060405160405180910390a350565b6104d0610537565b6001600160a01b0382811660008181526003602090815260409182902080546001600160a01b0319169486169485179055905192835290917fe263805b03657ab13064915d0723c5ce14981547e7cba5283f66b9e5d81f6e6e910160405180910390a25050565b6000546001600160a01b0316331461025a5760405162461bcd60e51b815260206004820181905260248201527f4f776e61626c653a2063616c6c6572206973206e6f7420746865206f776e657260448201526064016102b8565b600180546001600160a01b031916905561043081600080546001600160a01b038381166001600160a01b0319831681178455604051919092169283917f8be0079c531659141344cd1fd0a4f28419497f9722a3daafe3b4186f6b6457e09190a35050565b80356001600160a01b038116811461060c57600080fd5b919050565b60006020828403121561062357600080fd5b61044e826105f5565b60008060006060848603121561064157600080fd5b61064a846105f5565b9250610658602085016105f5565b9150604084013590509250925092565b6000806040838503121561067b57600080fd5b610684836105f5565b946020939093013593505050565b600080604083850312156106a557600080fd5b6106ae836105f5565b91506106bc602084016105f5565b90509250929050565b808202811582820484141761045157634e487b7160e01b600052601160045260246000fd5b60008261070757634e487b7160e01b600052601260045260246000fd5b500490565b805169ffffffffffffffffffff8116811461060c57600080fd5b600080600080600060a0868803121561073e57600080fd5b6107478661070c565b945060208601519350604086015192506060860151915061076a6080870161070c565b9050929550929590935056fea264697066735822122085219b942de10b16cab1dacc51e12a4438b9f35a79e816c5bca2f2ed423b43e464736f6c63430008180033",
  "linkReferences": {},
  "deployedLinkReferences": {}
}