{
  "_format": "hh-sol-artifact-1",
  "contractName": "Electron",
  "sourceName": "contracts/core/Electron.sol",
  "abi": [
    {
      "inputs": [
        {
          "internalType": "address",
          "name": "pools",
          "type": "address"
        },
        {
          "internalType": "address",
          "name": "dataFeed",
          "type": "address"
        },
        {
          "internalType": "address",
          "name": "verifier",
          "type": "address"
        }
      ],
      "stateMutability": "nonpayable",
      "type": "constructor"
    },
    {
      "inputs": [],
      "name": "HasPendingLoan",
      "type": "error"
    },
    {
      "inputs": [],
      "name": "HasPosition",
      "type": "error"
    },
    {
      "inputs": [],
      "name": "InvalidProof",
      "type": "error"
    },
    {
      "anonymous": false,
      "inputs": [
        {
          "indexed": false,
          "internalType": "uint256",
          "name": "poolId",
          "type": "uint256"
        },
        {
          "indexed": false,
          "internalType": "address",
          "name": "account",
          "type": "address"
        },
        {
          "indexed": false,
          "internalType": "enum Data.State",
          "name": "state",
          "type": "uint8"
        },
        {
          "indexed": false,
          "internalType": "uint256",
          "name": "repaidDate",
          "type": "uint256"
        }
      ],
      "name": "CloseLoan",
      "type": "event"
    },
    {
      "anonymous": false,
      "inputs": [
        {
          "indexed": false,
          "internalType": "uint256",
          "name": "poolId",
          "type": "uint256"
        },
        {
          "indexed": false,
          "internalType": "address",
          "name": "account",
          "type": "address"
        }
      ],
      "name": "ClosePosition",
      "type": "event"
    },
    {
      "anonymous": false,
      "inputs": [
        {
          "indexed": false,
          "internalType": "uint256",
          "name": "poolId",
          "type": "uint256"
        },
        {
          "indexed": false,
          "internalType": "address",
          "name": "account",
          "type": "address"
        },
        {
          "indexed": false,
          "internalType": "uint256",
          "name": "principal",
          "type": "uint256"
        },
        {
          "indexed": false,
          "internalType": "uint256",
          "name": "collateral",
          "type": "uint256"
        },
        {
          "indexed": false,
          "internalType": "enum Data.State",
          "name": "state",
          "type": "uint8"
        },
        {
          "indexed": false,
          "internalType": "uint256",
          "name": "startDate",
          "type": "uint256"
        }
      ],
      "name": "NewLoan",
      "type": "event"
    },
    {
      "anonymous": false,
      "inputs": [
        {
          "indexed": false,
          "internalType": "uint256",
          "name": "poolId",
          "type": "uint256"
        },
        {
          "indexed": false,
          "internalType": "address",
          "name": "principalId",
          "type": "address"
        },
        {
          "indexed": false,
          "internalType": "address",
          "name": "collateralId",
          "type": "address"
        },
        {
          "indexed": false,
          "internalType": "uint256",
          "name": "totalSupplied",
          "type": "uint256"
        },
        {
          "indexed": false,
          "internalType": "uint256",
          "name": "totalBorrowed",
          "type": "uint256"
        },
        {
          "indexed": false,
          "internalType": "uint256",
          "name": "interest",
          "type": "uint256"
        }
      ],
      "name": "NewPool",
      "type": "event"
    },
    {
      "anonymous": false,
      "inputs": [
        {
          "indexed": false,
          "internalType": "uint256",
          "name": "poolId",
          "type": "uint256"
        },
        {
          "indexed": false,
          "internalType": "address",
          "name": "account",
          "type": "address"
        },
        {
          "indexed": false,
          "internalType": "uint256",
          "name": "collateral",
          "type": "uint256"
        },
        {
          "indexed": false,
          "internalType": "uint256",
          "name": "startDate",
          "type": "uint256"
        }
      ],
      "name": "NewPosition",
      "type": "event"
    },
    {
      "anonymous": false,
      "inputs": [
        {
          "indexed": true,
          "internalType": "address",
          "name": "previousOwner",
          "type": "address"
        },
        {
          "indexed": true,
          "internalType": "address",
          "name": "newOwner",
          "type": "address"
        }
      ],
      "name": "OwnershipTransferStarted",
      "type": "event"
    },
    {
      "anonymous": false,
      "inputs": [
        {
          "indexed": true,
          "internalType": "address",
          "name": "previousOwner",
          "type": "address"
        },
        {
          "indexed": true,
          "internalType": "address",
          "name": "newOwner",
          "type": "address"
        }
      ],
      "name": "OwnershipTransferred",
      "type": "event"
    },
    {
      "inputs": [],
      "name": "acceptOwnership",
      "outputs": [],
      "stateMutability": "nonpayable",
      "type": "function"
    },
    {
      "inputs": [
        {
          "internalType": "uint256",
          "name": "poolId",
          "type": "uint256"
        },
        {
          "components": [
            {
              "internalType": "bytes32",
              "name": "proofId",
              "type": "bytes32"
            },
            {
              "internalType": "bytes32[]",
              "name": "pubInputs",
              "type": "bytes32[]"
            },
            {
              "internalType": "bytes",
              "name": "data",
              "type": "bytes"
            }
          ],
          "internalType": "struct Data.Proof[]",
          "name": "proofs",
          "type": "tuple[]"
        }
      ],
      "name": "borrow",
      "outputs": [],
      "stateMutability": "nonpayable",
      "type": "function"
    },
    {
      "inputs": [
        {
          "components": [
            {
              "internalType": "bytes32",
              "name": "proofId",
              "type": "bytes32"
            },
            {
              "internalType": "bytes32[]",
              "name": "pubInputs",
              "type": "bytes32[]"
            },
            {
              "internalType": "bytes",
              "name": "data",
              "type": "bytes"
            }
          ],
          "internalType": "struct Data.Proof[]",
          "name": "proofs",
          "type": "tuple[]"
        }
      ],
      "name": "calculateLtv",
      "outputs": [
        {
          "internalType": "uint256",
          "name": "",
          "type": "uint256"
        }
      ],
      "stateMutability": "view",
      "type": "function"
    },
    {
      "inputs": [
        {
          "components": [
            {
              "internalType": "address",
              "name": "principalId",
              "type": "address"
            },
            {
              "internalType": "address",
              "name": "collateralId",
              "type": "address"
            },
            {
              "internalType": "uint256",
              "name": "totalSupplied",
              "type": "uint256"
            },
            {
              "internalType": "uint256",
              "name": "totalBorrowed",
              "type": "uint256"
            },
            {
              "internalType": "uint256",
              "name": "interest",
              "type": "uint256"
            }
          ],
          "internalType": "struct Data.Pool",
          "name": "pool",
          "type": "tuple"
        }
      ],
      "name": "newPool",
      "outputs": [],
      "stateMutability": "nonpayable",
      "type": "function"
    },
    {
      "inputs": [],
      "name": "owner",
      "outputs": [
        {
          "internalType": "address",
          "name": "",
          "type": "address"
        }
      ],
      "stateMutability": "view",
      "type": "function"
    },
    {
      "inputs": [],
      "name": "pendingOwner",
      "outputs": [
        {
          "internalType": "address",
          "name": "",
          "type": "address"
        }
      ],
      "stateMutability": "view",
      "type": "function"
    },
    {
      "inputs": [],
      "name": "renounceOwnership",
      "outputs": [],
      "stateMutability": "nonpayable",
      "type": "function"
    },
    {
      "inputs": [
        {
          "internalType": "uint256",
          "name": "poolId",
          "type": "uint256"
        }
      ],
      "name": "repay",
      "outputs": [],
      "stateMutability": "nonpayable",
      "type": "function"
    },
    {
      "inputs": [
        {
          "internalType": "uint256",
          "name": "poolId",
          "type": "uint256"
        },
        {
          "internalType": "uint256",
          "name": "collateral",
          "type": "uint256"
        }
      ],
      "name": "supply",
      "outputs": [],
      "stateMutability": "nonpayable",
      "type": "function"
    },
    {
      "inputs": [
        {
          "internalType": "address",
          "name": "newOwner",
          "type": "address"
        }
      ],
      "name": "transferOwnership",
      "outputs": [],
      "stateMutability": "nonpayable",
      "type": "function"
    },
    {
      "inputs": [
        {
          "internalType": "uint256",
          "name": "poolId",
          "type": "uint256"
        }
      ],
      "name": "withdraw",
      "outputs": [],
      "stateMutability": "nonpayable",
      "type": "function"
    },
    {
      "inputs": [
        {
          "internalType": "address",
          "name": "tokenId",
          "type": "address"
        },
        {
          "internalType": "uint256",
          "name": "amount",
          "type": "uint256"
        }
      ],
      "name": "withdrawTokens",
      "outputs": [],
      "stateMutability": "nonpayable",
      "type": "function"
    }
  ],
  "bytecode": "0x60806040523480156200001157600080fd5b5060405162001ffc38038062001ffc83398101604081905262000034916200010d565b6200003f3362000082565b600280546001600160a01b039485166001600160a01b03199182161790915560038054938516938216939093179092556004805491909316911617905562000157565b600180546001600160a01b03191690556200009d81620000a0565b50565b600080546001600160a01b038381166001600160a01b0319831681178455604051919092169283917f8be0079c531659141344cd1fd0a4f28419497f9722a3daafe3b4186f6b6457e09190a35050565b80516001600160a01b03811681146200010857600080fd5b919050565b6000806000606084860312156200012357600080fd5b6200012e84620000f0565b92506200013e60208501620000f0565b91506200014e60408501620000f0565b90509250925092565b611e9580620001676000396000f3fe608060405234801561001057600080fd5b50600436106100d45760003560e01c80638da5cb5b11610081578063e30c39781161005b578063e30c397814610195578063f2fde38b146101a6578063f37a334e146101b957600080fd5b80638da5cb5b14610137578063d62df8e114610161578063daecfa6c1461018257600080fd5b80634a2d39fd116100b25780634a2d39fd14610114578063715018a61461012757806379ba50971461012f57600080fd5b806306b091f9146100d95780632e1a7d4d146100ee578063371fd8e614610101575b600080fd5b6100ec6100e73660046116d6565b6101cc565b005b6100ec6100fc366004611702565b6101ee565b6100ec61010f366004611702565b610467565b6100ec610122366004611990565b61070d565b6100ec610cd3565b6100ec610ce7565b6000546001600160a01b03165b6040516001600160a01b0390911681526020015b60405180910390f35b61017461016f3660046119d7565b610d7a565b604051908152602001610158565b6100ec610190366004611a0c565b610e5d565b6001546001600160a01b0316610144565b6100ec6101b4366004611a2e565b61108c565b6100ec6101c7366004611a52565b61110a565b6101d4611255565b336101e96001600160a01b03841682846112af565b505050565b60003360025460405163035adad960e11b8152600481018590526001600160a01b038084166024830152929350600092909116906306b5b5b290604401602060405180830381865afa158015610248573d6000803e3d6000fd5b505050506040513d601f19601f8201168201806040525081019061026c9190611acb565b9050801561028d57604051636a51e83560e01b815260040160405180910390fd5b60025460405163d29f541d60e01b8152600481018590526001600160a01b038481166024830152600092169063d29f541d90604401606060405180830381865afa1580156102df573d6000803e3d6000fd5b505050506040513d601f19601f820116820180604052508101906103039190611ae6565b60025460405163068bcd8d60e01b8152600481018790529192506000916001600160a01b039091169063068bcd8d9060240160a060405180830381865afa158015610352573d6000803e3d6000fd5b505050506040513d601f19601f820116820180604052508101906103769190611b22565b905061039e84836020015183602001516001600160a01b03166112af9092919063ffffffff16565b6002546040517fb5e0ecac000000000000000000000000000000000000000000000000000000008152600481018790526001600160a01b0386811660248301529091169063b5e0ecac90604401600060405180830381600087803b15801561040557600080fd5b505af1158015610419573d6000803e3d6000fd5b5050604080518881526001600160a01b03881660208201527fd166759110875e7043f195882c2c5c5ae3e22d3bed496bb1da5b0a6efc1bbad693500190505b60405180910390a15050505050565b6000336002546040517fc50a74a6000000000000000000000000000000000000000000000000000000008152600481018590526001600160a01b0380841660248301529293506000929091169063c50a74a69060440160c060405180830381865afa1580156104da573d6000803e3d6000fd5b505050506040513d601f19601f820116820180604052508101906104fe9190611b86565b60025460405163068bcd8d60e01b8152600481018690529192506000916001600160a01b039091169063068bcd8d9060240160a060405180830381865afa15801561054d573d6000803e3d6000fd5b505050506040513d601f19601f820116820180604052508101906105719190611b22565b6002546040848101516080808701519085015192517f745052c00000000000000000000000000000000000000000000000000000000081526004810192909252602482015260448101919091529192506000916001600160a01b039091169063745052c090606401602060405180830381865afa1580156105f6573d6000803e3d6000fd5b505050506040513d601f19601f8201168201806040525081019061061a9190611c0d565b9050600081846040015161062e9190611c3c565b8351909150610648906001600160a01b0316863084611358565b6002546040517f7e8400b2000000000000000000000000000000000000000000000000000000008152600481018890526001600160a01b03878116602483015290911690637e8400b290604401600060405180830381600087803b1580156106af57600080fd5b505af11580156106c3573d6000803e3d6000fd5b505050507f7a4047df4390948a7d14564207014a9b5502a5129a2166cc9613080ae948e44786866002426040516106fd9493929190611c77565b60405180910390a1505050505050565b60003360025460405163035adad960e11b8152600481018690526001600160a01b038084166024830152929350600092909116906306b5b5b290604401602060405180830381865afa158015610767573d6000803e3d6000fd5b505050506040513d601f19601f8201168201806040525081019061078b9190611acb565b905080156107ac57604051636a51e83560e01b815260040160405180910390fd5b60025460405163d29f541d60e01b8152600481018690526001600160a01b038481166024830152600092169063d29f541d90604401606060405180830381865afa1580156107fe573d6000803e3d6000fd5b505050506040513d601f19601f820116820180604052508101906108229190611ae6565b60025460405163068bcd8d60e01b8152600481018890529192506000916001600160a01b039091169063068bcd8d9060240160a060405180830381865afa158015610871573d6000803e3d6000fd5b505050506040513d601f19601f820116820180604052508101906108959190611b22565b9050604660005b865181101561096f57600454875160009182916001600160a01b039091169063ccc9ebb2908b90869081106108d3576108d3611ca9565b60200260200101516040518263ffffffff1660e01b81526004016108f79190611d0f565b6040805180830381865afa158015610913573d6000803e3d6000fd5b505050506040513d601f19601f820116820180604052508101906109379190611d7b565b9150915081610959576040516309bde33960e01b815260040160405180910390fd5b6109638185611db8565b9350505060010161089c565b50600354602080840151908501516040517f8d1aea030000000000000000000000000000000000000000000000000000000081526000936001600160a01b031692638d1aea03926109d6926004016001600160a01b03929092168252602082015260400190565b6020604051808303816000875af11580156109f5573d6000803e3d6000fd5b505050506040513d601f19601f82011682018060405250810190610a199190611c0d565b6002546040517f3a2e89a10000000000000000000000000000000000000000000000000000000081526004810183905260ff851660248201529192506000916001600160a01b0390911690633a2e89a190604401602060405180830381865afa158015610a8a573d6000803e3d6000fd5b505050506040513d601f19601f82011682018060405250810190610aae9190611c0d565b600354604080517f7250114600000000000000000000000000000000000000000000000000000000815290519293506000926001600160a01b03909216916359cd8e0a9183916372501146916004808201926020929091908290030181865afa158015610b1f573d6000803e3d6000fd5b505050506040513d601f19601f82011682018060405250810190610b439190611dd1565b875160405160e084901b7fffffffff000000000000000000000000000000000000000000000000000000001681526001600160a01b03928316600482015291166024820152604481018590526064016020604051808303816000875af1158015610bb1573d6000803e3d6000fd5b505050506040513d601f19601f82011682018060405250810190610bd59190611c0d565b8551909150610bee906001600160a01b031689836112af565b60025460208701516040517fd14a3321000000000000000000000000000000000000000000000000000000008152600481018d90526024810184905260448101919091526001600160a01b038a811660648301529091169063d14a332190608401600060405180830381600087803b158015610c6957600080fd5b505af1158015610c7d573d6000803e3d6000fd5b505050507f65f8d22b590e3bf673a47cd6551478a7e8db9e75aa0371dddd417f99a86465c18a89838960200151600142604051610cbf96959493929190611dee565b60405180910390a150505050505050505050565b610cdb611255565b610ce560006113af565b565b60015433906001600160a01b03168114610d6e5760405162461bcd60e51b815260206004820152602960248201527f4f776e61626c6532537465703a2063616c6c6572206973206e6f74207468652060448201527f6e6577206f776e6572000000000000000000000000000000000000000000000060648201526084015b60405180910390fd5b610d77816113af565b50565b60006046815b8351811015610e5357600454845160009182916001600160a01b039091169063ccc9ebb290889086908110610db757610db7611ca9565b60200260200101516040518263ffffffff1660e01b8152600401610ddb9190611d0f565b6040805180830381865afa158015610df7573d6000803e3d6000fd5b505050506040513d601f19601f82011682018060405250810190610e1b9190611d7b565b9150915081610e3d576040516309bde33960e01b815260040160405180910390fd5b610e478185611db8565b93505050600101610d80565b5060ff1692915050565b60003360025460405163068bcd8d60e01b8152600481018690529192506000916001600160a01b039091169063068bcd8d9060240160a060405180830381865afa158015610eaf573d6000803e3d6000fd5b505050506040513d601f19601f82011682018060405250810190610ed39190611b22565b6020810151909150610ef0906001600160a01b0316833086611358565b6002546040517f66adc53e000000000000000000000000000000000000000000000000000000008152600481018690526001600160a01b03848116602483015260009216906366adc53e90604401602060405180830381865afa158015610f5b573d6000803e3d6000fd5b505050506040513d601f19601f82011682018060405250810190610f7f9190611acb565b90508015610fb9576040517f4aa8d56000000000000000000000000000000000000000000000000000000000815260040160405180910390fd5b6002546040517f651ab22a00000000000000000000000000000000000000000000000000000000815260048101879052602481018690526001600160a01b0385811660448301529091169063651ab22a90606401600060405180830381600087803b15801561102757600080fd5b505af115801561103b573d6000803e3d6000fd5b5050604080518881526001600160a01b03871660208201529081018790524260608201527f391d46f537d2346cb49c6008e8336fc51205544e56b22738787ab0c791c83f7692506080019050610458565b611094611255565b600180546001600160a01b03831673ffffffffffffffffffffffffffffffffffffffff1990911681179091556110d26000546001600160a01b031690565b6001600160a01b03167f38d16b8cac22d99fc7c124b9cd0de2d3fa1faef420bfe791d8c362d765e2270060405160405180910390a350565b611112611255565b600254604080517f5a18ef4400000000000000000000000000000000000000000000000000000000815283516001600160a01b03908116600483015260208501518116602483015291840151604482015260608401516064820152608084015160848201526000929190911690635a18ef449060a4016020604051808303816000875af11580156111a7573d6000803e3d6000fd5b505050506040513d601f19601f820116820180604052508101906111cb9190611c0d565b90507f111d0e3eb9c30e3e69f6efd6e0e267be48ce8ea8d64bb49bed00ee5a5f22a2838183600001518460200151856040015186606001518760800151604051611249969594939291909586526001600160a01b0394851660208701529290931660408501526060840152608083019190915260a082015260c00190565b60405180910390a15050565b6000546001600160a01b03163314610ce55760405162461bcd60e51b815260206004820181905260248201527f4f776e61626c653a2063616c6c6572206973206e6f7420746865206f776e65726044820152606401610d65565b6040516001600160a01b0383166024820152604481018290526101e99084907fa9059cbb00000000000000000000000000000000000000000000000000000000906064015b60408051601f198184030181529190526020810180517bffffffffffffffffffffffffffffffffffffffffffffffffffffffff167fffffffff00000000000000000000000000000000000000000000000000000000909316929092179091526113d5565b6040516001600160a01b03808516602483015283166044820152606481018290526113a99085907f23b872dd00000000000000000000000000000000000000000000000000000000906084016112f4565b50505050565b6001805473ffffffffffffffffffffffffffffffffffffffff19169055610d77816114bd565b600061142a826040518060400160405280602081526020017f5361666545524332303a206c6f772d6c6576656c2063616c6c206661696c6564815250856001600160a01b031661151a9092919063ffffffff16565b905080516000148061144b57508080602001905181019061144b9190611acb565b6101e95760405162461bcd60e51b815260206004820152602a60248201527f5361666545524332303a204552433230206f7065726174696f6e20646964206e60448201527f6f742073756363656564000000000000000000000000000000000000000000006064820152608401610d65565b600080546001600160a01b0383811673ffffffffffffffffffffffffffffffffffffffff19831681178455604051919092169283917f8be0079c531659141344cd1fd0a4f28419497f9722a3daafe3b4186f6b6457e09190a35050565b60606115298484600085611531565b949350505050565b6060824710156115a95760405162461bcd60e51b815260206004820152602660248201527f416464726573733a20696e73756666696369656e742062616c616e636520666f60448201527f722063616c6c00000000000000000000000000000000000000000000000000006064820152608401610d65565b600080866001600160a01b031685876040516115c59190611e30565b60006040518083038185875af1925050503d8060008114611602576040519150601f19603f3d011682016040523d82523d6000602084013e611607565b606091505b509150915061161887838387611623565b979650505050505050565b6060831561169257825160000361168b576001600160a01b0385163b61168b5760405162461bcd60e51b815260206004820152601d60248201527f416464726573733a2063616c6c20746f206e6f6e2d636f6e74726163740000006044820152606401610d65565b5081611529565b61152983838151156116a75781518083602001fd5b8060405162461bcd60e51b8152600401610d659190611e4c565b6001600160a01b0381168114610d7757600080fd5b600080604083850312156116e957600080fd5b82356116f4816116c1565b946020939093013593505050565b60006020828403121561171457600080fd5b5035919050565b634e487b7160e01b600052604160045260246000fd5b6040516060810167ffffffffffffffff811182821017156117545761175461171b565b60405290565b60405160a0810167ffffffffffffffff811182821017156117545761175461171b565b604051601f8201601f1916810167ffffffffffffffff811182821017156117a6576117a661171b565b604052919050565b600067ffffffffffffffff8211156117c8576117c861171b565b5060051b60200190565b600082601f8301126117e357600080fd5b813567ffffffffffffffff8111156117fd576117fd61171b565b611810601f8201601f191660200161177d565b81815284602083860101111561182557600080fd5b816020850160208301376000918101602001919091529392505050565b600082601f83011261185357600080fd5b81356020611868611863836117ae565b61177d565b82815260059290921b8401810191818101908684111561188757600080fd5b8286015b8481101561198557803567ffffffffffffffff808211156118ab57600080fd5b908801906060828b03601f190112156118c45760008081fd5b6118cc611731565b868301358152604080840135838111156118e65760008081fd5b8401603f81018d136118f85760008081fd5b88810135611908611863826117ae565b81815260059190911b82018301908a8101908f8311156119285760008081fd5b928401925b828410156119465783358252928b0192908b019061192d565b858c01525050506060840135838111156119605760008081fd5b61196e8d8a838801016117d2565b91830191909152508552505091830191830161188b565b509695505050505050565b600080604083850312156119a357600080fd5b82359150602083013567ffffffffffffffff8111156119c157600080fd5b6119cd85828601611842565b9150509250929050565b6000602082840312156119e957600080fd5b813567ffffffffffffffff811115611a0057600080fd5b61152984828501611842565b60008060408385031215611a1f57600080fd5b50508035926020909101359150565b600060208284031215611a4057600080fd5b8135611a4b816116c1565b9392505050565b600060a08284031215611a6457600080fd5b611a6c61175a565b8235611a77816116c1565b81526020830135611a87816116c1565b806020830152506040830135604082015260608301356060820152608083013560808201528091505092915050565b80518015158114611ac657600080fd5b919050565b600060208284031215611add57600080fd5b611a4b82611ab6565b600060608284031215611af857600080fd5b611b00611731565b8251815260208301516020820152604083015160408201528091505092915050565b600060a08284031215611b3457600080fd5b611b3c61175a565b8251611b47816116c1565b81526020830151611b57816116c1565b806020830152506040830151604082015260608301516060820152608083015160808201528091505092915050565b600060c08284031215611b9857600080fd5b60405160c0810181811067ffffffffffffffff82111715611bbb57611bbb61171b565b60405282518152602083015160048110611bd457600080fd5b8060208301525060408301516040820152606083015160608201526080830151608082015260a083015160a08201528091505092915050565b600060208284031215611c1f57600080fd5b5051919050565b634e487b7160e01b600052601160045260246000fd5b80820180821115611c4f57611c4f611c26565b92915050565b60048110611c7357634e487b7160e01b600052602160045260246000fd5b9052565b8481526001600160a01b038416602082015260808101611c9a6040830185611c55565b82606083015295945050505050565b634e487b7160e01b600052603260045260246000fd5b60005b83811015611cda578181015183820152602001611cc2565b50506000910152565b60008151808452611cfb816020860160208601611cbf565b601f01601f19169290920160200192915050565b6020808252825182820152828101516060604084015280516080840181905260009291820190839060a08601905b80831015611d5d5783518252928401926001929092019190840190611d3d565b506040870151868203601f1901606088015293506116188185611ce3565b60008060408385031215611d8e57600080fd5b611d9783611ab6565b9150602083015160ff81168114611dad57600080fd5b809150509250929050565b60ff8181168382160190811115611c4f57611c4f611c26565b600060208284031215611de357600080fd5b8151611a4b816116c1565b8681526001600160a01b0386166020820152604081018590526060810184905260c08101611e1f6080830185611c55565b8260a0830152979650505050505050565b60008251611e42818460208701611cbf565b9190910192915050565b602081526000611a4b6020830184611ce356fea2646970667358221220f225a2560da18635e7e24812a234f456c4d186222b87c5335d7e665b67b3181b64736f6c63430008180033",
  "linkReferences": {},
  "deployedLinkReferences": {}
}