{
  "_format": "hh-sol-artifact-1",
  "contractName": "Pools",
  "sourceName": "contracts/core/Pools.sol",
  "abi": [
    {
      "inputs": [],
      "stateMutability": "nonpayable",
      "type": "constructor"
    },
    {
      "anonymous": false,
      "inputs": [
        {
          "indexed": true,
          "internalType": "address",
          "name": "previousOwner",
          "type": "address"
        },
        {
          "indexed": true,
          "internalType": "address",
          "name": "newOwner",
          "type": "address"
        }
      ],
      "name": "OwnershipTransferStarted",
      "type": "event"
    },
    {
      "anonymous": false,
      "inputs": [
        {
          "indexed": true,
          "internalType": "address",
          "name": "previousOwner",
          "type": "address"
        },
        {
          "indexed": true,
          "internalType": "address",
          "name": "newOwner",
          "type": "address"
        }
      ],
      "name": "OwnershipTransferred",
      "type": "event"
    },
    {
      "inputs": [],
      "name": "INTEREST_RATE_DENOMINATOR",
      "outputs": [
        {
          "internalType": "uint256",
          "name": "",
          "type": "uint256"
        }
      ],
      "stateMutability": "view",
      "type": "function"
    },
    {
      "inputs": [],
      "name": "PERCENT",
      "outputs": [
        {
          "internalType": "uint16",
          "name": "",
          "type": "uint16"
        }
      ],
      "stateMutability": "view",
      "type": "function"
    },
    {
      "inputs": [],
      "name": "acceptOwnership",
      "outputs": [],
      "stateMutability": "nonpayable",
      "type": "function"
    },
    {
      "inputs": [
        {
          "internalType": "uint256",
          "name": "principal",
          "type": "uint256"
        },
        {
          "internalType": "uint256",
          "name": "startDate",
          "type": "uint256"
        },
        {
          "internalType": "uint256",
          "name": "interest",
          "type": "uint256"
        }
      ],
      "name": "calculateRewards",
      "outputs": [
        {
          "internalType": "uint256",
          "name": "",
          "type": "uint256"
        }
      ],
      "stateMutability": "view",
      "type": "function"
    },
    {
      "inputs": [
        {
          "internalType": "uint256",
          "name": "poolId",
          "type": "uint256"
        },
        {
          "internalType": "address",
          "name": "account",
          "type": "address"
        }
      ],
      "name": "closeLoan",
      "outputs": [],
      "stateMutability": "nonpayable",
      "type": "function"
    },
    {
      "inputs": [
        {
          "internalType": "uint256",
          "name": "poolId",
          "type": "uint256"
        },
        {
          "internalType": "address",
          "name": "account",
          "type": "address"
        }
      ],
      "name": "closePosition",
      "outputs": [],
      "stateMutability": "nonpayable",
      "type": "function"
    },
    {
      "inputs": [
        {
          "internalType": "uint256",
          "name": "poolId",
          "type": "uint256"
        },
        {
          "internalType": "uint256",
          "name": "principal",
          "type": "uint256"
        },
        {
          "internalType": "uint256",
          "name": "collateral",
          "type": "uint256"
        },
        {
          "internalType": "address",
          "name": "account",
          "type": "address"
        }
      ],
      "name": "createLoan",
      "outputs": [],
      "stateMutability": "nonpayable",
      "type": "function"
    },
    {
      "inputs": [
        {
          "components": [
            {
              "internalType": "address",
              "name": "principalId",
              "type": "address"
            },
            {
              "internalType": "address",
              "name": "collateralId",
              "type": "address"
            },
            {
              "internalType": "uint256",
              "name": "totalSupplied",
              "type": "uint256"
            },
            {
              "internalType": "uint256",
              "name": "totalBorrowed",
              "type": "uint256"
            },
            {
              "internalType": "uint256",
              "name": "interest",
              "type": "uint256"
            }
          ],
          "internalType": "struct Data.Pool",
          "name": "pool",
          "type": "tuple"
        }
      ],
      "name": "createPool",
      "outputs": [
        {
          "internalType": "uint256",
          "name": "",
          "type": "uint256"
        }
      ],
      "stateMutability": "nonpayable",
      "type": "function"
    },
    {
      "inputs": [
        {
          "internalType": "uint256",
          "name": "poolId",
          "type": "uint256"
        },
        {
          "internalType": "uint256",
          "name": "collateral",
          "type": "uint256"
        },
        {
          "internalType": "address",
          "name": "account",
          "type": "address"
        }
      ],
      "name": "createPosition",
      "outputs": [],
      "stateMutability": "nonpayable",
      "type": "function"
    },
    {
      "inputs": [
        {
          "internalType": "uint256",
          "name": "poolId",
          "type": "uint256"
        },
        {
          "internalType": "address",
          "name": "account",
          "type": "address"
        }
      ],
      "name": "getLoan",
      "outputs": [
        {
          "components": [
            {
              "internalType": "uint256",
              "name": "poolId",
              "type": "uint256"
            },
            {
              "internalType": "enum Data.State",
              "name": "state",
              "type": "uint8"
            },
            {
              "internalType": "uint256",
              "name": "principal",
              "type": "uint256"
            },
            {
              "internalType": "uint256",
              "name": "collateral",
              "type": "uint256"
            },
            {
              "internalType": "uint256",
              "name": "startDate",
              "type": "uint256"
            },
            {
              "internalType": "uint256",
              "name": "repaidDate",
              "type": "uint256"
            }
          ],
          "internalType": "struct Data.Loan",
          "name": "",
          "type": "tuple"
        }
      ],
      "stateMutability": "view",
      "type": "function"
    },
    {
      "inputs": [
        {
          "internalType": "uint256",
          "name": "poolId",
          "type": "uint256"
        }
      ],
      "name": "getPool",
      "outputs": [
        {
          "components": [
            {
              "internalType": "address",
              "name": "principalId",
              "type": "address"
            },
            {
              "internalType": "address",
              "name": "collateralId",
              "type": "address"
            },
            {
              "internalType": "uint256",
              "name": "totalSupplied",
              "type": "uint256"
            },
            {
              "internalType": "uint256",
              "name": "totalBorrowed",
              "type": "uint256"
            },
            {
              "internalType": "uint256",
              "name": "interest",
              "type": "uint256"
            }
          ],
          "internalType": "struct Data.Pool",
          "name": "",
          "type": "tuple"
        }
      ],
      "stateMutability": "view",
      "type": "function"
    },
    {
      "inputs": [
        {
          "internalType": "uint256",
          "name": "poolId",
          "type": "uint256"
        },
        {
          "internalType": "address",
          "name": "account",
          "type": "address"
        }
      ],
      "name": "getPosition",
      "outputs": [
        {
          "components": [
            {
              "internalType": "uint256",
              "name": "poolId",
              "type": "uint256"
            },
            {
              "internalType": "uint256",
              "name": "collateral",
              "type": "uint256"
            },
            {
              "internalType": "uint256",
              "name": "startDate",
              "type": "uint256"
            }
          ],
          "internalType": "struct Data.Position",
          "name": "",
          "type": "tuple"
        }
      ],
      "stateMutability": "view",
      "type": "function"
    },
    {
      "inputs": [
        {
          "internalType": "uint256",
          "name": "collateralInUsd",
          "type": "uint256"
        },
        {
          "internalType": "uint8",
          "name": "totalLtv",
          "type": "uint8"
        }
      ],
      "name": "getPrincipalInUsd",
      "outputs": [
        {
          "internalType": "uint256",
          "name": "",
          "type": "uint256"
        }
      ],
      "stateMutability": "pure",
      "type": "function"
    },
    {
      "inputs": [
        {
          "internalType": "uint256",
          "name": "poolId",
          "type": "uint256"
        },
        {
          "internalType": "address",
          "name": "account",
          "type": "address"
        }
      ],
      "name": "hasPendingLoan",
      "outputs": [
        {
          "internalType": "bool",
          "name": "",
          "type": "bool"
        }
      ],
      "stateMutability": "view",
      "type": "function"
    },
    {
      "inputs": [
        {
          "internalType": "uint256",
          "name": "poolId",
          "type": "uint256"
        },
        {
          "internalType": "address",
          "name": "account",
          "type": "address"
        }
      ],
      "name": "hasPosition",
      "outputs": [
        {
          "internalType": "bool",
          "name": "",
          "type": "bool"
        }
      ],
      "stateMutability": "view",
      "type": "function"
    },
    {
      "inputs": [
        {
          "internalType": "address",
          "name": "electronId",
          "type": "address"
        }
      ],
      "name": "newElectronId",
      "outputs": [],
      "stateMutability": "nonpayable",
      "type": "function"
    },
    {
      "inputs": [],
      "name": "owner",
      "outputs": [
        {
          "internalType": "address",
          "name": "",
          "type": "address"
        }
      ],
      "stateMutability": "view",
      "type": "function"
    },
    {
      "inputs": [],
      "name": "pendingOwner",
      "outputs": [
        {
          "internalType": "address",
          "name": "",
          "type": "address"
        }
      ],
      "stateMutability": "view",
      "type": "function"
    },
    {
      "inputs": [],
      "name": "renounceOwnership",
      "outputs": [],
      "stateMutability": "nonpayable",
      "type": "function"
    },
    {
      "inputs": [
        {
          "internalType": "address",
          "name": "newOwner",
          "type": "address"
        }
      ],
      "name": "transferOwnership",
      "outputs": [],
      "stateMutability": "nonpayable",
      "type": "function"
    }
  ],
  "bytecode": "0x6080604052600160055534801561001557600080fd5b5061001f33610024565b610090565b600180546001600160a01b031916905561003d81610040565b50565b600080546001600160a01b038381166001600160a01b0319831681178455604051919092169283917f8be0079c531659141344cd1fd0a4f28419497f9722a3daafe3b4186f6b6457e09190a35050565b610fcc8061009f6000396000f3fe608060405234801561001057600080fd5b506004361061016c5760003560e01c80637e8400b2116100cd578063cc3266e811610081578063d29f541d11610066578063d29f541d1461035e578063e30c397814610393578063f2fde38b146103a457600080fd5b8063cc3266e81461033c578063d14a33211461034b57600080fd5b8063b5e0ecac116100b2578063b5e0ecac146102ee578063b85a8b2014610301578063c50a74a61461031c57600080fd5b80637e8400b2146102b65780638da5cb5b146102c957600080fd5b8063651ab22a11610124578063715018a611610109578063715018a614610293578063745052c01461029b57806379ba5097146102ae57600080fd5b8063651ab22a1461024857806366adc53e1461025b57600080fd5b80632d30a5bc116101555780632d30a5bc146101ff5780633a2e89a1146102145780635a18ef441461023557600080fd5b8063068bcd8d1461017157806306b5b5b2146101dc575b600080fd5b61018461017f366004610cba565b6103b7565b6040516101d39190600060a0820190506001600160a01b038084511683528060208501511660208401525060408301516040830152606083015160608301526080830151608083015292915050565b60405180910390f35b6101ef6101ea366004610cea565b610453565b60405190151581526020016101d3565b61021261020d366004610d16565b61049c565b005b610227610222366004610d31565b6104c6565b6040519081526020016101d3565b610227610243366004610d67565b6104d9565b610212610256366004610df1565b6105b2565b6101ef610269366004610cea565b6001600160a01b031660009081526004602090815260408083209383529290522060010154151590565b610212610670565b6102276102a9366004610e26565b610684565b6102126106a7565b6102126102c4366004610cea565b610735565b6000546001600160a01b03165b6040516001600160a01b0390911681526020016101d3565b6102126102fc366004610cea565b61080b565b610309606481565b60405161ffff90911681526020016101d3565b61032f61032a366004610cea565b6108ac565b6040516101d39190610e68565b610227670de0b6b3a764000081565b610212610359366004610ec9565b61097b565b61037161036c366004610cea565b610aa7565b60408051825181526020808401519082015291810151908201526060016101d3565b6001546001600160a01b03166102d6565b6102126103b2366004610d16565b610b16565b6103fb6040518060a0016040528060006001600160a01b0316815260200160006001600160a01b031681526020016000815260200160008152602001600081525090565b50600090815260026020818152604092839020835160a08101855281546001600160a01b0390811682526001830154169281019290925291820154928101929092526003810154606083015260040154608082015290565b600060016001600160a01b03831660009081526003602081815260408084208885529091529091206001015460ff169081111561049257610492610e52565b1490505b92915050565b6104a4610b87565b600680546001600160a01b0319166001600160a01b0392909216919091179055565b60006104d28383610be1565b9392505050565b6006546000906001600160a01b0316336001600160a01b0316146105315760405162461bcd60e51b815260206004820152600a60248201526927b7363c9027bbb732b960b11b60448201526064015b60405180910390fd5b600580546000818152600260208181526040808420885181546001600160a01b03199081166001600160a01b03928316178355938a01516001830180549095169116179092558701519181019190915560608601516003820155608086015160049091015582549192906105a483610f1e565b90915550909150505b919050565b6006546001600160a01b0316336001600160a01b0316146106025760405162461bcd60e51b815260206004820152600a60248201526927b7363c9027bbb732b960b11b6044820152606401610528565b604080516060810182528481526020808201858152428385019081526001600160a01b038616600090815260048452858120898252845285812094518555915160018501555160029384015590829052918220018054849290610666908490610f37565b9091555050505050565b610678610b87565b6106826000610c0e565b565b6000806106918442610f4a565b905061069e858285610c27565b95945050505050565b60015433906001600160a01b031681146107295760405162461bcd60e51b815260206004820152602960248201527f4f776e61626c6532537465703a2063616c6c6572206973206e6f74207468652060448201527f6e6577206f776e657200000000000000000000000000000000000000000000006064820152608401610528565b61073281610c0e565b50565b6006546001600160a01b0316336001600160a01b0316146107855760405162461bcd60e51b815260206004820152600a60248201526927b7363c9027bbb732b960b11b6044820152606401610528565b6001600160a01b0381166000908152600360209081526040808320858452909152902060018082015460ff1660038111156107c2576107c2610e52565b146107cc57600080fd5b42600582015560018101805460ff1916600290811790915580820154600085815260209290925260408220600301805491929091610666908490610f4a565b6006546001600160a01b0316336001600160a01b03161461085b5760405162461bcd60e51b815260206004820152600a60248201526927b7363c9027bbb732b960b11b6044820152606401610528565b6001600160a01b038116600090815260046020908152604080832085845282528083206001810180548583559085905560029182018590559281905290832001805491928392610666908490610f4a565b6108e66040805160c08101909152600080825260208201908152602001600081526020016000815260200160008152602001600081525090565b6001600160a01b0382166000908152600360208181526040808420878552825292839020835160c0810190945280548452600181015490929184019160ff9091169081111561093757610937610e52565b600381111561094857610948610e52565b81526002820154602082015260038201546040820152600482015460608201526005909101546080909101529392505050565b6006546001600160a01b0316336001600160a01b0316146109cb5760405162461bcd60e51b815260206004820152600a60248201526927b7363c9027bbb732b960b11b6044820152606401610528565b6040805160c0810182528581526001602080830182815283850188905260608401879052426080850152600060a085018190526001600160a01b038716815260038084528682208b83529093529490942083518155935184830180549495949193909260ff19909216918490811115610a4657610a46610e52565b021790555060408201518160020155606082015181600301556080820151816004015560a0820151816005015590505082600260008681526020019081526020016000206003016000828254610a9c9190610f37565b909155505050505050565b610acb60405180606001604052806000815260200160008152602001600081525090565b506001600160a01b0316600090815260046020908152604080832093835292815290829020825160608101845281548152600182015492810192909252600201549181019190915290565b610b1e610b87565b600180546001600160a01b0383166001600160a01b03199091168117909155610b4f6000546001600160a01b031690565b6001600160a01b03167f38d16b8cac22d99fc7c124b9cd0de2d3fa1faef420bfe791d8c362d765e2270060405160405180910390a350565b6000546001600160a01b031633146106825760405162461bcd60e51b815260206004820181905260248201527f4f776e61626c653a2063616c6c6572206973206e6f7420746865206f776e65726044820152606401610528565b60008160ff16600003610bf5575081610496565b6064610c0460ff841685610f5d565b6104d29190610f74565b600180546001600160a01b031916905561073281610c6a565b6000806064670de0b6b3a764000085610c408689610f5d565b610c4a9190610f5d565b610c549190610f74565b610c5e9190610f74565b905061069e8186610f37565b600080546001600160a01b038381166001600160a01b0319831681178455604051919092169283917f8be0079c531659141344cd1fd0a4f28419497f9722a3daafe3b4186f6b6457e09190a35050565b600060208284031215610ccc57600080fd5b5035919050565b80356001600160a01b03811681146105ad57600080fd5b60008060408385031215610cfd57600080fd5b82359150610d0d60208401610cd3565b90509250929050565b600060208284031215610d2857600080fd5b6104d282610cd3565b60008060408385031215610d4457600080fd5b82359150602083013560ff81168114610d5c57600080fd5b809150509250929050565b600060a08284031215610d7957600080fd5b60405160a0810181811067ffffffffffffffff82111715610daa57634e487b7160e01b600052604160045260246000fd5b604052610db683610cd3565b8152610dc460208401610cd3565b60208201526040830135604082015260608301356060820152608083013560808201528091505092915050565b600080600060608486031215610e0657600080fd5b8335925060208401359150610e1d60408501610cd3565b90509250925092565b600080600060608486031215610e3b57600080fd5b505081359360208301359350604090920135919050565b634e487b7160e01b600052602160045260246000fd5b81518152602082015160c082019060048110610e9457634e487b7160e01b600052602160045260246000fd5b8060208401525060408301516040830152606083015160608301526080830151608083015260a083015160a083015292915050565b60008060008060808587031215610edf57600080fd5b843593506020850135925060408501359150610efd60608601610cd3565b905092959194509250565b634e487b7160e01b600052601160045260246000fd5b600060018201610f3057610f30610f08565b5060010190565b8082018082111561049657610496610f08565b8181038181111561049657610496610f08565b808202811582820484141761049657610496610f08565b600082610f9157634e487b7160e01b600052601260045260246000fd5b50049056fea2646970667358221220d1aa2b089358f47c983fcfeb3d2fe41fc87b5115918492751a85fcc9fd48ad8464736f6c63430008180033",
  "linkReferences": {},
  "deployedLinkReferences": {}
}