{
  "_format": "hh-sol-artifact-1",
  "contractName": "Verifier",
  "sourceName": "contracts/noir/Verifier.sol",
  "abi": [
    {
      "inputs": [],
      "stateMutability": "nonpayable",
      "type": "constructor"
    },
    {
      "anonymous": false,
      "inputs": [
        {
          "indexed": true,
          "internalType": "address",
          "name": "previousOwner",
          "type": "address"
        },
        {
          "indexed": true,
          "internalType": "address",
          "name": "newOwner",
          "type": "address"
        }
      ],
      "name": "OwnershipTransferStarted",
      "type": "event"
    },
    {
      "anonymous": false,
      "inputs": [
        {
          "indexed": true,
          "internalType": "address",
          "name": "previousOwner",
          "type": "address"
        },
        {
          "indexed": true,
          "internalType": "address",
          "name": "newOwner",
          "type": "address"
        }
      ],
      "name": "OwnershipTransferred",
      "type": "event"
    },
    {
      "inputs": [],
      "name": "acceptOwnership",
      "outputs": [],
      "stateMutability": "nonpayable",
      "type": "function"
    },
    {
      "inputs": [
        {
          "internalType": "bytes32",
          "name": "proofId",
          "type": "bytes32"
        },
        {
          "internalType": "address",
          "name": "verifierId",
          "type": "address"
        },
        {
          "internalType": "uint8",
          "name": "points",
          "type": "uint8"
        }
      ],
      "name": "addProof",
      "outputs": [],
      "stateMutability": "nonpayable",
      "type": "function"
    },
    {
      "inputs": [],
      "name": "owner",
      "outputs": [
        {
          "internalType": "address",
          "name": "",
          "type": "address"
        }
      ],
      "stateMutability": "view",
      "type": "function"
    },
    {
      "inputs": [],
      "name": "pendingOwner",
      "outputs": [
        {
          "internalType": "address",
          "name": "",
          "type": "address"
        }
      ],
      "stateMutability": "view",
      "type": "function"
    },
    {
      "inputs": [],
      "name": "renounceOwnership",
      "outputs": [],
      "stateMutability": "nonpayable",
      "type": "function"
    },
    {
      "inputs": [
        {
          "internalType": "address",
          "name": "newOwner",
          "type": "address"
        }
      ],
      "name": "transferOwnership",
      "outputs": [],
      "stateMutability": "nonpayable",
      "type": "function"
    },
    {
      "inputs": [
        {
          "components": [
            {
              "internalType": "bytes32",
              "name": "proofId",
              "type": "bytes32"
            },
            {
              "internalType": "bytes32[]",
              "name": "pubInputs",
              "type": "bytes32[]"
            },
            {
              "internalType": "bytes",
              "name": "data",
              "type": "bytes"
            }
          ],
          "internalType": "struct Data.Proof",
          "name": "proof",
          "type": "tuple"
        }
      ],
      "name": "verify",
      "outputs": [
        {
          "internalType": "bool",
          "name": "",
          "type": "bool"
        },
        {
          "internalType": "uint8",
          "name": "",
          "type": "uint8"
        }
      ],
      "stateMutability": "view",
      "type": "function"
    }
  ],
  "bytecode": "0x608060405234801561001057600080fd5b5061001a3361001f565b61008b565b600180546001600160a01b03191690556100388161003b565b50565b600080546001600160a01b038381166001600160a01b0319831681178455604051919092169283917f8be0079c531659141344cd1fd0a4f28419497f9722a3daafe3b4186f6b6457e09190a35050565b6106888061009a6000396000f3fe608060405234801561001057600080fd5b506004361061007d5760003560e01c80638da5cb5b1161005b5780638da5cb5b146100a7578063ccc9ebb2146100d1578063e30c3978146100fd578063f2fde38b1461010e57600080fd5b8063423d3ebc14610082578063715018a61461009757806379ba50971461009f575b600080fd5b610095610090366004610478565b610121565b005b610095610196565b6100956101aa565b6000546001600160a01b03165b6040516001600160a01b0390911681526020015b60405180910390f35b6100e46100df3660046104be565b61023d565b60408051921515835260ff9091166020830152016100c8565b6001546001600160a01b03166100b4565b61009561011c366004610500565b610306565b610129610384565b6040805180820182526001600160a01b03938416815260ff928316602080830191825260009687526002905291909420935184549151909216600160a01b027fffffffffffffffffffffff0000000000000000000000000000000000000000009091169190921617179055565b61019e610384565b6101a860006103de565b565b60015433906001600160a01b031681146102315760405162461bcd60e51b815260206004820152602960248201527f4f776e61626c6532537465703a2063616c6c6572206973206e6f74207468652060448201527f6e6577206f776e6572000000000000000000000000000000000000000000000060648201526084015b60405180910390fd5b61023a816103de565b50565b80356000908152600260205260408082205482916001600160a01b03909116908290829063ea50d0e4906102739088018861051b565b61028060208a018a610569565b6040518563ffffffff1660e01b815260040161029f94939291906105b3565b602060405180830381865afa1580156102bc573d6000803e3d6000fd5b505050506040513d601f19601f820116820180604052508101906102e09190610630565b94356000908152600260205260409020549495600160a01b90950460ff16949350505050565b61030e610384565b600180546001600160a01b03831673ffffffffffffffffffffffffffffffffffffffff19909116811790915561034c6000546001600160a01b031690565b6001600160a01b03167f38d16b8cac22d99fc7c124b9cd0de2d3fa1faef420bfe791d8c362d765e2270060405160405180910390a350565b6000546001600160a01b031633146101a85760405162461bcd60e51b815260206004820181905260248201527f4f776e61626c653a2063616c6c6572206973206e6f7420746865206f776e65726044820152606401610228565b6001805473ffffffffffffffffffffffffffffffffffffffff1916905561023a81600080546001600160a01b0383811673ffffffffffffffffffffffffffffffffffffffff19831681178455604051919092169283917f8be0079c531659141344cd1fd0a4f28419497f9722a3daafe3b4186f6b6457e09190a35050565b80356001600160a01b038116811461047357600080fd5b919050565b60008060006060848603121561048d57600080fd5b8335925061049d6020850161045c565b9150604084013560ff811681146104b357600080fd5b809150509250925092565b6000602082840312156104d057600080fd5b813567ffffffffffffffff8111156104e757600080fd5b8201606081850312156104f957600080fd5b9392505050565b60006020828403121561051257600080fd5b6104f98261045c565b6000808335601e1984360301811261053257600080fd5b83018035915067ffffffffffffffff82111561054d57600080fd5b60200191503681900382131561056257600080fd5b9250929050565b6000808335601e1984360301811261058057600080fd5b83018035915067ffffffffffffffff82111561059b57600080fd5b6020019150600581901b360382131561056257600080fd5b60408152836040820152838560608301376000606085830101526000601f19601f860116820160608382030160208401528360608201527f07ffffffffffffffffffffffffffffffffffffffffffffffffffffffffffffff84111561061757600080fd5b8360051b80866080840137016080019695505050505050565b60006020828403121561064257600080fd5b815180151581146104f957600080fdfea2646970667358221220107b6358f44d931e490060bf13492d4186db1a4e1f28594be3ebceaa9272659d64736f6c63430008180033",
  "linkReferences": {},
  "deployedLinkReferences": {}
}